{
  "transactions": [
    {
      "hash": "0x39fb07e24a4158e207a1ff354c3c90e30e1d5d6eb333c9eebc9bbc9d3e1fa88c",
      "transactionType": "CALL",
      "contractName": null,
      "contractAddress": "0xd8d092a5e8207fa58716726a243fc8cb8b80c92a",
      "function": "setPeer(uint32,bytes32)",
      "arguments": [
        "40287",
        "0x00000000000000000000000033aa585b9934c9fe29471994db829fd6823b42ad"
      ],
      "transaction": {
        "from": "0xaf9f1cbb38cfdc0bb0c56953343b864e6b6769a8",
        "to": "0xd8d092a5e8207fa58716726a243fc8cb8b80c92a",
        "gas": "0x10da4",
        "value": "0x0",
        "input": "0x3400288b0000000000000000000000000000000000000000000000000000000000009d5f00000000000000000000000033aa585b9934c9fe29471994db829fd6823b42ad",
        "nonce": "0xa",
        "chainId": "0xaa36a7"
      },
      "additionalContracts": [],
      "isFixedGasLimit": false
    },
    {
      "hash": "0xec34c3709f4f24b245b5ea03c896869f045fe6e9170922c9bfe6326a814be5bb",
      "transactionType": "CALL",
      "contractName": null,
      "contractAddress": "0xd8d092a5e8207fa58716726a243fc8cb8b80c92a",
      "function": "setLzConfig(address,(uint32,uint32,bytes)[])",
      "arguments": [
        "0xcc1ae8Cf5D3904Cef3360A9532B477529b177cCE",
        "[(40287, 1, 0x0000000000000000000000000000000000000000000000000000000000002710000000000000000000000000718b92b5cb0a5552039b593faf724d182a881eda)]"
      ],
      "transaction": {
        "from": "0xaf9f1cbb38cfdc0bb0c56953343b864e6b6769a8",
        "to": "0xd8d092a5e8207fa58716726a243fc8cb8b80c92a",
        "gas": "0x17f25",
        "value": "0x0",
        "input": "0x60dc4a3e000000000000000000000000cc1ae8cf5d3904cef3360a9532b477529b177cce0000000000000000000000000000000000000000000000000000000000000040000000000000000000000000000000000000000000000000000000000000000100000000000000000000000000000000000000000000000000000000000000200000000000000000000000000000000000000000000000000000000000009d5f0000000000000000000000000000000000000000000000000000000000000001000000000000000000000000000000000000000000000000000000000000006000000000000000000000000000000000000000000000000000000000000000400000000000000000000000000000000000000000000000000000000000002710000000000000000000000000718b92b5cb0a5552039b593faf724d182a881eda",
        "nonce": "0xb",
        "chainId": "0xaa36a7"
      },
      "additionalContracts": [],
      "isFixedGasLimit": false
    },
    {
      "hash": "0xf6609e8429e9f18b3c6741f76237a86c1db8c8900ff601dbe154b140cfdc21d4",
      "transactionType": "CALL",
      "contractName": null,
      "contractAddress": "0xd8d092a5e8207fa58716726a243fc8cb8b80c92a",
      "function": "setLzConfig(address,(uint32,uint32,bytes)[])",
      "arguments": [
        "0xcc1ae8Cf5D3904Cef3360A9532B477529b177cCE",
        "[(40287, 2, 0x0000000000000000000000000000000000000000000000000000000000000020000000000000000000000000000000000000000000000000000000000000000100000000000000000000000000000000000000000000000000000000000000010000000000000000000000000000000000000000000000000000000000000000000000000000000000000000000000000000000000000000000000000000000000000000000000000000000000000000000000000000000000000000000000c0000000000000000000000000000000000000000000000000000000000000010000000000000000000000000000000000000000000000000000000000000000010000000000000000000000008eebf8b423b73bfca51a1db4b7354aa0bfca91930000000000000000000000000000000000000000000000000000000000000000)]"
      ],
      "transaction": {
        "from": "0xaf9f1cbb38cfdc0bb0c56953343b864e6b6769a8",
        "to": "0xd8d092a5e8207fa58716726a243fc8cb8b80c92a",
        "gas": "0x2b9b5",
        "value": "0x0",
        "input": "0x60dc4a3e000000000000000000000000cc1ae8cf5d3904cef3360a9532b477529b177cce0000000000000000000000000000000000000000000000000000000000000040000000000000000000000000000000000000000000000000000000000000000100000000000000000000000000000000000000000000000000000000000000200000000000000000000000000000000000000000000000000000000000009d5f0000000000000000000000000000000000000000000000000000000000000002000000000000000000000000000000000000000000000000000000000000006000000000000000000000000000000000000000000000000000000000000001400000000000000000000000000000000000000000000000000000000000000020000000000000000000000000000000000000000000000000000000000000000100000000000000000000000000000000000000000000000000000000000000010000000000000000000000000000000000000000000000000000000000000000000000000000000000000000000000000000000000000000000000000000000000000000000000000000000000000000000000000000000000000000000000c0000000000000000000000000000000000000000000000000000000000000010000000000000000000000000000000000000000000000000000000000000000010000000000000000000000008eebf8b423b73bfca51a1db4b7354aa0bfca91930000000000000000000000000000000000000000000000000000000000000000",
        "nonce": "0xc",
        "chainId": "0xaa36a7"
      },
      "additionalContracts": [],
      "isFixedGasLimit": false
    },
    {
      "hash": "0xdaf1b4df499d78b9684365164e70582e8bff99dbb0a82cd285ffd0c21e5bfc20",
      "transactionType": "CALL",
      "contractName": null,
      "contractAddress": "0xd8d092a5e8207fa58716726a243fc8cb8b80c92a",
      "function": "setLzConfig(address,(uint32,uint32,bytes)[])",
      "arguments": [
        "0xdAf00F5eE2158dD58E0d3857851c432E34A3A851",
        "[(40287, 2, 0x0000000000000000000000000000000000000000000000000000000000000020000000000000000000000000000000000000000000000000000000000000000100000000000000000000000000000000000000000000000000000000000000010000000000000000000000000000000000000000000000000000000000000000000000000000000000000000000000000000000000000000000000000000000000000000000000000000000000000000000000000000000000000000000000c0000000000000000000000000000000000000000000000000000000000000010000000000000000000000000000000000000000000000000000000000000000010000000000000000000000008eebf8b423b73bfca51a1db4b7354aa0bfca91930000000000000000000000000000000000000000000000000000000000000000)]"
      ],
      "transaction": {
        "from": "0xaf9f1cbb38cfdc0bb0c56953343b864e6b6769a8",
        "to": "0xd8d092a5e8207fa58716726a243fc8cb8b80c92a",
        "gas": "0x2918d",
        "value": "0x0",
        "input": "0x60dc4a3e000000000000000000000000daf00f5ee2158dd58e0d3857851c432e34a3a8510000000000000000000000000000000000000000000000000000000000000040000000000000000000000000000000000000000000000000000000000000000100000000000000000000000000000000000000000000000000000000000000200000000000000000000000000000000000000000000000000000000000009d5f0000000000000000000000000000000000000000000000000000000000000002000000000000000000000000000000000000000000000000000000000000006000000000000000000000000000000000000000000000000000000000000001400000000000000000000000000000000000000000000000000000000000000020000000000000000000000000000000000000000000000000000000000000000100000000000000000000000000000000000000000000000000000000000000010000000000000000000000000000000000000000000000000000000000000000000000000000000000000000000000000000000000000000000000000000000000000000000000000000000000000000000000000000000000000000000000c0000000000000000000000000000000000000000000000000000000000000010000000000000000000000000000000000000000000000000000000000000000010000000000000000000000008eebf8b423b73bfca51a1db4b7354aa0bfca91930000000000000000000000000000000000000000000000000000000000000000",
        "nonce": "0xd",
        "chainId": "0xaa36a7"
      },
      "additionalContracts": [],
      "isFixedGasLimit": false
    }
  ],
  "receipts": [
    {
      "status": "0x1",
      "cumulativeGasUsed": "0x109fe11",
      "logs": [
        {
          "address": "0xd8d092a5e8207fa58716726a243fc8cb8b80c92a",
          "topics": [
            "0x238399d427b947898edb290f5ff0f9109849b1c3ba196a42e35f00c50a54b98b"
          ],
          "data": "0x0000000000000000000000000000000000000000000000000000000000009d5f00000000000000000000000033aa585b9934c9fe29471994db829fd6823b42ad",
          "blockHash": "0x4aa066a31d725c4f210c6cc27bebf28316b5ab2a4b837ea658a233511f1ce502",
          "blockNumber": "0xa3859a",
          "blockTimestamp": "0x69ea1800",
          "transactionHash": "0xec34c3709f4f24b245b5ea03c896869f045fe6e9170922c9bfe6326a814be5bb",
          "transactionIndex": "0x76",
          "logIndex": "0x26c",
          "removed": false
        }
      ],
      "logsBloom": "0x00000000000000000000000000000000000000000000000000000000000000000000000000000000000000000000000000000000000000000800000000000000000000000000000000000000000000000000000000000000000000000000000000000000000000000000000000000000000000000000000000000000000000000000000000000000000000000000000000000000000000000000000000000000000000000000000000000000000000000000002020000000000002800000000000000000000000000000000000000000000000000000000000040000000000000000000000000000000000000000000000000000000000000000000000000000",
      "type": "0x2",
      "transactionHash": "0xec34c3709f4f24b245b5ea03c896869f045fe6e9170922c9bfe6326a814be5bb",
      "transactionIndex": "0x76",
      "blockHash": "0x4aa066a31d725c4f210c6cc27bebf28316b5ab2a4b837ea658a233511f1ce502",
      "blockNumber": "0xa3859a",
      "gasUsed": "0xc338",
      "effectiveGasPrice": "0x602053",
      "from": "0xaf9f1cbb38cfdc0bb0c56953343b864e6b6769a8",
      "to": "0xd8d092a5e8207fa58716726a243fc8cb8b80c92a",
      "contractAddress": null
    },
    {
      "status": "0x1",
      "cumulativeGasUsed": "0x10b040c",
      "logs": [
        {
          "address": "0xcc1ae8cf5d3904cef3360a9532b477529b177cce",
          "topics": [
            "0x779cb2dd9d2bb1be1737d05435d744facbfb84a2a4912e21379d39beddcdc805"
          ],
          "data": "0x000000000000000000000000d8d092a5e8207fa58716726a243fc8cb8b80c92a0000000000000000000000000000000000000000000000000000000000009d5f0000000000000000000000000000000000000000000000000000000000002710000000000000000000000000718b92b5cb0a5552039b593faf724d182a881eda",
          "blockHash": "0x4aa066a31d725c4f210c6cc27bebf28316b5ab2a4b837ea658a233511f1ce502",
          "blockNumber": "0xa3859a",
          "blockTimestamp": "0x69ea1800",
          "transactionHash": "0x39fb07e24a4158e207a1ff354c3c90e30e1d5d6eb333c9eebc9bbc9d3e1fa88c",
          "transactionIndex": "0x77",
          "logIndex": "0x26d",
          "removed": false
        }
      ],
      "logsBloom": "0x00000000000000000000000000000000000000000000000000000000000100000000000000000000000000000000000000000000000000000000000000000000000000000000000000000040000000000000000000000000000000000000000000000000000000000000000000000000000000000000000000000000000000000000000000000000000000000000000000000000000000000000000000000000000000000000000000000000000000000000000000000000000000000000000200000000000000000000000000000000000000080000000000000000000000000008000000000000000000000000000000000000000000000000000000000020",
      "type": "0x2",
      "transactionHash": "0x39fb07e24a4158e207a1ff354c3c90e30e1d5d6eb333c9eebc9bbc9d3e1fa88c",
      "transactionIndex": "0x77",
      "blockHash": "0x4aa066a31d725c4f210c6cc27bebf28316b5ab2a4b837ea658a233511f1ce502",
      "blockNumber": "0xa3859a",
      "gasUsed": "0x105fb",
      "effectiveGasPrice": "0x602053",
      "from": "0xaf9f1cbb38cfdc0bb0c56953343b864e6b6769a8",
      "to": "0xd8d092a5e8207fa58716726a243fc8cb8b80c92a",
      "contractAddress": null
    },
    {
      "status": "0x1",
      "cumulativeGasUsed": "0x10ce11d",
      "logs": [
        {
          "address": "0xcc1ae8cf5d3904cef3360a9532b477529b177cce",
          "topics": [
            "0x82118522aa536ac0e96cc5c689407ae42b89d592aa133890a01f1509842f5081"
          ],
          "data": "0x000000000000000000000000d8d092a5e8207fa58716726a243fc8cb8b80c92a0000000000000000000000000000000000000000000000000000000000009d5f0000000000000000000000000000000000000000000000000000000000000060000000000000000000000000000000000000000000000000000000000000000100000000000000000000000000000000000000000000000000000000000000010000000000000000000000000000000000000000000000000000000000000000000000000000000000000000000000000000000000000000000000000000000000000000000000000000000000000000000000000000000000000000000000c0000000000000000000000000000000000000000000000000000000000000010000000000000000000000000000000000000000000000000000000000000000010000000000000000000000008eebf8b423b73bfca51a1db4b7354aa0bfca91930000000000000000000000000000000000000000000000000000000000000000",
          "blockHash": "0x4aa066a31d725c4f210c6cc27bebf28316b5ab2a4b837ea658a233511f1ce502",
          "blockNumber": "0xa3859a",
          "blockTimestamp": "0x69ea1800",
          "transactionHash": "0xf6609e8429e9f18b3c6741f76237a86c1db8c8900ff601dbe154b140cfdc21d4",
          "transactionIndex": "0x78",
          "logIndex": "0x26e",
          "removed": false
        }
      ],
      "logsBloom": "0x00000000000000000000000000000000000000000000000000000000000100000000000000000000000000000000000000000000000000000000000000000000000000000000000000000000000000000000000000000000002000000000000000000000000000000000000000000000000000000000000000000000000000000000000000000000000000000000000000000000000000000000000000000000000000000000000000000002000000000000000000000000000000000000000000000000000000000000000000000000000000080000000000000000000000000000000000000000000000000000000000000000000000000000000000000030",
      "type": "0x2",
      "transactionHash": "0xf6609e8429e9f18b3c6741f76237a86c1db8c8900ff601dbe154b140cfdc21d4",
      "transactionIndex": "0x78",
      "blockHash": "0x4aa066a31d725c4f210c6cc27bebf28316b5ab2a4b837ea658a233511f1ce502",
      "blockNumber": "0xa3859a",
      "gasUsed": "0x1dd11",
      "effectiveGasPrice": "0x602053",
      "from": "0xaf9f1cbb38cfdc0bb0c56953343b864e6b6769a8",
      "to": "0xd8d092a5e8207fa58716726a243fc8cb8b80c92a",
      "contractAddress": null
    },
    {
      "status": "0x1",
      "cumulativeGasUsed": "0x10ebd2c",
      "logs": [
        {
          "address": "0xdaf00f5ee2158dd58e0d3857851c432e34a3a851",
          "topics": [
            "0x82118522aa536ac0e96cc5c689407ae42b89d592aa133890a01f1509842f5081"
          ],
          "data": "0x000000000000000000000000d8d092a5e8207fa58716726a243fc8cb8b80c92a0000000000000000000000000000000000000000000000000000000000009d5f0000000000000000000000000000000000000000000000000000000000000060000000000000000000000000000000000000000000000000000000000000000100000000000000000000000000000000000000000000000000000000000000010000000000000000000000000000000000000000000000000000000000000000000000000000000000000000000000000000000000000000000000000000000000000000000000000000000000000000000000000000000000000000000000c0000000000000000000000000000000000000000000000000000000000000010000000000000000000000000000000000000000000000000000000000000000010000000000000000000000008eebf8b423b73bfca51a1db4b7354aa0bfca91930000000000000000000000000000000000000000000000000000000000000000",
          "blockHash": "0x4aa066a31d725c4f210c6cc27bebf28316b5ab2a4b837ea658a233511f1ce502",
          "blockNumber": "0xa3859a",
          "blockTimestamp": "0x69ea1800",
          "transactionHash": "0xdaf1b4df499d78b9684365164e70582e8bff99dbb0a82cd285ffd0c21e5bfc20",
          "transactionIndex": "0x79",
          "logIndex": "0x26f",
          "removed": false
        }
      ],
      "logsBloom": "0x00000000000000000000000000000000000000000000000000000000000000000000000000800000000000000000000000000000000000000000000000000000000000000000000000000000000000000000000000000000002000000000000000000000000000000000000000000000000000000000000000000000000000000000000000000000000000000000000000000000000000000000000000000000000000000000000000000002000000000000000000000000000000000000000000000000000000000000000000000000000000000000000000000000000000000000000000001000000000000000000000000000000000100000000000000010",
      "type": "0x2",
      "transactionHash": "0xdaf1b4df499d78b9684365164e70582e8bff99dbb0a82cd285ffd0c21e5bfc20",
      "transactionIndex": "0x79",
      "blockHash": "0x4aa066a31d725c4f210c6cc27bebf28316b5ab2a4b837ea658a233511f1ce502",
      "blockNumber": "0xa3859a",
      "gasUsed": "0x1dc0f",
      "effectiveGasPrice": "0x602053",
      "from": "0xaf9f1cbb38cfdc0bb0c56953343b864e6b6769a8",
      "to": "0xd8d092a5e8207fa58716726a243fc8cb8b80c92a",
      "contractAddress": null
    }
  ],
  "libraries": [],
  "pending": [],
  "returns": {},
  "timestamp": 1776949250818,
  "chain": 11155111,
  "commit": "de55ea5"
}