{
  "transactions": [
    {
      "hash": "0x29f54e039f8ee6d81022c7bdaa15caae341ee78ede9dc5606eab3e72e5acf811",
      "transactionType": "CALL",
      "contractName": null,
      "contractAddress": "0xd8d092a5e8207fa58716726a243fc8cb8b80c92a",
      "function": "setPeer(uint32,bytes32)",
      "arguments": [
        "40245",
        "0x00000000000000000000000033aa585b9934c9fe29471994db829fd6823b42ad"
      ],
      "transaction": {
        "from": "0xaf9f1cbb38cfdc0bb0c56953343b864e6b6769a8",
        "to": "0xd8d092a5e8207fa58716726a243fc8cb8b80c92a",
        "gas": "0xa245",
        "value": "0x0",
        "input": "0x3400288b0000000000000000000000000000000000000000000000000000000000009d3500000000000000000000000033aa585b9934c9fe29471994db829fd6823b42ad",
        "nonce": "0x22",
        "chainId": "0xaa36a7"
      },
      "additionalContracts": [],
      "isFixedGasLimit": false
    },
    {
      "hash": "0x36f88c337423de5fc07381b4126476b3bbaa4308384c9bb2445bab0440391f81",
      "transactionType": "CALL",
      "contractName": null,
      "contractAddress": "0xd8d092a5e8207fa58716726a243fc8cb8b80c92a",
      "function": "setLzConfig(address,(uint32,uint32,bytes)[])",
      "arguments": [
        "0xcc1ae8Cf5D3904Cef3360A9532B477529b177cCE",
        "[(40245, 1, 0x0000000000000000000000000000000000000000000000000000000000002710000000000000000000000000718b92b5cb0a5552039b593faf724d182a881eda)]"
      ],
      "transaction": {
        "from": "0xaf9f1cbb38cfdc0bb0c56953343b864e6b6769a8",
        "to": "0xd8d092a5e8207fa58716726a243fc8cb8b80c92a",
        "gas": "0xfe7c",
        "value": "0x0",
        "input": "0x60dc4a3e000000000000000000000000cc1ae8cf5d3904cef3360a9532b477529b177cce0000000000000000000000000000000000000000000000000000000000000040000000000000000000000000000000000000000000000000000000000000000100000000000000000000000000000000000000000000000000000000000000200000000000000000000000000000000000000000000000000000000000009d350000000000000000000000000000000000000000000000000000000000000001000000000000000000000000000000000000000000000000000000000000006000000000000000000000000000000000000000000000000000000000000000400000000000000000000000000000000000000000000000000000000000002710000000000000000000000000718b92b5cb0a5552039b593faf724d182a881eda",
        "nonce": "0x23",
        "chainId": "0xaa36a7"
      },
      "additionalContracts": [],
      "isFixedGasLimit": false
    },
    {
      "hash": "0xf839bd26d72006d2a2da15e36cd0581cdc526fcdcd1b95d5d0a2eeee2dce0f24",
      "transactionType": "CALL",
      "contractName": null,
      "contractAddress": "0xd8d092a5e8207fa58716726a243fc8cb8b80c92a",
      "function": "setLzConfig(address,(uint32,uint32,bytes)[])",
      "arguments": [
        "0xcc1ae8Cf5D3904Cef3360A9532B477529b177cCE",
        "[(40245, 2, 0x0000000000000000000000000000000000000000000000000000000000000020000000000000000000000000000000000000000000000000000000000000000100000000000000000000000000000000000000000000000000000000000000020000000000000000000000000000000000000000000000000000000000000002000000000000000000000000000000000000000000000000000000000000000100000000000000000000000000000000000000000000000000000000000000c00000000000000000000000000000000000000000000000000000000000000120000000000000000000000000000000000000000000000000000000000000000200000000000000000000000068802e01d6321d5159208478f297d7007a7516ed0000000000000000000000008eebf8b423b73bfca51a1db4b7354aa0bfca919300000000000000000000000000000000000000000000000000000000000000020000000000000000000000009efba56c8598853e5b40fd9a66b54a6c163742d7000000000000000000000000dd7b5e1db4aafd5c8ec3b764efb8ed265aa5445b)]"
      ],
      "transaction": {
        "from": "0xaf9f1cbb38cfdc0bb0c56953343b864e6b6769a8",
        "to": "0xd8d092a5e8207fa58716726a243fc8cb8b80c92a",
        "gas": "0x1a5e4",
        "value": "0x0",
        "input": "0x60dc4a3e000000000000000000000000cc1ae8cf5d3904cef3360a9532b477529b177cce0000000000000000000000000000000000000000000000000000000000000040000000000000000000000000000000000000000000000000000000000000000100000000000000000000000000000000000000000000000000000000000000200000000000000000000000000000000000000000000000000000000000009d350000000000000000000000000000000000000000000000000000000000000002000000000000000000000000000000000000000000000000000000000000006000000000000000000000000000000000000000000000000000000000000001a00000000000000000000000000000000000000000000000000000000000000020000000000000000000000000000000000000000000000000000000000000000100000000000000000000000000000000000000000000000000000000000000020000000000000000000000000000000000000000000000000000000000000002000000000000000000000000000000000000000000000000000000000000000100000000000000000000000000000000000000000000000000000000000000c00000000000000000000000000000000000000000000000000000000000000120000000000000000000000000000000000000000000000000000000000000000200000000000000000000000068802e01d6321d5159208478f297d7007a7516ed0000000000000000000000008eebf8b423b73bfca51a1db4b7354aa0bfca919300000000000000000000000000000000000000000000000000000000000000020000000000000000000000009efba56c8598853e5b40fd9a66b54a6c163742d7000000000000000000000000dd7b5e1db4aafd5c8ec3b764efb8ed265aa5445b",
        "nonce": "0x24",
        "chainId": "0xaa36a7"
      },
      "additionalContracts": [],
      "isFixedGasLimit": false
    },
    {
      "hash": "0x85478dd28f442196180174eef46e66d72b6ef7a3833ac81cb06c3f5b3652384b",
      "transactionType": "CALL",
      "contractName": null,
      "contractAddress": "0xd8d092a5e8207fa58716726a243fc8cb8b80c92a",
      "function": "setLzConfig(address,(uint32,uint32,bytes)[])",
      "arguments": [
        "0xdAf00F5eE2158dD58E0d3857851c432E34A3A851",
        "[(40245, 2, 0x0000000000000000000000000000000000000000000000000000000000000020000000000000000000000000000000000000000000000000000000000000000100000000000000000000000000000000000000000000000000000000000000020000000000000000000000000000000000000000000000000000000000000002000000000000000000000000000000000000000000000000000000000000000100000000000000000000000000000000000000000000000000000000000000c00000000000000000000000000000000000000000000000000000000000000120000000000000000000000000000000000000000000000000000000000000000200000000000000000000000068802e01d6321d5159208478f297d7007a7516ed0000000000000000000000008eebf8b423b73bfca51a1db4b7354aa0bfca919300000000000000000000000000000000000000000000000000000000000000020000000000000000000000009efba56c8598853e5b40fd9a66b54a6c163742d7000000000000000000000000dd7b5e1db4aafd5c8ec3b764efb8ed265aa5445b)]"
      ],
      "transaction": {
        "from": "0xaf9f1cbb38cfdc0bb0c56953343b864e6b6769a8",
        "to": "0xd8d092a5e8207fa58716726a243fc8cb8b80c92a",
        "gas": "0x1a485",
        "value": "0x0",
        "input": "0x60dc4a3e000000000000000000000000daf00f5ee2158dd58e0d3857851c432e34a3a8510000000000000000000000000000000000000000000000000000000000000040000000000000000000000000000000000000000000000000000000000000000100000000000000000000000000000000000000000000000000000000000000200000000000000000000000000000000000000000000000000000000000009d350000000000000000000000000000000000000000000000000000000000000002000000000000000000000000000000000000000000000000000000000000006000000000000000000000000000000000000000000000000000000000000001a00000000000000000000000000000000000000000000000000000000000000020000000000000000000000000000000000000000000000000000000000000000100000000000000000000000000000000000000000000000000000000000000020000000000000000000000000000000000000000000000000000000000000002000000000000000000000000000000000000000000000000000000000000000100000000000000000000000000000000000000000000000000000000000000c00000000000000000000000000000000000000000000000000000000000000120000000000000000000000000000000000000000000000000000000000000000200000000000000000000000068802e01d6321d5159208478f297d7007a7516ed0000000000000000000000008eebf8b423b73bfca51a1db4b7354aa0bfca919300000000000000000000000000000000000000000000000000000000000000020000000000000000000000009efba56c8598853e5b40fd9a66b54a6c163742d7000000000000000000000000dd7b5e1db4aafd5c8ec3b764efb8ed265aa5445b",
        "nonce": "0x25",
        "chainId": "0xaa36a7"
      },
      "additionalContracts": [],
      "isFixedGasLimit": false
    }
  ],
  "receipts": [
    {
      "status": "0x1",
      "cumulativeGasUsed": "0xf6487d",
      "logs": [
        {
          "address": "0xd8d092a5e8207fa58716726a243fc8cb8b80c92a",
          "topics": [
            "0x238399d427b947898edb290f5ff0f9109849b1c3ba196a42e35f00c50a54b98b"
          ],
          "data": "0x0000000000000000000000000000000000000000000000000000000000009d3500000000000000000000000033aa585b9934c9fe29471994db829fd6823b42ad",
          "blockHash": "0x0e3a911d0416f7a2811100ffdb3f3b45d5124ce3e8defe71dc36a954fe27739a",
          "blockNumber": "0xa39d63",
          "blockTimestamp": "0x69eb542c",
          "transactionHash": "0x36f88c337423de5fc07381b4126476b3bbaa4308384c9bb2445bab0440391f81",
          "transactionIndex": "0x3e",
          "logIndex": "0x2f9",
          "removed": false
        }
      ],
      "logsBloom": "0x00000000000000000000000000000000000000000000000000000000000000000000000000000000000000000000000000000000000000000800000000000000000000000000000000000000000000000000000000000000000000000000000000000000000000000000000000000000000000000000000000000000000000000000000000000000000000000000000000000000000000000000000000000000000000000000000000000000000000000000002020000000000002800000000000000000000000000000000000000000000000000000000000040000000000000000000000000000000000000000000000000000000000000000000000000000",
      "type": "0x2",
      "transactionHash": "0x36f88c337423de5fc07381b4126476b3bbaa4308384c9bb2445bab0440391f81",
      "transactionIndex": "0x3e",
      "blockHash": "0x0e3a911d0416f7a2811100ffdb3f3b45d5124ce3e8defe71dc36a954fe27739a",
      "blockNumber": "0xa39d63",
      "gasUsed": "0x757c",
      "effectiveGasPrice": "0x31e6cd66",
      "from": "0xaf9f1cbb38cfdc0bb0c56953343b864e6b6769a8",
      "to": "0xd8d092a5e8207fa58716726a243fc8cb8b80c92a",
      "contractAddress": null
    },
    {
      "status": "0x1",
      "cumulativeGasUsed": "0xf700bc",
      "logs": [
        {
          "address": "0xcc1ae8cf5d3904cef3360a9532b477529b177cce",
          "topics": [
            "0x779cb2dd9d2bb1be1737d05435d744facbfb84a2a4912e21379d39beddcdc805"
          ],
          "data": "0x000000000000000000000000d8d092a5e8207fa58716726a243fc8cb8b80c92a0000000000000000000000000000000000000000000000000000000000009d350000000000000000000000000000000000000000000000000000000000002710000000000000000000000000718b92b5cb0a5552039b593faf724d182a881eda",
          "blockHash": "0x0e3a911d0416f7a2811100ffdb3f3b45d5124ce3e8defe71dc36a954fe27739a",
          "blockNumber": "0xa39d63",
          "blockTimestamp": "0x69eb542c",
          "transactionHash": "0x85478dd28f442196180174eef46e66d72b6ef7a3833ac81cb06c3f5b3652384b",
          "transactionIndex": "0x3f",
          "logIndex": "0x2fa",
          "removed": false
        }
      ],
      "logsBloom": "0x00000000000000000000000000000000000000000000000000000000000100000000000000000000000000000000000000000000000000000000000000000000000000000000000000000040000000000000000000000000000000000000000000000000000000000000000000000000000000000000000000000000000000000000000000000000000000000000000000000000000000000000000000000000000000000000000000000000000000000000000000000000000000000000000200000000000000000000000000000000000000080000000000000000000000000008000000000000000000000000000000000000000000000000000000000020",
      "type": "0x2",
      "transactionHash": "0x85478dd28f442196180174eef46e66d72b6ef7a3833ac81cb06c3f5b3652384b",
      "transactionIndex": "0x3f",
      "blockHash": "0x0e3a911d0416f7a2811100ffdb3f3b45d5124ce3e8defe71dc36a954fe27739a",
      "blockNumber": "0xa39d63",
      "gasUsed": "0xb83f",
      "effectiveGasPrice": "0x31e6cd66",
      "from": "0xaf9f1cbb38cfdc0bb0c56953343b864e6b6769a8",
      "to": "0xd8d092a5e8207fa58716726a243fc8cb8b80c92a",
      "contractAddress": null
    },
    {
      "status": "0x1",
      "cumulativeGasUsed": "0xf82135",
      "logs": [
        {
          "address": "0xcc1ae8cf5d3904cef3360a9532b477529b177cce",
          "topics": [
            "0x82118522aa536ac0e96cc5c689407ae42b89d592aa133890a01f1509842f5081"
          ],
          "data": "0x000000000000000000000000d8d092a5e8207fa58716726a243fc8cb8b80c92a0000000000000000000000000000000000000000000000000000000000009d350000000000000000000000000000000000000000000000000000000000000060000000000000000000000000000000000000000000000000000000000000000100000000000000000000000000000000000000000000000000000000000000020000000000000000000000000000000000000000000000000000000000000002000000000000000000000000000000000000000000000000000000000000000100000000000000000000000000000000000000000000000000000000000000c00000000000000000000000000000000000000000000000000000000000000120000000000000000000000000000000000000000000000000000000000000000200000000000000000000000068802e01d6321d5159208478f297d7007a7516ed0000000000000000000000008eebf8b423b73bfca51a1db4b7354aa0bfca919300000000000000000000000000000000000000000000000000000000000000020000000000000000000000009efba56c8598853e5b40fd9a66b54a6c163742d7000000000000000000000000dd7b5e1db4aafd5c8ec3b764efb8ed265aa5445b",
          "blockHash": "0x0e3a911d0416f7a2811100ffdb3f3b45d5124ce3e8defe71dc36a954fe27739a",
          "blockNumber": "0xa39d63",
          "blockTimestamp": "0x69eb542c",
          "transactionHash": "0x29f54e039f8ee6d81022c7bdaa15caae341ee78ede9dc5606eab3e72e5acf811",
          "transactionIndex": "0x40",
          "logIndex": "0x2fb",
          "removed": false
        }
      ],
      "logsBloom": "0x00000000000000000000000000000000000000000000000000000000000100000000000000000000000000000000000000000000000000000000000000000000000000000000000000000000000000000000000000000000002000000000000000000000000000000000000000000000000000000000000000000000000000000000000000000000000000000000000000000000000000000000000000000000000000000000000000000002000000000000000000000000000000000000000000000000000000000000000000000000000000080000000000000000000000000000000000000000000000000000000000000000000000000000000000000030",
      "type": "0x2",
      "transactionHash": "0x29f54e039f8ee6d81022c7bdaa15caae341ee78ede9dc5606eab3e72e5acf811",
      "transactionIndex": "0x40",
      "blockHash": "0x0e3a911d0416f7a2811100ffdb3f3b45d5124ce3e8defe71dc36a954fe27739a",
      "blockNumber": "0xa39d63",
      "gasUsed": "0x12079",
      "effectiveGasPrice": "0x31e6cd66",
      "from": "0xaf9f1cbb38cfdc0bb0c56953343b864e6b6769a8",
      "to": "0xd8d092a5e8207fa58716726a243fc8cb8b80c92a",
      "contractAddress": null
    },
    {
      "status": "0x1",
      "cumulativeGasUsed": "0xf940be",
      "logs": [
        {
          "address": "0xdaf00f5ee2158dd58e0d3857851c432e34a3a851",
          "topics": [
            "0x82118522aa536ac0e96cc5c689407ae42b89d592aa133890a01f1509842f5081"
          ],
          "data": "0x000000000000000000000000d8d092a5e8207fa58716726a243fc8cb8b80c92a0000000000000000000000000000000000000000000000000000000000009d350000000000000000000000000000000000000000000000000000000000000060000000000000000000000000000000000000000000000000000000000000000100000000000000000000000000000000000000000000000000000000000000020000000000000000000000000000000000000000000000000000000000000002000000000000000000000000000000000000000000000000000000000000000100000000000000000000000000000000000000000000000000000000000000c00000000000000000000000000000000000000000000000000000000000000120000000000000000000000000000000000000000000000000000000000000000200000000000000000000000068802e01d6321d5159208478f297d7007a7516ed0000000000000000000000008eebf8b423b73bfca51a1db4b7354aa0bfca919300000000000000000000000000000000000000000000000000000000000000020000000000000000000000009efba56c8598853e5b40fd9a66b54a6c163742d7000000000000000000000000dd7b5e1db4aafd5c8ec3b764efb8ed265aa5445b",
          "blockHash": "0x0e3a911d0416f7a2811100ffdb3f3b45d5124ce3e8defe71dc36a954fe27739a",
          "blockNumber": "0xa39d63",
          "blockTimestamp": "0x69eb542c",
          "transactionHash": "0xf839bd26d72006d2a2da15e36cd0581cdc526fcdcd1b95d5d0a2eeee2dce0f24",
          "transactionIndex": "0x41",
          "logIndex": "0x2fc",
          "removed": false
        }
      ],
      "logsBloom": "0x00000000000000000000000000000000000000000000000000000000000000000000000000800000000000000000000000000000000000000000000000000000000000000000000000000000000000000000000000000000002000000000000000000000000000000000000000000000000000000000000000000000000000000000000000000000000000000000000000000000000000000000000000000000000000000000000000000002000000000000000000000000000000000000000000000000000000000000000000000000000000000000000000000000000000000000000000001000000000000000000000000000000000100000000000000010",
      "type": "0x2",
      "transactionHash": "0xf839bd26d72006d2a2da15e36cd0581cdc526fcdcd1b95d5d0a2eeee2dce0f24",
      "transactionIndex": "0x41",
      "blockHash": "0x0e3a911d0416f7a2811100ffdb3f3b45d5124ce3e8defe71dc36a954fe27739a",
      "blockNumber": "0xa39d63",
      "gasUsed": "0x11f89",
      "effectiveGasPrice": "0x31e6cd66",
      "from": "0xaf9f1cbb38cfdc0bb0c56953343b864e6b6769a8",
      "to": "0xd8d092a5e8207fa58716726a243fc8cb8b80c92a",
      "contractAddress": null
    }
  ],
  "libraries": [],
  "pending": [],
  "returns": {},
  "timestamp": 1777030189491,
  "chain": 11155111,
  "commit": "de55ea5"
}