{
  "transactions": [
    {
      "hash": "0x42fd3fac7138c64a66f1277c8d45a46b250da2c45c1dccf216a747833a068a8b",
      "transactionType": "CALL",
      "contractName": null,
      "contractAddress": "0xd8d092a5e8207fa58716726a243fc8cb8b80c92a",
      "function": "setPeer(uint32,bytes32)",
      "arguments": [
        "40245",
        "0x00000000000000000000000033aa585b9934c9fe29471994db829fd6823b42ad"
      ],
      "transaction": {
        "from": "0xaf9f1cbb38cfdc0bb0c56953343b864e6b6769a8",
        "to": "0xd8d092a5e8207fa58716726a243fc8cb8b80c92a",
        "gas": "0xa245",
        "value": "0x0",
        "input": "0x3400288b0000000000000000000000000000000000000000000000000000000000009d3500000000000000000000000033aa585b9934c9fe29471994db829fd6823b42ad",
        "nonce": "0x1a",
        "chainId": "0xaa36a7"
      },
      "additionalContracts": [],
      "isFixedGasLimit": false
    },
    {
      "hash": "0x85c1b7bd091005d8e811410992515c812399e1b2d23558ba0ca4ba8f0782939f",
      "transactionType": "CALL",
      "contractName": null,
      "contractAddress": "0xd8d092a5e8207fa58716726a243fc8cb8b80c92a",
      "function": "setLzConfig(address,(uint32,uint32,bytes)[])",
      "arguments": [
        "0xcc1ae8Cf5D3904Cef3360A9532B477529b177cCE",
        "[(40245, 1, 0x0000000000000000000000000000000000000000000000000000000000002710000000000000000000000000718b92b5cb0a5552039b593faf724d182a881eda)]"
      ],
      "transaction": {
        "from": "0xaf9f1cbb38cfdc0bb0c56953343b864e6b6769a8",
        "to": "0xd8d092a5e8207fa58716726a243fc8cb8b80c92a",
        "gas": "0xfe7c",
        "value": "0x0",
        "input": "0x60dc4a3e000000000000000000000000cc1ae8cf5d3904cef3360a9532b477529b177cce0000000000000000000000000000000000000000000000000000000000000040000000000000000000000000000000000000000000000000000000000000000100000000000000000000000000000000000000000000000000000000000000200000000000000000000000000000000000000000000000000000000000009d350000000000000000000000000000000000000000000000000000000000000001000000000000000000000000000000000000000000000000000000000000006000000000000000000000000000000000000000000000000000000000000000400000000000000000000000000000000000000000000000000000000000002710000000000000000000000000718b92b5cb0a5552039b593faf724d182a881eda",
        "nonce": "0x1b",
        "chainId": "0xaa36a7"
      },
      "additionalContracts": [],
      "isFixedGasLimit": false
    },
    {
      "hash": "0x011fd991b4d967366d9e92bedb82cf9207c12bd2e730ec747fea32cf5c940e42",
      "transactionType": "CALL",
      "contractName": null,
      "contractAddress": "0xd8d092a5e8207fa58716726a243fc8cb8b80c92a",
      "function": "setLzConfig(address,(uint32,uint32,bytes)[])",
      "arguments": [
        "0xcc1ae8Cf5D3904Cef3360A9532B477529b177cCE",
        "[(40245, 2, 0x0000000000000000000000000000000000000000000000000000000000000020000000000000000000000000000000000000000000000000000000000000000100000000000000000000000000000000000000000000000000000000000000040000000000000000000000000000000000000000000000000000000000000000000000000000000000000000000000000000000000000000000000000000000000000000000000000000000000000000000000000000000000000000000000c00000000000000000000000000000000000000000000000000000000000000160000000000000000000000000000000000000000000000000000000000000000400000000000000000000000068802e01d6321d5159208478f297d7007a7516ed0000000000000000000000008eebf8b423b73bfca51a1db4b7354aa0bfca91930000000000000000000000009efba56c8598853e5b40fd9a66b54a6c163742d7000000000000000000000000dd7b5e1db4aafd5c8ec3b764efb8ed265aa5445b0000000000000000000000000000000000000000000000000000000000000000)]"
      ],
      "transaction": {
        "from": "0xaf9f1cbb38cfdc0bb0c56953343b864e6b6769a8",
        "to": "0xd8d092a5e8207fa58716726a243fc8cb8b80c92a",
        "gas": "0x2f860",
        "value": "0x0",
        "input": "0x60dc4a3e000000000000000000000000cc1ae8cf5d3904cef3360a9532b477529b177cce0000000000000000000000000000000000000000000000000000000000000040000000000000000000000000000000000000000000000000000000000000000100000000000000000000000000000000000000000000000000000000000000200000000000000000000000000000000000000000000000000000000000009d350000000000000000000000000000000000000000000000000000000000000002000000000000000000000000000000000000000000000000000000000000006000000000000000000000000000000000000000000000000000000000000001a00000000000000000000000000000000000000000000000000000000000000020000000000000000000000000000000000000000000000000000000000000000100000000000000000000000000000000000000000000000000000000000000040000000000000000000000000000000000000000000000000000000000000000000000000000000000000000000000000000000000000000000000000000000000000000000000000000000000000000000000000000000000000000000000c00000000000000000000000000000000000000000000000000000000000000160000000000000000000000000000000000000000000000000000000000000000400000000000000000000000068802e01d6321d5159208478f297d7007a7516ed0000000000000000000000008eebf8b423b73bfca51a1db4b7354aa0bfca91930000000000000000000000009efba56c8598853e5b40fd9a66b54a6c163742d7000000000000000000000000dd7b5e1db4aafd5c8ec3b764efb8ed265aa5445b0000000000000000000000000000000000000000000000000000000000000000",
        "nonce": "0x1c",
        "chainId": "0xaa36a7"
      },
      "additionalContracts": [],
      "isFixedGasLimit": false
    },
    {
      "hash": "0x0ad0358ea9ca227eac3e82e52d9d9c6f8fe89010010d153545052a577db06de9",
      "transactionType": "CALL",
      "contractName": null,
      "contractAddress": "0xd8d092a5e8207fa58716726a243fc8cb8b80c92a",
      "function": "setLzConfig(address,(uint32,uint32,bytes)[])",
      "arguments": [
        "0xdAf00F5eE2158dD58E0d3857851c432E34A3A851",
        "[(40245, 2, 0x0000000000000000000000000000000000000000000000000000000000000020000000000000000000000000000000000000000000000000000000000000000100000000000000000000000000000000000000000000000000000000000000040000000000000000000000000000000000000000000000000000000000000000000000000000000000000000000000000000000000000000000000000000000000000000000000000000000000000000000000000000000000000000000000c00000000000000000000000000000000000000000000000000000000000000160000000000000000000000000000000000000000000000000000000000000000400000000000000000000000068802e01d6321d5159208478f297d7007a7516ed0000000000000000000000008eebf8b423b73bfca51a1db4b7354aa0bfca91930000000000000000000000009efba56c8598853e5b40fd9a66b54a6c163742d7000000000000000000000000dd7b5e1db4aafd5c8ec3b764efb8ed265aa5445b0000000000000000000000000000000000000000000000000000000000000000)]"
      ],
      "transaction": {
        "from": "0xaf9f1cbb38cfdc0bb0c56953343b864e6b6769a8",
        "to": "0xd8d092a5e8207fa58716726a243fc8cb8b80c92a",
        "gas": "0x2f715",
        "value": "0x0",
        "input": "0x60dc4a3e000000000000000000000000daf00f5ee2158dd58e0d3857851c432e34a3a8510000000000000000000000000000000000000000000000000000000000000040000000000000000000000000000000000000000000000000000000000000000100000000000000000000000000000000000000000000000000000000000000200000000000000000000000000000000000000000000000000000000000009d350000000000000000000000000000000000000000000000000000000000000002000000000000000000000000000000000000000000000000000000000000006000000000000000000000000000000000000000000000000000000000000001a00000000000000000000000000000000000000000000000000000000000000020000000000000000000000000000000000000000000000000000000000000000100000000000000000000000000000000000000000000000000000000000000040000000000000000000000000000000000000000000000000000000000000000000000000000000000000000000000000000000000000000000000000000000000000000000000000000000000000000000000000000000000000000000000c00000000000000000000000000000000000000000000000000000000000000160000000000000000000000000000000000000000000000000000000000000000400000000000000000000000068802e01d6321d5159208478f297d7007a7516ed0000000000000000000000008eebf8b423b73bfca51a1db4b7354aa0bfca91930000000000000000000000009efba56c8598853e5b40fd9a66b54a6c163742d7000000000000000000000000dd7b5e1db4aafd5c8ec3b764efb8ed265aa5445b0000000000000000000000000000000000000000000000000000000000000000",
        "nonce": "0x1d",
        "chainId": "0xaa36a7"
      },
      "additionalContracts": [],
      "isFixedGasLimit": false
    }
  ],
  "receipts": [
    {
      "status": "0x1",
      "cumulativeGasUsed": "0x7f92e0",
      "logs": [
        {
          "address": "0xd8d092a5e8207fa58716726a243fc8cb8b80c92a",
          "topics": [
            "0x238399d427b947898edb290f5ff0f9109849b1c3ba196a42e35f00c50a54b98b"
          ],
          "data": "0x0000000000000000000000000000000000000000000000000000000000009d3500000000000000000000000033aa585b9934c9fe29471994db829fd6823b42ad",
          "blockHash": "0xeeec503e9c24f6ff3bd236ed84c389bf5259e167e78379fbc14f54dbc89e27de",
          "blockNumber": "0xa39cc4",
          "blockTimestamp": "0x69eb4bc8",
          "transactionHash": "0x011fd991b4d967366d9e92bedb82cf9207c12bd2e730ec747fea32cf5c940e42",
          "transactionIndex": "0x30",
          "logIndex": "0x122",
          "removed": false
        }
      ],
      "logsBloom": "0x00000000000000000000000000000000000000000000000000000000000000000000000000000000000000000000000000000000000000000800000000000000000000000000000000000000000000000000000000000000000000000000000000000000000000000000000000000000000000000000000000000000000000000000000000000000000000000000000000000000000000000000000000000000000000000000000000000000000000000000002020000000000002800000000000000000000000000000000000000000000000000000000000040000000000000000000000000000000000000000000000000000000000000000000000000000",
      "type": "0x2",
      "transactionHash": "0x011fd991b4d967366d9e92bedb82cf9207c12bd2e730ec747fea32cf5c940e42",
      "transactionIndex": "0x30",
      "blockHash": "0xeeec503e9c24f6ff3bd236ed84c389bf5259e167e78379fbc14f54dbc89e27de",
      "blockNumber": "0xa39cc4",
      "gasUsed": "0x757c",
      "effectiveGasPrice": "0x11c3c32aa",
      "from": "0xaf9f1cbb38cfdc0bb0c56953343b864e6b6769a8",
      "to": "0xd8d092a5e8207fa58716726a243fc8cb8b80c92a",
      "contractAddress": null
    },
    {
      "status": "0x1",
      "cumulativeGasUsed": "0x804b1f",
      "logs": [
        {
          "address": "0xcc1ae8cf5d3904cef3360a9532b477529b177cce",
          "topics": [
            "0x779cb2dd9d2bb1be1737d05435d744facbfb84a2a4912e21379d39beddcdc805"
          ],
          "data": "0x000000000000000000000000d8d092a5e8207fa58716726a243fc8cb8b80c92a0000000000000000000000000000000000000000000000000000000000009d350000000000000000000000000000000000000000000000000000000000002710000000000000000000000000718b92b5cb0a5552039b593faf724d182a881eda",
          "blockHash": "0xeeec503e9c24f6ff3bd236ed84c389bf5259e167e78379fbc14f54dbc89e27de",
          "blockNumber": "0xa39cc4",
          "blockTimestamp": "0x69eb4bc8",
          "transactionHash": "0x85c1b7bd091005d8e811410992515c812399e1b2d23558ba0ca4ba8f0782939f",
          "transactionIndex": "0x31",
          "logIndex": "0x123",
          "removed": false
        }
      ],
      "logsBloom": "0x00000000000000000000000000000000000000000000000000000000000100000000000000000000000000000000000000000000000000000000000000000000000000000000000000000040000000000000000000000000000000000000000000000000000000000000000000000000000000000000000000000000000000000000000000000000000000000000000000000000000000000000000000000000000000000000000000000000000000000000000000000000000000000000000200000000000000000000000000000000000000080000000000000000000000000008000000000000000000000000000000000000000000000000000000000020",
      "type": "0x2",
      "transactionHash": "0x85c1b7bd091005d8e811410992515c812399e1b2d23558ba0ca4ba8f0782939f",
      "transactionIndex": "0x31",
      "blockHash": "0xeeec503e9c24f6ff3bd236ed84c389bf5259e167e78379fbc14f54dbc89e27de",
      "blockNumber": "0xa39cc4",
      "gasUsed": "0xb83f",
      "effectiveGasPrice": "0x11c3c32aa",
      "from": "0xaf9f1cbb38cfdc0bb0c56953343b864e6b6769a8",
      "to": "0xd8d092a5e8207fa58716726a243fc8cb8b80c92a",
      "contractAddress": null
    },
    {
      "status": "0x1",
      "cumulativeGasUsed": "0x82719f",
      "logs": [
        {
          "address": "0xcc1ae8cf5d3904cef3360a9532b477529b177cce",
          "topics": [
            "0x82118522aa536ac0e96cc5c689407ae42b89d592aa133890a01f1509842f5081"
          ],
          "data": "0x000000000000000000000000d8d092a5e8207fa58716726a243fc8cb8b80c92a0000000000000000000000000000000000000000000000000000000000009d350000000000000000000000000000000000000000000000000000000000000060000000000000000000000000000000000000000000000000000000000000000100000000000000000000000000000000000000000000000000000000000000040000000000000000000000000000000000000000000000000000000000000000000000000000000000000000000000000000000000000000000000000000000000000000000000000000000000000000000000000000000000000000000000c00000000000000000000000000000000000000000000000000000000000000160000000000000000000000000000000000000000000000000000000000000000400000000000000000000000068802e01d6321d5159208478f297d7007a7516ed0000000000000000000000008eebf8b423b73bfca51a1db4b7354aa0bfca91930000000000000000000000009efba56c8598853e5b40fd9a66b54a6c163742d7000000000000000000000000dd7b5e1db4aafd5c8ec3b764efb8ed265aa5445b0000000000000000000000000000000000000000000000000000000000000000",
          "blockHash": "0xeeec503e9c24f6ff3bd236ed84c389bf5259e167e78379fbc14f54dbc89e27de",
          "blockNumber": "0xa39cc4",
          "blockTimestamp": "0x69eb4bc8",
          "transactionHash": "0x0ad0358ea9ca227eac3e82e52d9d9c6f8fe89010010d153545052a577db06de9",
          "transactionIndex": "0x32",
          "logIndex": "0x124",
          "removed": false
        }
      ],
      "logsBloom": "0x00000000000000000000000000000000000000000000000000000000000100000000000000000000000000000000000000000000000000000000000000000000000000000000000000000000000000000000000000000000002000000000000000000000000000000000000000000000000000000000000000000000000000000000000000000000000000000000000000000000000000000000000000000000000000000000000000000002000000000000000000000000000000000000000000000000000000000000000000000000000000080000000000000000000000000000000000000000000000000000000000000000000000000000000000000030",
      "type": "0x2",
      "transactionHash": "0x0ad0358ea9ca227eac3e82e52d9d9c6f8fe89010010d153545052a577db06de9",
      "transactionIndex": "0x32",
      "blockHash": "0xeeec503e9c24f6ff3bd236ed84c389bf5259e167e78379fbc14f54dbc89e27de",
      "blockNumber": "0xa39cc4",
      "gasUsed": "0x22680",
      "effectiveGasPrice": "0x11c3c32aa",
      "from": "0xaf9f1cbb38cfdc0bb0c56953343b864e6b6769a8",
      "to": "0xd8d092a5e8207fa58716726a243fc8cb8b80c92a",
      "contractAddress": null
    },
    {
      "status": "0x1",
      "cumulativeGasUsed": "0x84972f",
      "logs": [
        {
          "address": "0xdaf00f5ee2158dd58e0d3857851c432e34a3a851",
          "topics": [
            "0x82118522aa536ac0e96cc5c689407ae42b89d592aa133890a01f1509842f5081"
          ],
          "data": "0x000000000000000000000000d8d092a5e8207fa58716726a243fc8cb8b80c92a0000000000000000000000000000000000000000000000000000000000009d350000000000000000000000000000000000000000000000000000000000000060000000000000000000000000000000000000000000000000000000000000000100000000000000000000000000000000000000000000000000000000000000040000000000000000000000000000000000000000000000000000000000000000000000000000000000000000000000000000000000000000000000000000000000000000000000000000000000000000000000000000000000000000000000c00000000000000000000000000000000000000000000000000000000000000160000000000000000000000000000000000000000000000000000000000000000400000000000000000000000068802e01d6321d5159208478f297d7007a7516ed0000000000000000000000008eebf8b423b73bfca51a1db4b7354aa0bfca91930000000000000000000000009efba56c8598853e5b40fd9a66b54a6c163742d7000000000000000000000000dd7b5e1db4aafd5c8ec3b764efb8ed265aa5445b0000000000000000000000000000000000000000000000000000000000000000",
          "blockHash": "0xeeec503e9c24f6ff3bd236ed84c389bf5259e167e78379fbc14f54dbc89e27de",
          "blockNumber": "0xa39cc4",
          "blockTimestamp": "0x69eb4bc8",
          "transactionHash": "0x42fd3fac7138c64a66f1277c8d45a46b250da2c45c1dccf216a747833a068a8b",
          "transactionIndex": "0x33",
          "logIndex": "0x125",
          "removed": false
        }
      ],
      "logsBloom": "0x00000000000000000000000000000000000000000000000000000000000000000000000000800000000000000000000000000000000000000000000000000000000000000000000000000000000000000000000000000000002000000000000000000000000000000000000000000000000000000000000000000000000000000000000000000000000000000000000000000000000000000000000000000000000000000000000000000002000000000000000000000000000000000000000000000000000000000000000000000000000000000000000000000000000000000000000000001000000000000000000000000000000000100000000000000010",
      "type": "0x2",
      "transactionHash": "0x42fd3fac7138c64a66f1277c8d45a46b250da2c45c1dccf216a747833a068a8b",
      "transactionIndex": "0x33",
      "blockHash": "0xeeec503e9c24f6ff3bd236ed84c389bf5259e167e78379fbc14f54dbc89e27de",
      "blockNumber": "0xa39cc4",
      "gasUsed": "0x22590",
      "effectiveGasPrice": "0x11c3c32aa",
      "from": "0xaf9f1cbb38cfdc0bb0c56953343b864e6b6769a8",
      "to": "0xd8d092a5e8207fa58716726a243fc8cb8b80c92a",
      "contractAddress": null
    }
  ],
  "libraries": [],
  "pending": [],
  "returns": {},
  "timestamp": 1777028041318,
  "chain": 11155111,
  "commit": "de55ea5"
}