{
  "transactions": [
    {
      "hash": "0x29453bcc13bbf5ef444d2288ef1ff3141bb53b71065fc85d9fe9916868a0918e",
      "transactionType": "CALL",
      "contractName": null,
      "contractAddress": "0xd8d092a5e8207fa58716726a243fc8cb8b80c92a",
      "function": "setPeer(uint32,bytes32)",
      "arguments": [
        "40245",
        "0x00000000000000000000000033aa585b9934c9fe29471994db829fd6823b42ad"
      ],
      "transaction": {
        "from": "0xaf9f1cbb38cfdc0bb0c56953343b864e6b6769a8",
        "to": "0xd8d092a5e8207fa58716726a243fc8cb8b80c92a",
        "gas": "0xa245",
        "value": "0x0",
        "input": "0x3400288b0000000000000000000000000000000000000000000000000000000000009d3500000000000000000000000033aa585b9934c9fe29471994db829fd6823b42ad",
        "nonce": "0x16",
        "chainId": "0xaa36a7"
      },
      "additionalContracts": [],
      "isFixedGasLimit": false
    },
    {
      "hash": "0x88ad5798b1e9138e7214a0211f51491442e3ebb89daa8a2dc1136ed99abd06e3",
      "transactionType": "CALL",
      "contractName": null,
      "contractAddress": "0xd8d092a5e8207fa58716726a243fc8cb8b80c92a",
      "function": "setLzConfig(address,(uint32,uint32,bytes)[])",
      "arguments": [
        "0xcc1ae8Cf5D3904Cef3360A9532B477529b177cCE",
        "[(40245, 1, 0x0000000000000000000000000000000000000000000000000000000000002710000000000000000000000000718b92b5cb0a5552039b593faf724d182a881eda)]"
      ],
      "transaction": {
        "from": "0xaf9f1cbb38cfdc0bb0c56953343b864e6b6769a8",
        "to": "0xd8d092a5e8207fa58716726a243fc8cb8b80c92a",
        "gas": "0xfe7c",
        "value": "0x0",
        "input": "0x60dc4a3e000000000000000000000000cc1ae8cf5d3904cef3360a9532b477529b177cce0000000000000000000000000000000000000000000000000000000000000040000000000000000000000000000000000000000000000000000000000000000100000000000000000000000000000000000000000000000000000000000000200000000000000000000000000000000000000000000000000000000000009d350000000000000000000000000000000000000000000000000000000000000001000000000000000000000000000000000000000000000000000000000000006000000000000000000000000000000000000000000000000000000000000000400000000000000000000000000000000000000000000000000000000000002710000000000000000000000000718b92b5cb0a5552039b593faf724d182a881eda",
        "nonce": "0x17",
        "chainId": "0xaa36a7"
      },
      "additionalContracts": [],
      "isFixedGasLimit": false
    },
    {
      "hash": "0xaa9dc899f7127ad93f40de4be3f4fa027378210ad253967514cae7909956372d",
      "transactionType": "CALL",
      "contractName": null,
      "contractAddress": "0xd8d092a5e8207fa58716726a243fc8cb8b80c92a",
      "function": "setLzConfig(address,(uint32,uint32,bytes)[])",
      "arguments": [
        "0xcc1ae8Cf5D3904Cef3360A9532B477529b177cCE",
        "[(40245, 2, 0x0000000000000000000000000000000000000000000000000000000000000020000000000000000000000000000000000000000000000000000000000000000100000000000000000000000000000000000000000000000000000000000000010000000000000000000000000000000000000000000000000000000000000000000000000000000000000000000000000000000000000000000000000000000000000000000000000000000000000000000000000000000000000000000000c0000000000000000000000000000000000000000000000000000000000000010000000000000000000000000000000000000000000000000000000000000000010000000000000000000000008eebf8b423b73bfca51a1db4b7354aa0bfca91930000000000000000000000000000000000000000000000000000000000000000)]"
      ],
      "transaction": {
        "from": "0xaf9f1cbb38cfdc0bb0c56953343b864e6b6769a8",
        "to": "0xd8d092a5e8207fa58716726a243fc8cb8b80c92a",
        "gas": "0x150d5",
        "value": "0x0",
        "input": "0x60dc4a3e000000000000000000000000cc1ae8cf5d3904cef3360a9532b477529b177cce0000000000000000000000000000000000000000000000000000000000000040000000000000000000000000000000000000000000000000000000000000000100000000000000000000000000000000000000000000000000000000000000200000000000000000000000000000000000000000000000000000000000009d350000000000000000000000000000000000000000000000000000000000000002000000000000000000000000000000000000000000000000000000000000006000000000000000000000000000000000000000000000000000000000000001400000000000000000000000000000000000000000000000000000000000000020000000000000000000000000000000000000000000000000000000000000000100000000000000000000000000000000000000000000000000000000000000010000000000000000000000000000000000000000000000000000000000000000000000000000000000000000000000000000000000000000000000000000000000000000000000000000000000000000000000000000000000000000000000c0000000000000000000000000000000000000000000000000000000000000010000000000000000000000000000000000000000000000000000000000000000010000000000000000000000008eebf8b423b73bfca51a1db4b7354aa0bfca91930000000000000000000000000000000000000000000000000000000000000000",
        "nonce": "0x18",
        "chainId": "0xaa36a7"
      },
      "additionalContracts": [],
      "isFixedGasLimit": false
    },
    {
      "hash": "0x11208953637cc6d51aa2d2cf22337f1f6ee0e2d06a351c01db7c22dde11d9c5d",
      "transactionType": "CALL",
      "contractName": null,
      "contractAddress": "0xd8d092a5e8207fa58716726a243fc8cb8b80c92a",
      "function": "setLzConfig(address,(uint32,uint32,bytes)[])",
      "arguments": [
        "0xdAf00F5eE2158dD58E0d3857851c432E34A3A851",
        "[(40245, 2, 0x0000000000000000000000000000000000000000000000000000000000000020000000000000000000000000000000000000000000000000000000000000000100000000000000000000000000000000000000000000000000000000000000010000000000000000000000000000000000000000000000000000000000000000000000000000000000000000000000000000000000000000000000000000000000000000000000000000000000000000000000000000000000000000000000c0000000000000000000000000000000000000000000000000000000000000010000000000000000000000000000000000000000000000000000000000000000010000000000000000000000008eebf8b423b73bfca51a1db4b7354aa0bfca91930000000000000000000000000000000000000000000000000000000000000000)]"
      ],
      "transaction": {
        "from": "0xaf9f1cbb38cfdc0bb0c56953343b864e6b6769a8",
        "to": "0xd8d092a5e8207fa58716726a243fc8cb8b80c92a",
        "gas": "0x1632c",
        "value": "0x0",
        "input": "0x60dc4a3e000000000000000000000000daf00f5ee2158dd58e0d3857851c432e34a3a8510000000000000000000000000000000000000000000000000000000000000040000000000000000000000000000000000000000000000000000000000000000100000000000000000000000000000000000000000000000000000000000000200000000000000000000000000000000000000000000000000000000000009d350000000000000000000000000000000000000000000000000000000000000002000000000000000000000000000000000000000000000000000000000000006000000000000000000000000000000000000000000000000000000000000001400000000000000000000000000000000000000000000000000000000000000020000000000000000000000000000000000000000000000000000000000000000100000000000000000000000000000000000000000000000000000000000000010000000000000000000000000000000000000000000000000000000000000000000000000000000000000000000000000000000000000000000000000000000000000000000000000000000000000000000000000000000000000000000000c0000000000000000000000000000000000000000000000000000000000000010000000000000000000000000000000000000000000000000000000000000000010000000000000000000000008eebf8b423b73bfca51a1db4b7354aa0bfca91930000000000000000000000000000000000000000000000000000000000000000",
        "nonce": "0x19",
        "chainId": "0xaa36a7"
      },
      "additionalContracts": [],
      "isFixedGasLimit": false
    }
  ],
  "receipts": [
    {
      "status": "0x1",
      "cumulativeGasUsed": "0x31d1146",
      "logs": [
        {
          "address": "0xd8d092a5e8207fa58716726a243fc8cb8b80c92a",
          "topics": [
            "0x238399d427b947898edb290f5ff0f9109849b1c3ba196a42e35f00c50a54b98b"
          ],
          "data": "0x0000000000000000000000000000000000000000000000000000000000009d3500000000000000000000000033aa585b9934c9fe29471994db829fd6823b42ad",
          "blockHash": "0x2b9eef4a32753e4b2279990ec2c14113c0e9b1fec0327092f1fdcaa13ed58eb0",
          "blockNumber": "0xa387be",
          "blockTimestamp": "0x69ea3528",
          "transactionHash": "0xaa9dc899f7127ad93f40de4be3f4fa027378210ad253967514cae7909956372d",
          "transactionIndex": "0xf6",
          "logIndex": "0xa9d",
          "removed": false
        }
      ],
      "logsBloom": "0x00000000000000000000000000000000000000000000000000000000000000000000000000000000000000000000000000000000000000000800000000000000000000000000000000000000000000000000000000000000000000000000000000000000000000000000000000000000000000000000000000000000000000000000000000000000000000000000000000000000000000000000000000000000000000000000000000000000000000000000002020000000000002800000000000000000000000000000000000000000000000000000000000040000000000000000000000000000000000000000000000000000000000000000000000000000",
      "type": "0x2",
      "transactionHash": "0xaa9dc899f7127ad93f40de4be3f4fa027378210ad253967514cae7909956372d",
      "transactionIndex": "0xf6",
      "blockHash": "0x2b9eef4a32753e4b2279990ec2c14113c0e9b1fec0327092f1fdcaa13ed58eb0",
      "blockNumber": "0xa387be",
      "gasUsed": "0x757c",
      "effectiveGasPrice": "0x8fd179",
      "from": "0xaf9f1cbb38cfdc0bb0c56953343b864e6b6769a8",
      "to": "0xd8d092a5e8207fa58716726a243fc8cb8b80c92a",
      "contractAddress": null
    },
    {
      "status": "0x1",
      "cumulativeGasUsed": "0x31dc985",
      "logs": [
        {
          "address": "0xcc1ae8cf5d3904cef3360a9532b477529b177cce",
          "topics": [
            "0x779cb2dd9d2bb1be1737d05435d744facbfb84a2a4912e21379d39beddcdc805"
          ],
          "data": "0x000000000000000000000000d8d092a5e8207fa58716726a243fc8cb8b80c92a0000000000000000000000000000000000000000000000000000000000009d350000000000000000000000000000000000000000000000000000000000002710000000000000000000000000718b92b5cb0a5552039b593faf724d182a881eda",
          "blockHash": "0x2b9eef4a32753e4b2279990ec2c14113c0e9b1fec0327092f1fdcaa13ed58eb0",
          "blockNumber": "0xa387be",
          "blockTimestamp": "0x69ea3528",
          "transactionHash": "0x11208953637cc6d51aa2d2cf22337f1f6ee0e2d06a351c01db7c22dde11d9c5d",
          "transactionIndex": "0xf7",
          "logIndex": "0xa9e",
          "removed": false
        }
      ],
      "logsBloom": "0x00000000000000000000000000000000000000000000000000000000000100000000000000000000000000000000000000000000000000000000000000000000000000000000000000000040000000000000000000000000000000000000000000000000000000000000000000000000000000000000000000000000000000000000000000000000000000000000000000000000000000000000000000000000000000000000000000000000000000000000000000000000000000000000000200000000000000000000000000000000000000080000000000000000000000000008000000000000000000000000000000000000000000000000000000000020",
      "type": "0x2",
      "transactionHash": "0x11208953637cc6d51aa2d2cf22337f1f6ee0e2d06a351c01db7c22dde11d9c5d",
      "transactionIndex": "0xf7",
      "blockHash": "0x2b9eef4a32753e4b2279990ec2c14113c0e9b1fec0327092f1fdcaa13ed58eb0",
      "blockNumber": "0xa387be",
      "gasUsed": "0xb83f",
      "effectiveGasPrice": "0x8fd179",
      "from": "0xaf9f1cbb38cfdc0bb0c56953343b864e6b6769a8",
      "to": "0xd8d092a5e8207fa58716726a243fc8cb8b80c92a",
      "contractAddress": null
    },
    {
      "status": "0x1",
      "cumulativeGasUsed": "0x31ebd62",
      "logs": [
        {
          "address": "0xcc1ae8cf5d3904cef3360a9532b477529b177cce",
          "topics": [
            "0x82118522aa536ac0e96cc5c689407ae42b89d592aa133890a01f1509842f5081"
          ],
          "data": "0x000000000000000000000000d8d092a5e8207fa58716726a243fc8cb8b80c92a0000000000000000000000000000000000000000000000000000000000009d350000000000000000000000000000000000000000000000000000000000000060000000000000000000000000000000000000000000000000000000000000000100000000000000000000000000000000000000000000000000000000000000010000000000000000000000000000000000000000000000000000000000000000000000000000000000000000000000000000000000000000000000000000000000000000000000000000000000000000000000000000000000000000000000c0000000000000000000000000000000000000000000000000000000000000010000000000000000000000000000000000000000000000000000000000000000010000000000000000000000008eebf8b423b73bfca51a1db4b7354aa0bfca91930000000000000000000000000000000000000000000000000000000000000000",
          "blockHash": "0x2b9eef4a32753e4b2279990ec2c14113c0e9b1fec0327092f1fdcaa13ed58eb0",
          "blockNumber": "0xa387be",
          "blockTimestamp": "0x69ea3528",
          "transactionHash": "0x88ad5798b1e9138e7214a0211f51491442e3ebb89daa8a2dc1136ed99abd06e3",
          "transactionIndex": "0xf8",
          "logIndex": "0xa9f",
          "removed": false
        }
      ],
      "logsBloom": "0x00000000000000000000000000000000000000000000000000000000000100000000000000000000000000000000000000000000000000000000000000000000000000000000000000000000000000000000000000000000002000000000000000000000000000000000000000000000000000000000000000000000000000000000000000000000000000000000000000000000000000000000000000000000000000000000000000000002000000000000000000000000000000000000000000000000000000000000000000000000000000080000000000000000000000000000000000000000000000000000000000000000000000000000000000000030",
      "type": "0x2",
      "transactionHash": "0x88ad5798b1e9138e7214a0211f51491442e3ebb89daa8a2dc1136ed99abd06e3",
      "transactionIndex": "0xf8",
      "blockHash": "0x2b9eef4a32753e4b2279990ec2c14113c0e9b1fec0327092f1fdcaa13ed58eb0",
      "blockNumber": "0xa387be",
      "gasUsed": "0xf3dd",
      "effectiveGasPrice": "0x8fd179",
      "from": "0xaf9f1cbb38cfdc0bb0c56953343b864e6b6769a8",
      "to": "0xd8d092a5e8207fa58716726a243fc8cb8b80c92a",
      "contractAddress": null
    },
    {
      "status": "0x1",
      "cumulativeGasUsed": "0x31fb03d",
      "logs": [
        {
          "address": "0xdaf00f5ee2158dd58e0d3857851c432e34a3a851",
          "topics": [
            "0x82118522aa536ac0e96cc5c689407ae42b89d592aa133890a01f1509842f5081"
          ],
          "data": "0x000000000000000000000000d8d092a5e8207fa58716726a243fc8cb8b80c92a0000000000000000000000000000000000000000000000000000000000009d350000000000000000000000000000000000000000000000000000000000000060000000000000000000000000000000000000000000000000000000000000000100000000000000000000000000000000000000000000000000000000000000010000000000000000000000000000000000000000000000000000000000000000000000000000000000000000000000000000000000000000000000000000000000000000000000000000000000000000000000000000000000000000000000c0000000000000000000000000000000000000000000000000000000000000010000000000000000000000000000000000000000000000000000000000000000010000000000000000000000008eebf8b423b73bfca51a1db4b7354aa0bfca91930000000000000000000000000000000000000000000000000000000000000000",
          "blockHash": "0x2b9eef4a32753e4b2279990ec2c14113c0e9b1fec0327092f1fdcaa13ed58eb0",
          "blockNumber": "0xa387be",
          "blockTimestamp": "0x69ea3528",
          "transactionHash": "0x29453bcc13bbf5ef444d2288ef1ff3141bb53b71065fc85d9fe9916868a0918e",
          "transactionIndex": "0xf9",
          "logIndex": "0xaa0",
          "removed": false
        }
      ],
      "logsBloom": "0x00000000000000000000000000000000000000000000000000000000000000000000000000800000000000000000000000000000000000000000000000000000000000000000000000000000000000000000000000000000002000000000000000000000000000000000000000000000000000000000000000000000000000000000000000000000000000000000000000000000000000000000000000000000000000000000000000000002000000000000000000000000000000000000000000000000000000000000000000000000000000000000000000000000000000000000000000001000000000000000000000000000000000100000000000000010",
      "type": "0x2",
      "transactionHash": "0x29453bcc13bbf5ef444d2288ef1ff3141bb53b71065fc85d9fe9916868a0918e",
      "transactionIndex": "0xf9",
      "blockHash": "0x2b9eef4a32753e4b2279990ec2c14113c0e9b1fec0327092f1fdcaa13ed58eb0",
      "blockNumber": "0xa387be",
      "gasUsed": "0xf2db",
      "effectiveGasPrice": "0x8fd179",
      "from": "0xaf9f1cbb38cfdc0bb0c56953343b864e6b6769a8",
      "to": "0xd8d092a5e8207fa58716726a243fc8cb8b80c92a",
      "contractAddress": null
    }
  ],
  "libraries": [],
  "pending": [],
  "returns": {},
  "timestamp": 1776956712983,
  "chain": 11155111,
  "commit": "de55ea5"
}