{
  "transactions": [
    {
      "hash": "0x5da50df4e337940506416d83c560c0c9cd2ba5449b5172402f9724a22857859d",
      "transactionType": "CALL",
      "contractName": null,
      "contractAddress": "0xd8d092a5e8207fa58716726a243fc8cb8b80c92a",
      "function": "setPeer(uint32,bytes32)",
      "arguments": [
        "40245",
        "0x00000000000000000000000033aa585b9934c9fe29471994db829fd6823b42ad"
      ],
      "transaction": {
        "from": "0xaf9f1cbb38cfdc0bb0c56953343b864e6b6769a8",
        "to": "0xd8d092a5e8207fa58716726a243fc8cb8b80c92a",
        "gas": "0x10da4",
        "value": "0x0",
        "input": "0x3400288b0000000000000000000000000000000000000000000000000000000000009d3500000000000000000000000033aa585b9934c9fe29471994db829fd6823b42ad",
        "nonce": "0xe",
        "chainId": "0xaa36a7"
      },
      "additionalContracts": [],
      "isFixedGasLimit": false
    },
    {
      "hash": "0xda8cdef95189d858cdaa21b3269bb2da18d0e41722a52f6fc3308646ab53a00b",
      "transactionType": "CALL",
      "contractName": null,
      "contractAddress": "0xd8d092a5e8207fa58716726a243fc8cb8b80c92a",
      "function": "setLzConfig(address,(uint32,uint32,bytes)[])",
      "arguments": [
        "0xcc1ae8Cf5D3904Cef3360A9532B477529b177cCE",
        "[(40245, 1, 0x0000000000000000000000000000000000000000000000000000000000002710000000000000000000000000718b92b5cb0a5552039b593faf724d182a881eda)]"
      ],
      "transaction": {
        "from": "0xaf9f1cbb38cfdc0bb0c56953343b864e6b6769a8",
        "to": "0xd8d092a5e8207fa58716726a243fc8cb8b80c92a",
        "gas": "0x17f25",
        "value": "0x0",
        "input": "0x60dc4a3e000000000000000000000000cc1ae8cf5d3904cef3360a9532b477529b177cce0000000000000000000000000000000000000000000000000000000000000040000000000000000000000000000000000000000000000000000000000000000100000000000000000000000000000000000000000000000000000000000000200000000000000000000000000000000000000000000000000000000000009d350000000000000000000000000000000000000000000000000000000000000001000000000000000000000000000000000000000000000000000000000000006000000000000000000000000000000000000000000000000000000000000000400000000000000000000000000000000000000000000000000000000000002710000000000000000000000000718b92b5cb0a5552039b593faf724d182a881eda",
        "nonce": "0xf",
        "chainId": "0xaa36a7"
      },
      "additionalContracts": [],
      "isFixedGasLimit": false
    },
    {
      "hash": "0xaefbea534cbee2a54a97e516568af980c4e98413a8d3397151fbf595379ca76b",
      "transactionType": "CALL",
      "contractName": null,
      "contractAddress": "0xd8d092a5e8207fa58716726a243fc8cb8b80c92a",
      "function": "setLzConfig(address,(uint32,uint32,bytes)[])",
      "arguments": [
        "0xcc1ae8Cf5D3904Cef3360A9532B477529b177cCE",
        "[(40245, 2, 0x0000000000000000000000000000000000000000000000000000000000000020000000000000000000000000000000000000000000000000000000000000000100000000000000000000000000000000000000000000000000000000000000010000000000000000000000000000000000000000000000000000000000000000000000000000000000000000000000000000000000000000000000000000000000000000000000000000000000000000000000000000000000000000000000c0000000000000000000000000000000000000000000000000000000000000010000000000000000000000000000000000000000000000000000000000000000010000000000000000000000008eebf8b423b73bfca51a1db4b7354aa0bfca91930000000000000000000000000000000000000000000000000000000000000000)]"
      ],
      "transaction": {
        "from": "0xaf9f1cbb38cfdc0bb0c56953343b864e6b6769a8",
        "to": "0xd8d092a5e8207fa58716726a243fc8cb8b80c92a",
        "gas": "0x2b9b5",
        "value": "0x0",
        "input": "0x60dc4a3e000000000000000000000000cc1ae8cf5d3904cef3360a9532b477529b177cce0000000000000000000000000000000000000000000000000000000000000040000000000000000000000000000000000000000000000000000000000000000100000000000000000000000000000000000000000000000000000000000000200000000000000000000000000000000000000000000000000000000000009d350000000000000000000000000000000000000000000000000000000000000002000000000000000000000000000000000000000000000000000000000000006000000000000000000000000000000000000000000000000000000000000001400000000000000000000000000000000000000000000000000000000000000020000000000000000000000000000000000000000000000000000000000000000100000000000000000000000000000000000000000000000000000000000000010000000000000000000000000000000000000000000000000000000000000000000000000000000000000000000000000000000000000000000000000000000000000000000000000000000000000000000000000000000000000000000000c0000000000000000000000000000000000000000000000000000000000000010000000000000000000000000000000000000000000000000000000000000000010000000000000000000000008eebf8b423b73bfca51a1db4b7354aa0bfca91930000000000000000000000000000000000000000000000000000000000000000",
        "nonce": "0x10",
        "chainId": "0xaa36a7"
      },
      "additionalContracts": [],
      "isFixedGasLimit": false
    },
    {
      "hash": "0xdfcf0300d35cfdc4a9779bd43424a05422c0e96f3ec66dd5d511ed9959caef73",
      "transactionType": "CALL",
      "contractName": null,
      "contractAddress": "0xd8d092a5e8207fa58716726a243fc8cb8b80c92a",
      "function": "setLzConfig(address,(uint32,uint32,bytes)[])",
      "arguments": [
        "0xdAf00F5eE2158dD58E0d3857851c432E34A3A851",
        "[(40245, 2, 0x0000000000000000000000000000000000000000000000000000000000000020000000000000000000000000000000000000000000000000000000000000000100000000000000000000000000000000000000000000000000000000000000010000000000000000000000000000000000000000000000000000000000000000000000000000000000000000000000000000000000000000000000000000000000000000000000000000000000000000000000000000000000000000000000c0000000000000000000000000000000000000000000000000000000000000010000000000000000000000000000000000000000000000000000000000000000010000000000000000000000008eebf8b423b73bfca51a1db4b7354aa0bfca91930000000000000000000000000000000000000000000000000000000000000000)]"
      ],
      "transaction": {
        "from": "0xaf9f1cbb38cfdc0bb0c56953343b864e6b6769a8",
        "to": "0xd8d092a5e8207fa58716726a243fc8cb8b80c92a",
        "gas": "0x2918d",
        "value": "0x0",
        "input": "0x60dc4a3e000000000000000000000000daf00f5ee2158dd58e0d3857851c432e34a3a8510000000000000000000000000000000000000000000000000000000000000040000000000000000000000000000000000000000000000000000000000000000100000000000000000000000000000000000000000000000000000000000000200000000000000000000000000000000000000000000000000000000000009d350000000000000000000000000000000000000000000000000000000000000002000000000000000000000000000000000000000000000000000000000000006000000000000000000000000000000000000000000000000000000000000001400000000000000000000000000000000000000000000000000000000000000020000000000000000000000000000000000000000000000000000000000000000100000000000000000000000000000000000000000000000000000000000000010000000000000000000000000000000000000000000000000000000000000000000000000000000000000000000000000000000000000000000000000000000000000000000000000000000000000000000000000000000000000000000000c0000000000000000000000000000000000000000000000000000000000000010000000000000000000000000000000000000000000000000000000000000000010000000000000000000000008eebf8b423b73bfca51a1db4b7354aa0bfca91930000000000000000000000000000000000000000000000000000000000000000",
        "nonce": "0x11",
        "chainId": "0xaa36a7"
      },
      "additionalContracts": [],
      "isFixedGasLimit": false
    }
  ],
  "receipts": [
    {
      "status": "0x1",
      "cumulativeGasUsed": "0x13fe785",
      "logs": [
        {
          "address": "0xd8d092a5e8207fa58716726a243fc8cb8b80c92a",
          "topics": [
            "0x238399d427b947898edb290f5ff0f9109849b1c3ba196a42e35f00c50a54b98b"
          ],
          "data": "0x0000000000000000000000000000000000000000000000000000000000009d3500000000000000000000000033aa585b9934c9fe29471994db829fd6823b42ad",
          "blockHash": "0x41c6a0a1e73c21f54b6a45ce26efd10fb811dc73d1e9cba6748a8c8623c7e671",
          "blockNumber": "0xa385fe",
          "blockTimestamp": "0x69ea1d70",
          "transactionHash": "0xdfcf0300d35cfdc4a9779bd43424a05422c0e96f3ec66dd5d511ed9959caef73",
          "transactionIndex": "0x62",
          "logIndex": "0x3b4",
          "removed": false
        }
      ],
      "logsBloom": "0x00000000000000000000000000000000000000000000000000000000000000000000000000000000000000000000000000000000000000000800000000000000000000000000000000000000000000000000000000000000000000000000000000000000000000000000000000000000000000000000000000000000000000000000000000000000000000000000000000000000000000000000000000000000000000000000000000000000000000000000002020000000000002800000000000000000000000000000000000000000000000000000000000040000000000000000000000000000000000000000000000000000000000000000000000000000",
      "type": "0x2",
      "transactionHash": "0xdfcf0300d35cfdc4a9779bd43424a05422c0e96f3ec66dd5d511ed9959caef73",
      "transactionIndex": "0x62",
      "blockHash": "0x41c6a0a1e73c21f54b6a45ce26efd10fb811dc73d1e9cba6748a8c8623c7e671",
      "blockNumber": "0xa385fe",
      "gasUsed": "0xc338",
      "effectiveGasPrice": "0x459dab",
      "from": "0xaf9f1cbb38cfdc0bb0c56953343b864e6b6769a8",
      "to": "0xd8d092a5e8207fa58716726a243fc8cb8b80c92a",
      "contractAddress": null
    },
    {
      "status": "0x1",
      "cumulativeGasUsed": "0x140ed80",
      "logs": [
        {
          "address": "0xcc1ae8cf5d3904cef3360a9532b477529b177cce",
          "topics": [
            "0x779cb2dd9d2bb1be1737d05435d744facbfb84a2a4912e21379d39beddcdc805"
          ],
          "data": "0x000000000000000000000000d8d092a5e8207fa58716726a243fc8cb8b80c92a0000000000000000000000000000000000000000000000000000000000009d350000000000000000000000000000000000000000000000000000000000002710000000000000000000000000718b92b5cb0a5552039b593faf724d182a881eda",
          "blockHash": "0x41c6a0a1e73c21f54b6a45ce26efd10fb811dc73d1e9cba6748a8c8623c7e671",
          "blockNumber": "0xa385fe",
          "blockTimestamp": "0x69ea1d70",
          "transactionHash": "0xda8cdef95189d858cdaa21b3269bb2da18d0e41722a52f6fc3308646ab53a00b",
          "transactionIndex": "0x63",
          "logIndex": "0x3b5",
          "removed": false
        }
      ],
      "logsBloom": "0x00000000000000000000000000000000000000000000000000000000000100000000000000000000000000000000000000000000000000000000000000000000000000000000000000000040000000000000000000000000000000000000000000000000000000000000000000000000000000000000000000000000000000000000000000000000000000000000000000000000000000000000000000000000000000000000000000000000000000000000000000000000000000000000000200000000000000000000000000000000000000080000000000000000000000000008000000000000000000000000000000000000000000000000000000000020",
      "type": "0x2",
      "transactionHash": "0xda8cdef95189d858cdaa21b3269bb2da18d0e41722a52f6fc3308646ab53a00b",
      "transactionIndex": "0x63",
      "blockHash": "0x41c6a0a1e73c21f54b6a45ce26efd10fb811dc73d1e9cba6748a8c8623c7e671",
      "blockNumber": "0xa385fe",
      "gasUsed": "0x105fb",
      "effectiveGasPrice": "0x459dab",
      "from": "0xaf9f1cbb38cfdc0bb0c56953343b864e6b6769a8",
      "to": "0xd8d092a5e8207fa58716726a243fc8cb8b80c92a",
      "contractAddress": null
    },
    {
      "status": "0x1",
      "cumulativeGasUsed": "0x142ca91",
      "logs": [
        {
          "address": "0xcc1ae8cf5d3904cef3360a9532b477529b177cce",
          "topics": [
            "0x82118522aa536ac0e96cc5c689407ae42b89d592aa133890a01f1509842f5081"
          ],
          "data": "0x000000000000000000000000d8d092a5e8207fa58716726a243fc8cb8b80c92a0000000000000000000000000000000000000000000000000000000000009d350000000000000000000000000000000000000000000000000000000000000060000000000000000000000000000000000000000000000000000000000000000100000000000000000000000000000000000000000000000000000000000000010000000000000000000000000000000000000000000000000000000000000000000000000000000000000000000000000000000000000000000000000000000000000000000000000000000000000000000000000000000000000000000000c0000000000000000000000000000000000000000000000000000000000000010000000000000000000000000000000000000000000000000000000000000000010000000000000000000000008eebf8b423b73bfca51a1db4b7354aa0bfca91930000000000000000000000000000000000000000000000000000000000000000",
          "blockHash": "0x41c6a0a1e73c21f54b6a45ce26efd10fb811dc73d1e9cba6748a8c8623c7e671",
          "blockNumber": "0xa385fe",
          "blockTimestamp": "0x69ea1d70",
          "transactionHash": "0x5da50df4e337940506416d83c560c0c9cd2ba5449b5172402f9724a22857859d",
          "transactionIndex": "0x64",
          "logIndex": "0x3b6",
          "removed": false
        }
      ],
      "logsBloom": "0x00000000000000000000000000000000000000000000000000000000000100000000000000000000000000000000000000000000000000000000000000000000000000000000000000000000000000000000000000000000002000000000000000000000000000000000000000000000000000000000000000000000000000000000000000000000000000000000000000000000000000000000000000000000000000000000000000000002000000000000000000000000000000000000000000000000000000000000000000000000000000080000000000000000000000000000000000000000000000000000000000000000000000000000000000000030",
      "type": "0x2",
      "transactionHash": "0x5da50df4e337940506416d83c560c0c9cd2ba5449b5172402f9724a22857859d",
      "transactionIndex": "0x64",
      "blockHash": "0x41c6a0a1e73c21f54b6a45ce26efd10fb811dc73d1e9cba6748a8c8623c7e671",
      "blockNumber": "0xa385fe",
      "gasUsed": "0x1dd11",
      "effectiveGasPrice": "0x459dab",
      "from": "0xaf9f1cbb38cfdc0bb0c56953343b864e6b6769a8",
      "to": "0xd8d092a5e8207fa58716726a243fc8cb8b80c92a",
      "contractAddress": null
    },
    {
      "status": "0x1",
      "cumulativeGasUsed": "0x144a6a0",
      "logs": [
        {
          "address": "0xdaf00f5ee2158dd58e0d3857851c432e34a3a851",
          "topics": [
            "0x82118522aa536ac0e96cc5c689407ae42b89d592aa133890a01f1509842f5081"
          ],
          "data": "0x000000000000000000000000d8d092a5e8207fa58716726a243fc8cb8b80c92a0000000000000000000000000000000000000000000000000000000000009d350000000000000000000000000000000000000000000000000000000000000060000000000000000000000000000000000000000000000000000000000000000100000000000000000000000000000000000000000000000000000000000000010000000000000000000000000000000000000000000000000000000000000000000000000000000000000000000000000000000000000000000000000000000000000000000000000000000000000000000000000000000000000000000000c0000000000000000000000000000000000000000000000000000000000000010000000000000000000000000000000000000000000000000000000000000000010000000000000000000000008eebf8b423b73bfca51a1db4b7354aa0bfca91930000000000000000000000000000000000000000000000000000000000000000",
          "blockHash": "0x41c6a0a1e73c21f54b6a45ce26efd10fb811dc73d1e9cba6748a8c8623c7e671",
          "blockNumber": "0xa385fe",
          "blockTimestamp": "0x69ea1d70",
          "transactionHash": "0xaefbea534cbee2a54a97e516568af980c4e98413a8d3397151fbf595379ca76b",
          "transactionIndex": "0x65",
          "logIndex": "0x3b7",
          "removed": false
        }
      ],
      "logsBloom": "0x00000000000000000000000000000000000000000000000000000000000000000000000000800000000000000000000000000000000000000000000000000000000000000000000000000000000000000000000000000000002000000000000000000000000000000000000000000000000000000000000000000000000000000000000000000000000000000000000000000000000000000000000000000000000000000000000000000002000000000000000000000000000000000000000000000000000000000000000000000000000000000000000000000000000000000000000000001000000000000000000000000000000000100000000000000010",
      "type": "0x2",
      "transactionHash": "0xaefbea534cbee2a54a97e516568af980c4e98413a8d3397151fbf595379ca76b",
      "transactionIndex": "0x65",
      "blockHash": "0x41c6a0a1e73c21f54b6a45ce26efd10fb811dc73d1e9cba6748a8c8623c7e671",
      "blockNumber": "0xa385fe",
      "gasUsed": "0x1dc0f",
      "effectiveGasPrice": "0x459dab",
      "from": "0xaf9f1cbb38cfdc0bb0c56953343b864e6b6769a8",
      "to": "0xd8d092a5e8207fa58716726a243fc8cb8b80c92a",
      "contractAddress": null
    }
  ],
  "libraries": [],
  "pending": [],
  "returns": {},
  "timestamp": 1776950641100,
  "chain": 11155111,
  "commit": "de55ea5"
}