{
  "transactions": [
    {
      "hash": "0x95f563084ad2c41a1117592ad151e5f9cb94a660cb73ef23d1db4f4d739e2625",
      "transactionType": "CALL",
      "contractName": null,
      "contractAddress": "0x354fe5a441a6f673c66011d682aa805c2557b72e",
      "function": "setPeer(uint32,bytes32)",
      "arguments": [
        "84532",
        "0x000000000000000000000000354fe5a441a6f673c66011d682aa805c2557b72e"
      ],
      "transaction": {
        "from": "0xaf9f1cbb38cfdc0bb0c56953343b864e6b6769a8",
        "to": "0x354fe5a441a6f673c66011d682aa805c2557b72e",
        "gas": "0x10d78",
        "value": "0x0",
        "input": "0x3400288b0000000000000000000000000000000000000000000000000000000000014a34000000000000000000000000354fe5a441a6f673c66011d682aa805c2557b72e",
        "nonce": "0x3",
        "chainId": "0x14a34"
      },
      "additionalContracts": [],
      "isFixedGasLimit": false
    }
  ],
  "receipts": [
    {
      "status": "0x1",
      "cumulativeGasUsed": "0x4815f3",
      "logs": [
        {
          "address": "0x354fe5a441a6f673c66011d682aa805c2557b72e",
          "topics": [
            "0x238399d427b947898edb290f5ff0f9109849b1c3ba196a42e35f00c50a54b98b"
          ],
          "data": "0x0000000000000000000000000000000000000000000000000000000000014a34000000000000000000000000354fe5a441a6f673c66011d682aa805c2557b72e",
          "blockHash": "0xb2b43923ee1b24b4da75e130dd76cb9fb5f80d9ca245b5907a8699e62cd3510c",
          "blockNumber": "0x2659555",
          "blockTimestamp": "0x69de898a",
          "transactionHash": "0x95f563084ad2c41a1117592ad151e5f9cb94a660cb73ef23d1db4f4d739e2625",
          "transactionIndex": "0xf",
          "logIndex": "0x19",
          "removed": false
        }
      ],
      "logsBloom": "0x00000000000000000000000000000000000000000020000000000000000000000000000000000000000000000000000000000000000000000800000000000000000000000000000000000000000000000000000000000000000000000000000200000000000000000000000000000000000000000000000000000000000000000000000000000000000000000000000000000000000000000000000000000000000000000000000000000000000000000000001000000000000002000000000000000000000000000000000000000000000000000000000000040000000000000000000000000000000000000000000000000000000000000000000000000000",
      "type": "0x2",
      "transactionHash": "0x95f563084ad2c41a1117592ad151e5f9cb94a660cb73ef23d1db4f4d739e2625",
      "transactionIndex": "0xf",
      "blockHash": "0xb2b43923ee1b24b4da75e130dd76cb9fb5f80d9ca245b5907a8699e62cd3510c",
      "blockNumber": "0x2659555",
      "gasUsed": "0xc318",
      "effectiveGasPrice": "0x5b8d80",
      "blobGasUsed": "0x39d0",
      "from": "0xaf9f1cbb38cfdc0bb0c56953343b864e6b6769a8",
      "to": "0x354fe5a441a6f673c66011d682aa805c2557b72e",
      "contractAddress": null,
      "daFootprintGasScalar": "0x94",
      "l1BaseFeeScalar": "0x44d",
      "l1BlobBaseFee": "0x72c1962",
      "l1BlobBaseFeeScalar": "0xa118b",
      "l1Fee": "0x2aae49887",
      "l1GasPrice": "0x770003f7",
      "l1GasUsed": "0x640"
    }
  ],
  "libraries": [],
  "pending": [],
  "returns": {},
  "timestamp": 1776191883140,
  "chain": 84532,
  "commit": "6652a09"
}