{
  "transactions": [
    {
      "hash": "0xf9bdd1446a7f37bf55b5e3ae142b8e482079de0b5880122cb522a36c0a622bf3",
      "transactionType": "CALL",
      "contractName": null,
      "contractAddress": "0x354fe5a441a6f673c66011d682aa805c2557b72e",
      "function": "setPeer(uint32,bytes32)",
      "arguments": [
        "40168",
        "0x8131a4ca60ab1e7147117099de5110c1c80da345e5d3d7f1194e7f773f291807"
      ],
      "transaction": {
        "from": "0xaf9f1cbb38cfdc0bb0c56953343b864e6b6769a8",
        "to": "0x354fe5a441a6f673c66011d682aa805c2557b72e",
        "gas": "0xa2d0",
        "value": "0x0",
        "input": "0x3400288b0000000000000000000000000000000000000000000000000000000000009ce88131a4ca60ab1e7147117099de5110c1c80da345e5d3d7f1194e7f773f291807",
        "nonce": "0x6",
        "chainId": "0x14a34"
      },
      "additionalContracts": [],
      "isFixedGasLimit": false
    }
  ],
  "receipts": [
    {
      "status": "0x1",
      "cumulativeGasUsed": "0x240b68",
      "logs": [
        {
          "address": "0x354fe5a441a6f673c66011d682aa805c2557b72e",
          "topics": [
            "0x238399d427b947898edb290f5ff0f9109849b1c3ba196a42e35f00c50a54b98b"
          ],
          "data": "0x0000000000000000000000000000000000000000000000000000000000009ce88131a4ca60ab1e7147117099de5110c1c80da345e5d3d7f1194e7f773f291807",
          "blockHash": "0x45e669f078835aa3a6a5bc58bfc6e8edeeea3546e2d7b4920832c8d1970467f1",
          "blockNumber": "0x267713f",
          "blockTimestamp": "0x69e2415e",
          "transactionHash": "0xf9bdd1446a7f37bf55b5e3ae142b8e482079de0b5880122cb522a36c0a622bf3",
          "transactionIndex": "0x8",
          "logIndex": "0x3d",
          "removed": false
        }
      ],
      "logsBloom": "0x00000000000000000000000000000000000000000020000000000000000000000000000000000000000000000000000000000000000000000800000000000000000000000000000000000000000000000000000000000000000000000000000200000000000000000000000000000000000000000000000000000000000000000000000000000000000000000000000000000000000000000000000000000000000000000000000000000000000000000000001000000000000002000000000000000000000000000000000000000000000000000000000000040000000000000000000000000000000000000000000000000000000000000000000000000000",
      "type": "0x2",
      "transactionHash": "0xf9bdd1446a7f37bf55b5e3ae142b8e482079de0b5880122cb522a36c0a622bf3",
      "transactionIndex": "0x8",
      "blockHash": "0x45e669f078835aa3a6a5bc58bfc6e8edeeea3546e2d7b4920832c8d1970467f1",
      "blockNumber": "0x267713f",
      "gasUsed": "0x75e0",
      "effectiveGasPrice": "0x5b8d80",
      "blobGasUsed": "0x39d0",
      "from": "0xaf9f1cbb38cfdc0bb0c56953343b864e6b6769a8",
      "to": "0x354fe5a441a6f673c66011d682aa805c2557b72e",
      "contractAddress": null,
      "daFootprintGasScalar": "0x94",
      "l1BaseFeeScalar": "0x44d",
      "l1BlobBaseFee": "0xfa2dde",
      "l1BlobBaseFeeScalar": "0xa118b",
      "l1Fee": "0x646d1d1e",
      "l1GasPrice": "0x14671a15",
      "l1GasUsed": "0x640"
    }
  ],
  "libraries": [],
  "pending": [],
  "returns": {},
  "timestamp": 1776435550317,
  "chain": 84532,
  "commit": "e43f0bd"
}