{
  "transactions": [
    {
      "hash": "0xf7256547303d5d8c4d69c91891f0c74ad617ffd2dd3ecbd5e63f9e677b808dd1",
      "transactionType": "CALL",
      "contractName": null,
      "contractAddress": "0x354fe5a441a6f673c66011d682aa805c2557b72e",
      "function": "setPeer(uint32,bytes32)",
      "arguments": [
        "40161",
        "0x000000000000000000000000354fe5a441a6f673c66011d682aa805c2557b72e"
      ],
      "transaction": {
        "from": "0xaf9f1cbb38cfdc0bb0c56953343b864e6b6769a8",
        "to": "0x354fe5a441a6f673c66011d682aa805c2557b72e",
        "gas": "0x10d67",
        "value": "0x0",
        "input": "0x3400288b0000000000000000000000000000000000000000000000000000000000009ce1000000000000000000000000354fe5a441a6f673c66011d682aa805c2557b72e",
        "nonce": "0x4",
        "chainId": "0x14a34"
      },
      "additionalContracts": [],
      "isFixedGasLimit": false
    }
  ],
  "receipts": [
    {
      "status": "0x1",
      "cumulativeGasUsed": "0x380c7d",
      "logs": [
        {
          "address": "0x354fe5a441a6f673c66011d682aa805c2557b72e",
          "topics": [
            "0x238399d427b947898edb290f5ff0f9109849b1c3ba196a42e35f00c50a54b98b"
          ],
          "data": "0x0000000000000000000000000000000000000000000000000000000000009ce1000000000000000000000000354fe5a441a6f673c66011d682aa805c2557b72e",
          "blockHash": "0x96aae1a14eb13fd4bcabe685426c16ac7a614752a3a4e6705e0694c50890273b",
          "blockNumber": "0x265a311",
          "blockTimestamp": "0x69dea502",
          "transactionHash": "0xf7256547303d5d8c4d69c91891f0c74ad617ffd2dd3ecbd5e63f9e677b808dd1",
          "transactionIndex": "0x10",
          "logIndex": "0x45",
          "removed": false
        }
      ],
      "logsBloom": "0x00000000000000000000000000000000000000000020000000000000000000000000000000000000000000000000000000000000000000000800000000000000000000000000000000000000000000000000000000000000000000000000000200000000000000000000000000000000000000000000000000000000000000000000000000000000000000000000000000000000000000000000000000000000000000000000000000000000000000000000001000000000000002000000000000000000000000000000000000000000000000000000000000040000000000000000000000000000000000000000000000000000000000000000000000000000",
      "type": "0x2",
      "transactionHash": "0xf7256547303d5d8c4d69c91891f0c74ad617ffd2dd3ecbd5e63f9e677b808dd1",
      "transactionIndex": "0x10",
      "blockHash": "0x96aae1a14eb13fd4bcabe685426c16ac7a614752a3a4e6705e0694c50890273b",
      "blockNumber": "0x265a311",
      "gasUsed": "0xc30c",
      "effectiveGasPrice": "0x5b8d80",
      "blobGasUsed": "0x39d0",
      "from": "0xaf9f1cbb38cfdc0bb0c56953343b864e6b6769a8",
      "to": "0x354fe5a441a6f673c66011d682aa805c2557b72e",
      "contractAddress": null,
      "daFootprintGasScalar": "0x94",
      "l1BaseFeeScalar": "0x44d",
      "l1BlobBaseFee": "0x8645c",
      "l1BlobBaseFeeScalar": "0xa118b",
      "l1Fee": "0x32755c9",
      "l1GasPrice": "0x8ff3c5",
      "l1GasUsed": "0x640"
    }
  ],
  "libraries": [],
  "pending": [],
  "returns": {},
  "timestamp": 1776198915276,
  "chain": 84532,
  "commit": "d9d71bc"
}