{
  "transactions": [
    {
      "hash": "0x1bf4b7cb987e85b7a9dd928f1771f47885f43bb0d54602f6cd24841d6f679715",
      "transactionType": "CALL",
      "contractName": null,
      "contractAddress": "0x354fe5a441a6f673c66011d682aa805c2557b72e",
      "function": "setPeer(uint32,bytes32)",
      "arguments": [
        "40168",
        "0x8131a4ca60ab1e7147117099de5110c1c80da345e5d3d7f1194e7f773f291807"
      ],
      "transaction": {
        "from": "0xaf9f1cbb38cfdc0bb0c56953343b864e6b6769a8",
        "to": "0x354fe5a441a6f673c66011d682aa805c2557b72e",
        "gas": "0x10e2e",
        "value": "0x0",
        "input": "0x3400288b0000000000000000000000000000000000000000000000000000000000009ce88131a4ca60ab1e7147117099de5110c1c80da345e5d3d7f1194e7f773f291807",
        "nonce": "0x6",
        "chainId": "0xaa36a7"
      },
      "additionalContracts": [],
      "isFixedGasLimit": false
    }
  ],
  "receipts": [
    {
      "status": "0x1",
      "cumulativeGasUsed": "0x1f487cb",
      "logs": [
        {
          "address": "0x354fe5a441a6f673c66011d682aa805c2557b72e",
          "topics": [
            "0x238399d427b947898edb290f5ff0f9109849b1c3ba196a42e35f00c50a54b98b"
          ],
          "data": "0x0000000000000000000000000000000000000000000000000000000000009ce88131a4ca60ab1e7147117099de5110c1c80da345e5d3d7f1194e7f773f291807",
          "blockHash": "0x56ea68c77942944afef89fef42402d684ea69ef9099a26f2ebab47987f57c88c",
          "blockNumber": "0xa2edce",
          "blockTimestamp": "0x69e2233c",
          "transactionHash": "0x1bf4b7cb987e85b7a9dd928f1771f47885f43bb0d54602f6cd24841d6f679715",
          "transactionIndex": "0xc3",
          "logIndex": "0x414",
          "removed": false
        }
      ],
      "logsBloom": "0x00000000000000000000000000000000000000000020000000000000000000000000000000000000000000000000000000000000000000000800000000000000000000000000000000000000000000000000000000000000000000000000000200000000000000000000000000000000000000000000000000000000000000000000000000000000000000000000000000000000000000000000000000000000000000000000000000000000000000000000001000000000000002000000000000000000000000000000000000000000000000000000000000040000000000000000000000000000000000000000000000000000000000000000000000000000",
      "type": "0x2",
      "transactionHash": "0x1bf4b7cb987e85b7a9dd928f1771f47885f43bb0d54602f6cd24841d6f679715",
      "transactionIndex": "0xc3",
      "blockHash": "0x56ea68c77942944afef89fef42402d684ea69ef9099a26f2ebab47987f57c88c",
      "blockNumber": "0xa2edce",
      "gasUsed": "0xc39c",
      "effectiveGasPrice": "0x26b279a",
      "from": "0xaf9f1cbb38cfdc0bb0c56953343b864e6b6769a8",
      "to": "0x354fe5a441a6f673c66011d682aa805c2557b72e",
      "contractAddress": null
    }
  ],
  "libraries": [],
  "pending": [],
  "returns": {},
  "timestamp": 1776427837236,
  "chain": 11155111,
  "commit": "e43f0bd"
}