{
  "transactions": [
    {
      "hash": "0x55fadbd2d40d14428b7b7b12b015a36d9f163c5ea1794b0a2bfbc86a575f4e88",
      "transactionType": "CALL",
      "contractName": null,
      "contractAddress": "0x354fe5a441a6f673c66011d682aa805c2557b72e",
      "function": "setPeer(uint32,bytes32)",
      "arguments": [
        "40245",
        "0x000000000000000000000000354fe5a441a6f673c66011d682aa805c2557b72e"
      ],
      "transaction": {
        "from": "0xaf9f1cbb38cfdc0bb0c56953343b864e6b6769a8",
        "to": "0x354fe5a441a6f673c66011d682aa805c2557b72e",
        "gas": "0x10d67",
        "value": "0x0",
        "input": "0x3400288b0000000000000000000000000000000000000000000000000000000000009d35000000000000000000000000354fe5a441a6f673c66011d682aa805c2557b72e",
        "nonce": "0x4",
        "chainId": "0xaa36a7"
      },
      "additionalContracts": [],
      "isFixedGasLimit": false
    }
  ],
  "receipts": [
    {
      "status": "0x1",
      "cumulativeGasUsed": "0xfd92a6",
      "logs": [
        {
          "address": "0x354fe5a441a6f673c66011d682aa805c2557b72e",
          "topics": [
            "0x238399d427b947898edb290f5ff0f9109849b1c3ba196a42e35f00c50a54b98b"
          ],
          "data": "0x0000000000000000000000000000000000000000000000000000000000009d35000000000000000000000000354fe5a441a6f673c66011d682aa805c2557b72e",
          "blockHash": "0xfc9a0c2080fbfdf138d7d0ef86bd7a29d4ee92c70e0812d009d451aa7552c616",
          "blockNumber": "0xa2a7ff",
          "blockTimestamp": "0x69de8c34",
          "transactionHash": "0x55fadbd2d40d14428b7b7b12b015a36d9f163c5ea1794b0a2bfbc86a575f4e88",
          "transactionIndex": "0x58",
          "logIndex": "0x283",
          "removed": false
        }
      ],
      "logsBloom": "0x00000000000000000000000000000000000000000020000000000000000000000000000000000000000000000000000000000000000000000800000000000000000000000000000000000000000000000000000000000000000000000000000200000000000000000000000000000000000000000000000000000000000000000000000000000000000000000000000000000000000000000000000000000000000000000000000000000000000000000000001000000000000002000000000000000000000000000000000000000000000000000000000000040000000000000000000000000000000000000000000000000000000000000000000000000000",
      "type": "0x2",
      "transactionHash": "0x55fadbd2d40d14428b7b7b12b015a36d9f163c5ea1794b0a2bfbc86a575f4e88",
      "transactionIndex": "0x58",
      "blockHash": "0xfc9a0c2080fbfdf138d7d0ef86bd7a29d4ee92c70e0812d009d451aa7552c616",
      "blockNumber": "0xa2a7ff",
      "gasUsed": "0xc30c",
      "effectiveGasPrice": "0x926736b1",
      "from": "0xaf9f1cbb38cfdc0bb0c56953343b864e6b6769a8",
      "to": "0x354fe5a441a6f673c66011d682aa805c2557b72e",
      "contractAddress": null
    }
  ],
  "libraries": [],
  "pending": [],
  "returns": {},
  "timestamp": 1776192566834,
  "chain": 11155111,
  "commit": "6652a09"
}