{
  "transactions": [
    {
      "hash": "0x3d8659fe7330dc334654031e73dca5d4618a6cf9b708a3db21f332f396a437a3",
      "transactionType": "CALL",
      "contractName": null,
      "contractAddress": "0x354fe5a441a6f673c66011d682aa805c2557b72e",
      "function": "setPeer(uint32,bytes32)",
      "arguments": [
        "84532",
        "0x000000000000000000000000354fe5a441a6f673c66011d682aa805c2557b72e"
      ],
      "transaction": {
        "from": "0xaf9f1cbb38cfdc0bb0c56953343b864e6b6769a8",
        "to": "0x354fe5a441a6f673c66011d682aa805c2557b72e",
        "gas": "0x10d78",
        "value": "0x0",
        "input": "0x3400288b0000000000000000000000000000000000000000000000000000000000014a34000000000000000000000000354fe5a441a6f673c66011d682aa805c2557b72e",
        "nonce": "0x3",
        "chainId": "0xaa36a7"
      },
      "additionalContracts": [],
      "isFixedGasLimit": false
    }
  ],
  "receipts": [
    {
      "status": "0x1",
      "cumulativeGasUsed": "0x1241997",
      "logs": [
        {
          "address": "0x354fe5a441a6f673c66011d682aa805c2557b72e",
          "topics": [
            "0x238399d427b947898edb290f5ff0f9109849b1c3ba196a42e35f00c50a54b98b"
          ],
          "data": "0x0000000000000000000000000000000000000000000000000000000000014a34000000000000000000000000354fe5a441a6f673c66011d682aa805c2557b72e",
          "blockHash": "0xe9534e608abf99e56cb83a25d32b75b6c7ea5aa776a4c80b7e08675abaf25727",
          "blockNumber": "0xa2a770",
          "blockTimestamp": "0x69de8538",
          "transactionHash": "0x3d8659fe7330dc334654031e73dca5d4618a6cf9b708a3db21f332f396a437a3",
          "transactionIndex": "0x48",
          "logIndex": "0x2e5",
          "removed": false
        }
      ],
      "logsBloom": "0x00000000000000000000000000000000000000000020000000000000000000000000000000000000000000000000000000000000000000000800000000000000000000000000000000000000000000000000000000000000000000000000000200000000000000000000000000000000000000000000000000000000000000000000000000000000000000000000000000000000000000000000000000000000000000000000000000000000000000000000001000000000000002000000000000000000000000000000000000000000000000000000000000040000000000000000000000000000000000000000000000000000000000000000000000000000",
      "type": "0x2",
      "transactionHash": "0x3d8659fe7330dc334654031e73dca5d4618a6cf9b708a3db21f332f396a437a3",
      "transactionIndex": "0x48",
      "blockHash": "0xe9534e608abf99e56cb83a25d32b75b6c7ea5aa776a4c80b7e08675abaf25727",
      "blockNumber": "0xa2a770",
      "gasUsed": "0xc318",
      "effectiveGasPrice": "0x3c50cf1b",
      "from": "0xaf9f1cbb38cfdc0bb0c56953343b864e6b6769a8",
      "to": "0x354fe5a441a6f673c66011d682aa805c2557b72e",
      "contractAddress": null
    }
  ],
  "libraries": [],
  "pending": [],
  "returns": {},
  "timestamp": 1776190776737,
  "chain": 11155111,
  "commit": "6652a09"
}