{
  "transactions": [
    {
      "hash": "0x873f38bdc970f1ca56a274f2a417a2d72a7549274a59353ea054be763bc704ac",
      "transactionType": "CALL",
      "contractName": null,
      "contractAddress": "0x354fe5a441a6f673c66011d682aa805c2557b72e",
      "function": "setPeer(uint32,bytes32)",
      "arguments": [
        "40168",
        "0x8131a4ca60ab1e7147117099de5110c1c80da345e5d3d7f1194e7f773f291807"
      ],
      "transaction": {
        "from": "0xaf9f1cbb38cfdc0bb0c56953343b864e6b6769a8",
        "to": "0x354fe5a441a6f673c66011d682aa805c2557b72e",
        "gas": "0xa2d0",
        "value": "0x0",
        "input": "0x3400288b0000000000000000000000000000000000000000000000000000000000009ce88131a4ca60ab1e7147117099de5110c1c80da345e5d3d7f1194e7f773f291807",
        "nonce": "0x7",
        "chainId": "0xaa36a7"
      },
      "additionalContracts": [],
      "isFixedGasLimit": false
    }
  ],
  "receipts": [
    {
      "status": "0x1",
      "cumulativeGasUsed": "0xc7110e",
      "logs": [
        {
          "address": "0x354fe5a441a6f673c66011d682aa805c2557b72e",
          "topics": [
            "0x238399d427b947898edb290f5ff0f9109849b1c3ba196a42e35f00c50a54b98b"
          ],
          "data": "0x0000000000000000000000000000000000000000000000000000000000009ce88131a4ca60ab1e7147117099de5110c1c80da345e5d3d7f1194e7f773f291807",
          "blockHash": "0xc49ecaa8065998b19cb8cee28046c5fcde5a3e7a93ea902aab34f05d63951881",
          "blockNumber": "0xa2ef3f",
          "blockTimestamp": "0x69e236ec",
          "transactionHash": "0x873f38bdc970f1ca56a274f2a417a2d72a7549274a59353ea054be763bc704ac",
          "transactionIndex": "0x40",
          "logIndex": "0x115",
          "removed": false
        }
      ],
      "logsBloom": "0x00000000000000000000000000000000000000000020000000000000000000000000000000000000000000000000000000000000000000000800000000000000000000000000000000000000000000000000000000000000000000000000000200000000000000000000000000000000000000000000000000000000000000000000000000000000000000000000000000000000000000000000000000000000000000000000000000000000000000000000001000000000000002000000000000000000000000000000000000000000000000000000000000040000000000000000000000000000000000000000000000000000000000000000000000000000",
      "type": "0x2",
      "transactionHash": "0x873f38bdc970f1ca56a274f2a417a2d72a7549274a59353ea054be763bc704ac",
      "transactionIndex": "0x40",
      "blockHash": "0xc49ecaa8065998b19cb8cee28046c5fcde5a3e7a93ea902aab34f05d63951881",
      "blockNumber": "0xa2ef3f",
      "gasUsed": "0x75e0",
      "effectiveGasPrice": "0x1c89eac",
      "from": "0xaf9f1cbb38cfdc0bb0c56953343b864e6b6769a8",
      "to": "0x354fe5a441a6f673c66011d682aa805c2557b72e",
      "contractAddress": null
    }
  ],
  "libraries": [],
  "pending": [],
  "returns": {},
  "timestamp": 1776432877195,
  "chain": 11155111,
  "commit": "e43f0bd"
}