{
  "transactions": [
    {
      "hash": "0xa8d868d1b2184647448bae342936176c6707e2b05a17bfd8361a22f661ae10c2",
      "transactionType": "CALL",
      "contractName": null,
      "contractAddress": "0x354fe5a441a6f673c66011d682aa805c2557b72e",
      "function": "setPeer(uint32,bytes32)",
      "arguments": [
        "40161",
        "0x000000000000000000000000354fe5a441a6f673c66011d682aa805c2557b72e"
      ],
      "transaction": {
        "from": "0xaf9f1cbb38cfdc0bb0c56953343b864e6b6769a8",
        "to": "0x354fe5a441a6f673c66011d682aa805c2557b72e",
        "gas": "0x10d67",
        "value": "0x0",
        "input": "0x3400288b0000000000000000000000000000000000000000000000000000000000009ce1000000000000000000000000354fe5a441a6f673c66011d682aa805c2557b72e",
        "nonce": "0x5",
        "chainId": "0xaa36a7"
      },
      "additionalContracts": [],
      "isFixedGasLimit": false
    }
  ],
  "receipts": [
    {
      "status": "0x1",
      "cumulativeGasUsed": "0xfedfe0",
      "logs": [
        {
          "address": "0x354fe5a441a6f673c66011d682aa805c2557b72e",
          "topics": [
            "0x238399d427b947898edb290f5ff0f9109849b1c3ba196a42e35f00c50a54b98b"
          ],
          "data": "0x0000000000000000000000000000000000000000000000000000000000009ce1000000000000000000000000354fe5a441a6f673c66011d682aa805c2557b72e",
          "blockHash": "0xee491c988fbb158153632d8711f3c2e4ae7a96bb63891f91cafd5434bd48bb31",
          "blockNumber": "0xa2a80d",
          "blockTimestamp": "0x69de8cdc",
          "transactionHash": "0xa8d868d1b2184647448bae342936176c6707e2b05a17bfd8361a22f661ae10c2",
          "transactionIndex": "0x58",
          "logIndex": "0x28d",
          "removed": false
        }
      ],
      "logsBloom": "0x00000000000000000000000000000000000000000020000000000000000000000000000000000000000000000000000000000000000000000800000000000000000000000000000000000000000000000000000000000000000000000000000200000000000000000000000000000000000000000000000000000000000000000000000000000000000000000000000000000000000000000000000000000000000000000000000000000000000000000000001000000000000002000000000000000000000000000000000000000000000000000000000000040000000000000000000000000000000000000000000000000000000000000000000000000000",
      "type": "0x2",
      "transactionHash": "0xa8d868d1b2184647448bae342936176c6707e2b05a17bfd8361a22f661ae10c2",
      "transactionIndex": "0x58",
      "blockHash": "0xee491c988fbb158153632d8711f3c2e4ae7a96bb63891f91cafd5434bd48bb31",
      "blockNumber": "0xa2a80d",
      "gasUsed": "0xc30c",
      "effectiveGasPrice": "0x9733e597",
      "from": "0xaf9f1cbb38cfdc0bb0c56953343b864e6b6769a8",
      "to": "0x354fe5a441a6f673c66011d682aa805c2557b72e",
      "contractAddress": null
    }
  ],
  "libraries": [],
  "pending": [],
  "returns": {},
  "timestamp": 1776192735680,
  "chain": 11155111,
  "commit": "6652a09"
}