{
  "transactions": [
    {
      "hash": "0x5263c327d41c1f675b4dce1d9b021905e7f0e44b6203b15b1a0096142000397a",
      "transactionType": "CALL",
      "contractName": null,
      "contractAddress": "0x33aa585b9934c9fe29471994db829fd6823b42ad",
      "function": "setPeer(uint32,bytes32)",
      "arguments": [
        "40161",
        "0x000000000000000000000000d8d092a5e8207fa58716726a243fc8cb8b80c92a"
      ],
      "transaction": {
        "from": "0xaf9f1cbb38cfdc0bb0c56953343b864e6b6769a8",
        "to": "0x33aa585b9934c9fe29471994db829fd6823b42ad",
        "gas": "0xa245",
        "value": "0x0",
        "input": "0x3400288b0000000000000000000000000000000000000000000000000000000000009ce1000000000000000000000000d8d092a5e8207fa58716726a243fc8cb8b80c92a",
        "nonce": "0x14",
        "chainId": "0x14a34"
      },
      "additionalContracts": [],
      "isFixedGasLimit": false
    },
    {
      "hash": "0xc3c6babec8c1cd5a65937a2f2748c953789bfd87ed7d0f5a781101abf271d374",
      "transactionType": "CALL",
      "contractName": null,
      "contractAddress": "0x33aa585b9934c9fe29471994db829fd6823b42ad",
      "function": "setLzConfig(address,(uint32,uint32,bytes)[])",
      "arguments": [
        "0xC1868e054425D378095A003EcbA3823a5D0135C9",
        "[(40161, 1, 0x00000000000000000000000000000000000000000000000000000000000027100000000000000000000000008a3d588d9f6ac041476b094f97ff94ec30169d3d)]"
      ],
      "transaction": {
        "from": "0xaf9f1cbb38cfdc0bb0c56953343b864e6b6769a8",
        "to": "0x33aa585b9934c9fe29471994db829fd6823b42ad",
        "gas": "0x10d63",
        "value": "0x0",
        "input": "0x60dc4a3e000000000000000000000000c1868e054425d378095a003ecba3823a5d0135c90000000000000000000000000000000000000000000000000000000000000040000000000000000000000000000000000000000000000000000000000000000100000000000000000000000000000000000000000000000000000000000000200000000000000000000000000000000000000000000000000000000000009ce100000000000000000000000000000000000000000000000000000000000000010000000000000000000000000000000000000000000000000000000000000060000000000000000000000000000000000000000000000000000000000000004000000000000000000000000000000000000000000000000000000000000027100000000000000000000000008a3d588d9f6ac041476b094f97ff94ec30169d3d",
        "nonce": "0x15",
        "chainId": "0x14a34"
      },
      "additionalContracts": [],
      "isFixedGasLimit": false
    },
    {
      "hash": "0x95c5ed86141be415e9b2ac9b52415e02788a1deb3a0f1c3401785ef5f9de9446",
      "transactionType": "CALL",
      "contractName": null,
      "contractAddress": "0x33aa585b9934c9fe29471994db829fd6823b42ad",
      "function": "setLzConfig(address,(uint32,uint32,bytes)[])",
      "arguments": [
        "0xC1868e054425D378095A003EcbA3823a5D0135C9",
        "[(40161, 2, 0x0000000000000000000000000000000000000000000000000000000000000020000000000000000000000000000000000000000000000000000000000000000100000000000000000000000000000000000000000000000000000000000000040000000000000000000000000000000000000000000000000000000000000000000000000000000000000000000000000000000000000000000000000000000000000000000000000000000000000000000000000000000000000000000000c00000000000000000000000000000000000000000000000000000000000000160000000000000000000000000000000000000000000000000000000000000000400000000000000000000000063ef73671245d1a290f2a675be9d906090f72a8d000000000000000000000000b1b2319767b86800c4cfe8623a72c00d9d90cfb6000000000000000000000000d9222cc3ccd1df7c070d700ea377d4ada2b86eb5000000000000000000000000e1a12515f9ab2764b887bf60b923ca494ebbb2d60000000000000000000000000000000000000000000000000000000000000000)]"
      ],
      "transaction": {
        "from": "0xaf9f1cbb38cfdc0bb0c56953343b864e6b6769a8",
        "to": "0x33aa585b9934c9fe29471994db829fd6823b42ad",
        "gas": "0x2f84f",
        "value": "0x0",
        "input": "0x60dc4a3e000000000000000000000000c1868e054425d378095a003ecba3823a5d0135c90000000000000000000000000000000000000000000000000000000000000040000000000000000000000000000000000000000000000000000000000000000100000000000000000000000000000000000000000000000000000000000000200000000000000000000000000000000000000000000000000000000000009ce10000000000000000000000000000000000000000000000000000000000000002000000000000000000000000000000000000000000000000000000000000006000000000000000000000000000000000000000000000000000000000000001a00000000000000000000000000000000000000000000000000000000000000020000000000000000000000000000000000000000000000000000000000000000100000000000000000000000000000000000000000000000000000000000000040000000000000000000000000000000000000000000000000000000000000000000000000000000000000000000000000000000000000000000000000000000000000000000000000000000000000000000000000000000000000000000000c00000000000000000000000000000000000000000000000000000000000000160000000000000000000000000000000000000000000000000000000000000000400000000000000000000000063ef73671245d1a290f2a675be9d906090f72a8d000000000000000000000000b1b2319767b86800c4cfe8623a72c00d9d90cfb6000000000000000000000000d9222cc3ccd1df7c070d700ea377d4ada2b86eb5000000000000000000000000e1a12515f9ab2764b887bf60b923ca494ebbb2d60000000000000000000000000000000000000000000000000000000000000000",
        "nonce": "0x16",
        "chainId": "0x14a34"
      },
      "additionalContracts": [],
      "isFixedGasLimit": false
    },
    {
      "hash": "0x8e88845f9af572baf505b9ac848d261b497ef818ad77ebed7f29c7d4dc0e2968",
      "transactionType": "CALL",
      "contractName": null,
      "contractAddress": "0x33aa585b9934c9fe29471994db829fd6823b42ad",
      "function": "setLzConfig(address,(uint32,uint32,bytes)[])",
      "arguments": [
        "0x12523de19dc41c91F7d2093E0CFbB76b17012C8d",
        "[(40161, 2, 0x0000000000000000000000000000000000000000000000000000000000000020000000000000000000000000000000000000000000000000000000000000000100000000000000000000000000000000000000000000000000000000000000040000000000000000000000000000000000000000000000000000000000000000000000000000000000000000000000000000000000000000000000000000000000000000000000000000000000000000000000000000000000000000000000c00000000000000000000000000000000000000000000000000000000000000160000000000000000000000000000000000000000000000000000000000000000400000000000000000000000063ef73671245d1a290f2a675be9d906090f72a8d000000000000000000000000b1b2319767b86800c4cfe8623a72c00d9d90cfb6000000000000000000000000d9222cc3ccd1df7c070d700ea377d4ada2b86eb5000000000000000000000000e1a12515f9ab2764b887bf60b923ca494ebbb2d60000000000000000000000000000000000000000000000000000000000000000)]"
      ],
      "transaction": {
        "from": "0xaf9f1cbb38cfdc0bb0c56953343b864e6b6769a8",
        "to": "0x33aa585b9934c9fe29471994db829fd6823b42ad",
        "gas": "0x2f715",
        "value": "0x0",
        "input": "0x60dc4a3e00000000000000000000000012523de19dc41c91f7d2093e0cfbb76b17012c8d0000000000000000000000000000000000000000000000000000000000000040000000000000000000000000000000000000000000000000000000000000000100000000000000000000000000000000000000000000000000000000000000200000000000000000000000000000000000000000000000000000000000009ce10000000000000000000000000000000000000000000000000000000000000002000000000000000000000000000000000000000000000000000000000000006000000000000000000000000000000000000000000000000000000000000001a00000000000000000000000000000000000000000000000000000000000000020000000000000000000000000000000000000000000000000000000000000000100000000000000000000000000000000000000000000000000000000000000040000000000000000000000000000000000000000000000000000000000000000000000000000000000000000000000000000000000000000000000000000000000000000000000000000000000000000000000000000000000000000000000c00000000000000000000000000000000000000000000000000000000000000160000000000000000000000000000000000000000000000000000000000000000400000000000000000000000063ef73671245d1a290f2a675be9d906090f72a8d000000000000000000000000b1b2319767b86800c4cfe8623a72c00d9d90cfb6000000000000000000000000d9222cc3ccd1df7c070d700ea377d4ada2b86eb5000000000000000000000000e1a12515f9ab2764b887bf60b923ca494ebbb2d60000000000000000000000000000000000000000000000000000000000000000",
        "nonce": "0x17",
        "chainId": "0x14a34"
      },
      "additionalContracts": [],
      "isFixedGasLimit": false
    }
  ],
  "receipts": [
    {
      "status": "0x1",
      "cumulativeGasUsed": "0x3e0b0f",
      "logs": [
        {
          "address": "0x33aa585b9934c9fe29471994db829fd6823b42ad",
          "topics": [
            "0x238399d427b947898edb290f5ff0f9109849b1c3ba196a42e35f00c50a54b98b"
          ],
          "data": "0x0000000000000000000000000000000000000000000000000000000000009ce1000000000000000000000000d8d092a5e8207fa58716726a243fc8cb8b80c92a",
          "blockHash": "0x0000000000000000000000000000000000000000000000000000000000000000",
          "blockNumber": "0x26bf704",
          "blockTimestamp": "0x69eb4ce8",
          "transactionHash": "0xc3c6babec8c1cd5a65937a2f2748c953789bfd87ed7d0f5a781101abf271d374",
          "transactionIndex": "0xc",
          "logIndex": "0x37",
          "removed": false
        }
      ],
      "logsBloom": "0x00000000000000000000000000000000000000000000000000000000000000000000000000000000000000000000000000020000000000000800000000000000000000001000000000000000000000000000000000000000000000000000000000000000000000000000000000000000000000000000000000000000000000000000000000000000000000000000000000000000000000000000000000000000000000000000000000000000000000000000000000000000000002000000000000000000000000000000000000000000000000000000000000040000000000000000002000000000000000000000000000000000000000000000000000000000",
      "type": "0x2",
      "transactionHash": "0xc3c6babec8c1cd5a65937a2f2748c953789bfd87ed7d0f5a781101abf271d374",
      "transactionIndex": "0xc",
      "blockHash": "0x0000000000000000000000000000000000000000000000000000000000000000",
      "blockNumber": "0x26bf704",
      "gasUsed": "0x757c",
      "effectiveGasPrice": "0x5b8d80",
      "blobGasUsed": "0x39d0",
      "from": "0xaf9f1cbb38cfdc0bb0c56953343b864e6b6769a8",
      "to": "0x33aa585b9934c9fe29471994db829fd6823b42ad",
      "contractAddress": null,
      "daFootprintGasScalar": "0x94",
      "l1BaseFeeScalar": "0x44d",
      "l1BlobBaseFee": "0xda1563a",
      "l1BlobBaseFeeScalar": "0xa118b",
      "l1Fee": "0x532c6f533",
      "l1GasPrice": "0xf4e20221",
      "l1GasUsed": "0x640"
    },
    {
      "status": "0x1",
      "cumulativeGasUsed": "0x3ec342",
      "logs": [
        {
          "address": "0xc1868e054425d378095a003ecba3823a5d0135c9",
          "topics": [
            "0x779cb2dd9d2bb1be1737d05435d744facbfb84a2a4912e21379d39beddcdc805"
          ],
          "data": "0x00000000000000000000000033aa585b9934c9fe29471994db829fd6823b42ad0000000000000000000000000000000000000000000000000000000000009ce100000000000000000000000000000000000000000000000000000000000027100000000000000000000000008a3d588d9f6ac041476b094f97ff94ec30169d3d",
          "blockHash": "0x0000000000000000000000000000000000000000000000000000000000000000",
          "blockNumber": "0x26bf704",
          "blockTimestamp": "0x69eb4ce8",
          "transactionHash": "0x5263c327d41c1f675b4dce1d9b021905e7f0e44b6203b15b1a0096142000397a",
          "transactionIndex": "0xd",
          "logIndex": "0x38",
          "removed": false
        }
      ],
      "logsBloom": "0x00000000000000000000000000000000000000000000000000000000000000000000000000000200000000000000000000000000000000000000000000000000000000000000000000000040000000000000000000000000000000020000000000000000000000000000000000000000000000000000000000000000000000000000000000000000000000000000000000000000000000000000000000000000000000000000000000000000000000000000000000000000000000000000000280000000000000000000000000000000000000000000000000000000000000000008000000000000000000000000000000000000000000000000000000000000",
      "type": "0x2",
      "transactionHash": "0x5263c327d41c1f675b4dce1d9b021905e7f0e44b6203b15b1a0096142000397a",
      "transactionIndex": "0xd",
      "blockHash": "0x0000000000000000000000000000000000000000000000000000000000000000",
      "blockNumber": "0x26bf704",
      "gasUsed": "0xb833",
      "effectiveGasPrice": "0x5b8d80",
      "blobGasUsed": "0x5590",
      "from": "0xaf9f1cbb38cfdc0bb0c56953343b864e6b6769a8",
      "to": "0x33aa585b9934c9fe29471994db829fd6823b42ad",
      "contractAddress": null,
      "daFootprintGasScalar": "0x94",
      "l1BaseFeeScalar": "0x44d",
      "l1BlobBaseFee": "0xda1563a",
      "l1BlobBaseFeeScalar": "0xa118b",
      "l1Fee": "0x532c6f533",
      "l1GasPrice": "0xf4e20221",
      "l1GasUsed": "0x94f"
    },
    {
      "status": "0x1",
      "cumulativeGasUsed": "0x417cc0",
      "logs": [
        {
          "address": "0xc1868e054425d378095a003ecba3823a5d0135c9",
          "topics": [
            "0x82118522aa536ac0e96cc5c689407ae42b89d592aa133890a01f1509842f5081"
          ],
          "data": "0x00000000000000000000000033aa585b9934c9fe29471994db829fd6823b42ad0000000000000000000000000000000000000000000000000000000000009ce10000000000000000000000000000000000000000000000000000000000000060000000000000000000000000000000000000000000000000000000000000000100000000000000000000000000000000000000000000000000000000000000040000000000000000000000000000000000000000000000000000000000000000000000000000000000000000000000000000000000000000000000000000000000000000000000000000000000000000000000000000000000000000000000c00000000000000000000000000000000000000000000000000000000000000160000000000000000000000000000000000000000000000000000000000000000400000000000000000000000063ef73671245d1a290f2a675be9d906090f72a8d000000000000000000000000b1b2319767b86800c4cfe8623a72c00d9d90cfb6000000000000000000000000d9222cc3ccd1df7c070d700ea377d4ada2b86eb5000000000000000000000000e1a12515f9ab2764b887bf60b923ca494ebbb2d60000000000000000000000000000000000000000000000000000000000000000",
          "blockHash": "0x0000000000000000000000000000000000000000000000000000000000000000",
          "blockNumber": "0x26bf704",
          "blockTimestamp": "0x69eb4ce8",
          "transactionHash": "0x8e88845f9af572baf505b9ac848d261b497ef818ad77ebed7f29c7d4dc0e2968",
          "transactionIndex": "0xf",
          "logIndex": "0x39",
          "removed": false
        }
      ],
      "logsBloom": "0x00000000000000000000000000000000000000000000000000000000000000000000000000000200000000000000000000000000000000000000000000000000000000000000000000000000000000000000000000000000002000020000000000000000000000000000000000000000000000000000000000000000000000000000000000000000000000000000000000000000000000000000000000000000000000000000000000000002000000000000000000000000000000000000000080000000000000000000000000000000000000000000000000000000000000000000000000000000000000000000000000000000000000000000000000000010",
      "type": "0x2",
      "transactionHash": "0x8e88845f9af572baf505b9ac848d261b497ef818ad77ebed7f29c7d4dc0e2968",
      "transactionIndex": "0xf",
      "blockHash": "0x0000000000000000000000000000000000000000000000000000000000000000",
      "blockNumber": "0x26bf704",
      "gasUsed": "0x22674",
      "effectiveGasPrice": "0x5b8d80",
      "blobGasUsed": "0x8d10",
      "from": "0xaf9f1cbb38cfdc0bb0c56953343b864e6b6769a8",
      "to": "0x33aa585b9934c9fe29471994db829fd6823b42ad",
      "contractAddress": null,
      "daFootprintGasScalar": "0x94",
      "l1BaseFeeScalar": "0x44d",
      "l1BlobBaseFee": "0xda1563a",
      "l1BlobBaseFeeScalar": "0xa118b",
      "l1Fee": "0x8f631260d",
      "l1GasPrice": "0xf4e20221",
      "l1GasUsed": "0xf45"
    },
    {
      "status": "0x1",
      "cumulativeGasUsed": "0x43a250",
      "logs": [
        {
          "address": "0x12523de19dc41c91f7d2093e0cfbb76b17012c8d",
          "topics": [
            "0x82118522aa536ac0e96cc5c689407ae42b89d592aa133890a01f1509842f5081"
          ],
          "data": "0x00000000000000000000000033aa585b9934c9fe29471994db829fd6823b42ad0000000000000000000000000000000000000000000000000000000000009ce10000000000000000000000000000000000000000000000000000000000000060000000000000000000000000000000000000000000000000000000000000000100000000000000000000000000000000000000000000000000000000000000040000000000000000000000000000000000000000000000000000000000000000000000000000000000000000000000000000000000000000000000000000000000000000000000000000000000000000000000000000000000000000000000c00000000000000000000000000000000000000000000000000000000000000160000000000000000000000000000000000000000000000000000000000000000400000000000000000000000063ef73671245d1a290f2a675be9d906090f72a8d000000000000000000000000b1b2319767b86800c4cfe8623a72c00d9d90cfb6000000000000000000000000d9222cc3ccd1df7c070d700ea377d4ada2b86eb5000000000000000000000000e1a12515f9ab2764b887bf60b923ca494ebbb2d60000000000000000000000000000000000000000000000000000000000000000",
          "blockHash": "0x0000000000000000000000000000000000000000000000000000000000000000",
          "blockNumber": "0x26bf704",
          "blockTimestamp": "0x69eb4ce8",
          "transactionHash": "0x95c5ed86141be415e9b2ac9b52415e02788a1deb3a0f1c3401785ef5f9de9446",
          "transactionIndex": "0x10",
          "logIndex": "0x3a",
          "removed": false
        }
      ],
      "logsBloom": "0x00000000000000000000000000000000000000000000000000000000000000000000000000000000000000000000000000000000000000000000000000000000000000000000000000000000000000000000000000000000002000000000000000000000000000000000000000000000000000000000000000000000000000000000000000100000000000000000000000000000000000000000000000000000000000000000000000000002000000004000000000000000000000000000000000000000000000000000000000000000000000000000000000000000000000000000000000000000000000000000000000000000000000000000000020000010",
      "type": "0x2",
      "transactionHash": "0x95c5ed86141be415e9b2ac9b52415e02788a1deb3a0f1c3401785ef5f9de9446",
      "transactionIndex": "0x10",
      "blockHash": "0x0000000000000000000000000000000000000000000000000000000000000000",
      "blockNumber": "0x26bf704",
      "gasUsed": "0x22590",
      "effectiveGasPrice": "0x5b8d80",
      "blobGasUsed": "0x8ac0",
      "from": "0xaf9f1cbb38cfdc0bb0c56953343b864e6b6769a8",
      "to": "0x33aa585b9934c9fe29471994db829fd6823b42ad",
      "contractAddress": null,
      "daFootprintGasScalar": "0x94",
      "l1BaseFeeScalar": "0x44d",
      "l1BlobBaseFee": "0xda1563a",
      "l1BlobBaseFeeScalar": "0xa118b",
      "l1Fee": "0x8f631260d",
      "l1GasPrice": "0xf4e20221",
      "l1GasUsed": "0xf0f"
    }
  ],
  "libraries": [],
  "pending": [],
  "returns": {},
  "timestamp": 1777028327603,
  "chain": 84532,
  "commit": "de55ea5"
}