{
  "transactions": [
    {
      "hash": "0x734ebcd2676ba1f3b426396c6224fbcdbd033cebce76d21cab10788e9961bc9a",
      "transactionType": "CALL",
      "contractName": null,
      "contractAddress": "0x33aa585b9934c9fe29471994db829fd6823b42ad",
      "function": "setPeer(uint32,bytes32)",
      "arguments": [
        "40161",
        "0x000000000000000000000000d8d092a5e8207fa58716726a243fc8cb8b80c92a"
      ],
      "transaction": {
        "from": "0xaf9f1cbb38cfdc0bb0c56953343b864e6b6769a8",
        "to": "0x33aa585b9934c9fe29471994db829fd6823b42ad",
        "gas": "0x10da4",
        "value": "0x0",
        "input": "0x3400288b0000000000000000000000000000000000000000000000000000000000009ce1000000000000000000000000d8d092a5e8207fa58716726a243fc8cb8b80c92a",
        "nonce": "0x8",
        "chainId": "0x14a34"
      },
      "additionalContracts": [],
      "isFixedGasLimit": false
    },
    {
      "hash": "0x54537ee5fa2a00a0fbd3853e15c761c4addf100663050612ed16c4a64a61132a",
      "transactionType": "CALL",
      "contractName": null,
      "contractAddress": "0x33aa585b9934c9fe29471994db829fd6823b42ad",
      "function": "setLzConfig(address,(uint32,uint32,bytes)[])",
      "arguments": [
        "0xC1868e054425D378095A003EcbA3823a5D0135C9",
        "[(40161, 1, 0x00000000000000000000000000000000000000000000000000000000000027100000000000000000000000008a3d588d9f6ac041476b094f97ff94ec30169d3d)]"
      ],
      "transaction": {
        "from": "0xaf9f1cbb38cfdc0bb0c56953343b864e6b6769a8",
        "to": "0x33aa585b9934c9fe29471994db829fd6823b42ad",
        "gas": "0x169ca",
        "value": "0x0",
        "input": "0x60dc4a3e000000000000000000000000c1868e054425d378095a003ecba3823a5d0135c90000000000000000000000000000000000000000000000000000000000000040000000000000000000000000000000000000000000000000000000000000000100000000000000000000000000000000000000000000000000000000000000200000000000000000000000000000000000000000000000000000000000009ce100000000000000000000000000000000000000000000000000000000000000010000000000000000000000000000000000000000000000000000000000000060000000000000000000000000000000000000000000000000000000000000004000000000000000000000000000000000000000000000000000000000000027100000000000000000000000008a3d588d9f6ac041476b094f97ff94ec30169d3d",
        "nonce": "0x9",
        "chainId": "0x14a34"
      },
      "additionalContracts": [],
      "isFixedGasLimit": false
    },
    {
      "hash": "0x8ea82d249133a0381b0cba4a29306a1863b5213afa27e11bd9ca830603ae93f5",
      "transactionType": "CALL",
      "contractName": null,
      "contractAddress": "0x33aa585b9934c9fe29471994db829fd6823b42ad",
      "function": "setLzConfig(address,(uint32,uint32,bytes)[])",
      "arguments": [
        "0xC1868e054425D378095A003EcbA3823a5D0135C9",
        "[(40161, 2, 0x0000000000000000000000000000000000000000000000000000000000000020000000000000000000000000000000000000000000000000000000000000000100000000000000000000000000000000000000000000000000000000000000010000000000000000000000000000000000000000000000000000000000000000000000000000000000000000000000000000000000000000000000000000000000000000000000000000000000000000000000000000000000000000000000c000000000000000000000000000000000000000000000000000000000000001000000000000000000000000000000000000000000000000000000000000000001000000000000000000000000bf6ff58f60606edf2f190769b951d825bcb214e20000000000000000000000000000000000000000000000000000000000000000)]"
      ],
      "transaction": {
        "from": "0xaf9f1cbb38cfdc0bb0c56953343b864e6b6769a8",
        "to": "0x33aa585b9934c9fe29471994db829fd6823b42ad",
        "gas": "0x292e1",
        "value": "0x0",
        "input": "0x60dc4a3e000000000000000000000000c1868e054425d378095a003ecba3823a5d0135c90000000000000000000000000000000000000000000000000000000000000040000000000000000000000000000000000000000000000000000000000000000100000000000000000000000000000000000000000000000000000000000000200000000000000000000000000000000000000000000000000000000000009ce10000000000000000000000000000000000000000000000000000000000000002000000000000000000000000000000000000000000000000000000000000006000000000000000000000000000000000000000000000000000000000000001400000000000000000000000000000000000000000000000000000000000000020000000000000000000000000000000000000000000000000000000000000000100000000000000000000000000000000000000000000000000000000000000010000000000000000000000000000000000000000000000000000000000000000000000000000000000000000000000000000000000000000000000000000000000000000000000000000000000000000000000000000000000000000000000c000000000000000000000000000000000000000000000000000000000000001000000000000000000000000000000000000000000000000000000000000000001000000000000000000000000bf6ff58f60606edf2f190769b951d825bcb214e20000000000000000000000000000000000000000000000000000000000000000",
        "nonce": "0xa",
        "chainId": "0x14a34"
      },
      "additionalContracts": [],
      "isFixedGasLimit": false
    },
    {
      "hash": "0xa0ba565d61d8aa19542927bc3eddf5dd53e2b0d53031ab1a4caf1f5349125a9a",
      "transactionType": "CALL",
      "contractName": null,
      "contractAddress": "0x33aa585b9934c9fe29471994db829fd6823b42ad",
      "function": "setLzConfig(address,(uint32,uint32,bytes)[])",
      "arguments": [
        "0x12523de19dc41c91F7d2093E0CFbB76b17012C8d",
        "[(40161, 2, 0x0000000000000000000000000000000000000000000000000000000000000020000000000000000000000000000000000000000000000000000000000000000100000000000000000000000000000000000000000000000000000000000000010000000000000000000000000000000000000000000000000000000000000000000000000000000000000000000000000000000000000000000000000000000000000000000000000000000000000000000000000000000000000000000000c000000000000000000000000000000000000000000000000000000000000001000000000000000000000000000000000000000000000000000000000000000001000000000000000000000000bf6ff58f60606edf2f190769b951d825bcb214e20000000000000000000000000000000000000000000000000000000000000000)]"
      ],
      "transaction": {
        "from": "0xaf9f1cbb38cfdc0bb0c56953343b864e6b6769a8",
        "to": "0x33aa585b9934c9fe29471994db829fd6823b42ad",
        "gas": "0x2918d",
        "value": "0x0",
        "input": "0x60dc4a3e00000000000000000000000012523de19dc41c91f7d2093e0cfbb76b17012c8d0000000000000000000000000000000000000000000000000000000000000040000000000000000000000000000000000000000000000000000000000000000100000000000000000000000000000000000000000000000000000000000000200000000000000000000000000000000000000000000000000000000000009ce10000000000000000000000000000000000000000000000000000000000000002000000000000000000000000000000000000000000000000000000000000006000000000000000000000000000000000000000000000000000000000000001400000000000000000000000000000000000000000000000000000000000000020000000000000000000000000000000000000000000000000000000000000000100000000000000000000000000000000000000000000000000000000000000010000000000000000000000000000000000000000000000000000000000000000000000000000000000000000000000000000000000000000000000000000000000000000000000000000000000000000000000000000000000000000000000c000000000000000000000000000000000000000000000000000000000000001000000000000000000000000000000000000000000000000000000000000000001000000000000000000000000bf6ff58f60606edf2f190769b951d825bcb214e20000000000000000000000000000000000000000000000000000000000000000",
        "nonce": "0xb",
        "chainId": "0x14a34"
      },
      "additionalContracts": [],
      "isFixedGasLimit": false
    }
  ],
  "receipts": [
    {
      "status": "0x1",
      "cumulativeGasUsed": "0x24f522",
      "logs": [
        {
          "address": "0x33aa585b9934c9fe29471994db829fd6823b42ad",
          "topics": [
            "0x238399d427b947898edb290f5ff0f9109849b1c3ba196a42e35f00c50a54b98b"
          ],
          "data": "0x0000000000000000000000000000000000000000000000000000000000009ce1000000000000000000000000d8d092a5e8207fa58716726a243fc8cb8b80c92a",
          "blockHash": "0x0000000000000000000000000000000000000000000000000000000000000000",
          "blockNumber": "0x26b5d0c",
          "blockTimestamp": "0x69ea18f8",
          "transactionHash": "0x54537ee5fa2a00a0fbd3853e15c761c4addf100663050612ed16c4a64a61132a",
          "transactionIndex": "0x9",
          "logIndex": "0x55",
          "removed": false
        }
      ],
      "logsBloom": "0x00000000000000000000000000000000000000000000000000000000000000000000000000000000000000000000000000020000000000000800000000000000000000001000000000000000000000000000000000000000000000000000000000000000000000000000000000000000000000000000000000000000000000000000000000000000000000000000000000000000000000000000000000000000000000000000000000000000000000000000000000000000000002000000000000000000000000000000000000000000000000000000000000040000000000000000002000000000000000000000000000000000000000000000000000000000",
      "type": "0x2",
      "transactionHash": "0x54537ee5fa2a00a0fbd3853e15c761c4addf100663050612ed16c4a64a61132a",
      "transactionIndex": "0x9",
      "blockHash": "0x0000000000000000000000000000000000000000000000000000000000000000",
      "blockNumber": "0x26b5d0c",
      "gasUsed": "0xc338",
      "effectiveGasPrice": "0x5b8d80",
      "blobGasUsed": "0x39d0",
      "from": "0xaf9f1cbb38cfdc0bb0c56953343b864e6b6769a8",
      "to": "0x33aa585b9934c9fe29471994db829fd6823b42ad",
      "contractAddress": null,
      "daFootprintGasScalar": "0x94",
      "l1BaseFeeScalar": "0x44d",
      "l1BlobBaseFee": "0x4b23d",
      "l1BlobBaseFeeScalar": "0xa118b",
      "l1Fee": "0x1afe8e6",
      "l1GasPrice": "0x45455c",
      "l1GasUsed": "0x640"
    },
    {
      "status": "0x1",
      "cumulativeGasUsed": "0x25fb11",
      "logs": [
        {
          "address": "0xc1868e054425d378095a003ecba3823a5d0135c9",
          "topics": [
            "0x779cb2dd9d2bb1be1737d05435d744facbfb84a2a4912e21379d39beddcdc805"
          ],
          "data": "0x00000000000000000000000033aa585b9934c9fe29471994db829fd6823b42ad0000000000000000000000000000000000000000000000000000000000009ce100000000000000000000000000000000000000000000000000000000000027100000000000000000000000008a3d588d9f6ac041476b094f97ff94ec30169d3d",
          "blockHash": "0x0000000000000000000000000000000000000000000000000000000000000000",
          "blockNumber": "0x26b5d0c",
          "blockTimestamp": "0x69ea18f8",
          "transactionHash": "0x734ebcd2676ba1f3b426396c6224fbcdbd033cebce76d21cab10788e9961bc9a",
          "transactionIndex": "0xa",
          "logIndex": "0x56",
          "removed": false
        }
      ],
      "logsBloom": "0x00000000000000000000000000000000000000000000000000000000000000000000000000000200000000000000000000000000000000000000000000000000000000000000000000000040000000000000000000000000000000020000000000000000000000000000000000000000000000000000000000000000000000000000000000000000000000000000000000000000000000000000000000000000000000000000000000000000000000000000000000000000000000000000000280000000000000000000000000000000000000000000000000000000000000000008000000000000000000000000000000000000000000000000000000000000",
      "type": "0x2",
      "transactionHash": "0x734ebcd2676ba1f3b426396c6224fbcdbd033cebce76d21cab10788e9961bc9a",
      "transactionIndex": "0xa",
      "blockHash": "0x0000000000000000000000000000000000000000000000000000000000000000",
      "blockNumber": "0x26b5d0c",
      "gasUsed": "0x105ef",
      "effectiveGasPrice": "0x5b8d80",
      "blobGasUsed": "0x5590",
      "from": "0xaf9f1cbb38cfdc0bb0c56953343b864e6b6769a8",
      "to": "0x33aa585b9934c9fe29471994db829fd6823b42ad",
      "contractAddress": null,
      "daFootprintGasScalar": "0x94",
      "l1BaseFeeScalar": "0x44d",
      "l1BlobBaseFee": "0x4b23d",
      "l1BlobBaseFeeScalar": "0xa118b",
      "l1Fee": "0x1afe8e6",
      "l1GasPrice": "0x45455c",
      "l1GasUsed": "0x94f"
    },
    {
      "status": "0x1",
      "cumulativeGasUsed": "0x282b86",
      "logs": [
        {
          "address": "0xc1868e054425d378095a003ecba3823a5d0135c9",
          "topics": [
            "0x82118522aa536ac0e96cc5c689407ae42b89d592aa133890a01f1509842f5081"
          ],
          "data": "0x00000000000000000000000033aa585b9934c9fe29471994db829fd6823b42ad0000000000000000000000000000000000000000000000000000000000009ce10000000000000000000000000000000000000000000000000000000000000060000000000000000000000000000000000000000000000000000000000000000100000000000000000000000000000000000000000000000000000000000000010000000000000000000000000000000000000000000000000000000000000000000000000000000000000000000000000000000000000000000000000000000000000000000000000000000000000000000000000000000000000000000000c000000000000000000000000000000000000000000000000000000000000001000000000000000000000000000000000000000000000000000000000000000001000000000000000000000000bf6ff58f60606edf2f190769b951d825bcb214e20000000000000000000000000000000000000000000000000000000000000000",
          "blockHash": "0x0000000000000000000000000000000000000000000000000000000000000000",
          "blockNumber": "0x26b5d0c",
          "blockTimestamp": "0x69ea18f8",
          "transactionHash": "0xa0ba565d61d8aa19542927bc3eddf5dd53e2b0d53031ab1a4caf1f5349125a9a",
          "transactionIndex": "0xc",
          "logIndex": "0x57",
          "removed": false
        }
      ],
      "logsBloom": "0x00000000000000000000000000000000000000000000000000000000000000000000000000000200000000000000000000000000000000000000000000000000000000000000000000000000000000000000000000000000002000020000000000000000000000000000000000000000000000000000000000000000000000000000000000000000000000000000000000000000000000000000000000000000000000000000000000000002000000000000000000000000000000000000000080000000000000000000000000000000000000000000000000000000000000000000000000000000000000000000000000000000000000000000000000000010",
      "type": "0x2",
      "transactionHash": "0xa0ba565d61d8aa19542927bc3eddf5dd53e2b0d53031ab1a4caf1f5349125a9a",
      "transactionIndex": "0xc",
      "blockHash": "0x0000000000000000000000000000000000000000000000000000000000000000",
      "blockNumber": "0x26b5d0c",
      "gasUsed": "0x1dd05",
      "effectiveGasPrice": "0x5b8d80",
      "blobGasUsed": "0x62dc",
      "from": "0xaf9f1cbb38cfdc0bb0c56953343b864e6b6769a8",
      "to": "0x33aa585b9934c9fe29471994db829fd6823b42ad",
      "contractAddress": null,
      "daFootprintGasScalar": "0x94",
      "l1BaseFeeScalar": "0x44d",
      "l1BlobBaseFee": "0x4b23d",
      "l1BlobBaseFeeScalar": "0xa118b",
      "l1Fee": "0x1afe8e6",
      "l1GasPrice": "0x45455c",
      "l1GasUsed": "0xab8"
    },
    {
      "status": "0x1",
      "cumulativeGasUsed": "0x2a0795",
      "logs": [
        {
          "address": "0x12523de19dc41c91f7d2093e0cfbb76b17012c8d",
          "topics": [
            "0x82118522aa536ac0e96cc5c689407ae42b89d592aa133890a01f1509842f5081"
          ],
          "data": "0x00000000000000000000000033aa585b9934c9fe29471994db829fd6823b42ad0000000000000000000000000000000000000000000000000000000000009ce10000000000000000000000000000000000000000000000000000000000000060000000000000000000000000000000000000000000000000000000000000000100000000000000000000000000000000000000000000000000000000000000010000000000000000000000000000000000000000000000000000000000000000000000000000000000000000000000000000000000000000000000000000000000000000000000000000000000000000000000000000000000000000000000c000000000000000000000000000000000000000000000000000000000000001000000000000000000000000000000000000000000000000000000000000000001000000000000000000000000bf6ff58f60606edf2f190769b951d825bcb214e20000000000000000000000000000000000000000000000000000000000000000",
          "blockHash": "0x0000000000000000000000000000000000000000000000000000000000000000",
          "blockNumber": "0x26b5d0c",
          "blockTimestamp": "0x69ea18f8",
          "transactionHash": "0x8ea82d249133a0381b0cba4a29306a1863b5213afa27e11bd9ca830603ae93f5",
          "transactionIndex": "0xd",
          "logIndex": "0x58",
          "removed": false
        }
      ],
      "logsBloom": "0x00000000000000000000000000000000000000000000000000000000000000000000000000000000000000000000000000000000000000000000000000000000000000000000000000000000000000000000000000000000002000000000000000000000000000000000000000000000000000000000000000000000000000000000000000100000000000000000000000000000000000000000000000000000000000000000000000000002000000004000000000000000000000000000000000000000000000000000000000000000000000000000000000000000000000000000000000000000000000000000000000000000000000000000000020000010",
      "type": "0x2",
      "transactionHash": "0x8ea82d249133a0381b0cba4a29306a1863b5213afa27e11bd9ca830603ae93f5",
      "transactionIndex": "0xd",
      "blockHash": "0x0000000000000000000000000000000000000000000000000000000000000000",
      "blockNumber": "0x26b5d0c",
      "gasUsed": "0x1dc0f",
      "effectiveGasPrice": "0x5b8d80",
      "blobGasUsed": "0x62dc",
      "from": "0xaf9f1cbb38cfdc0bb0c56953343b864e6b6769a8",
      "to": "0x33aa585b9934c9fe29471994db829fd6823b42ad",
      "contractAddress": null,
      "daFootprintGasScalar": "0x94",
      "l1BaseFeeScalar": "0x44d",
      "l1BlobBaseFee": "0x4b23d",
      "l1BlobBaseFeeScalar": "0xa118b",
      "l1Fee": "0x1afe8e6",
      "l1GasPrice": "0x45455c",
      "l1GasUsed": "0xab8"
    }
  ],
  "libraries": [],
  "pending": [],
  "returns": {},
  "timestamp": 1776949494853,
  "chain": 84532,
  "commit": "de55ea5"
}