{
  "transactions": [
    {
      "hash": "0xcd913679808a8d04396f92199e2a89778aa28019ececabc45d5a5a0f55387a38",
      "transactionType": "CALL",
      "contractName": null,
      "contractAddress": "0x33aa585b9934c9fe29471994db829fd6823b42ad",
      "function": "setPeer(uint32,bytes32)",
      "arguments": [
        "40161",
        "0x000000000000000000000000d8d092a5e8207fa58716726a243fc8cb8b80c92a"
      ],
      "transaction": {
        "from": "0xaf9f1cbb38cfdc0bb0c56953343b864e6b6769a8",
        "to": "0x33aa585b9934c9fe29471994db829fd6823b42ad",
        "gas": "0xa245",
        "value": "0x0",
        "input": "0x3400288b0000000000000000000000000000000000000000000000000000000000009ce1000000000000000000000000d8d092a5e8207fa58716726a243fc8cb8b80c92a",
        "nonce": "0x1c",
        "chainId": "0x14a34"
      },
      "additionalContracts": [],
      "isFixedGasLimit": false
    },
    {
      "hash": "0xe2cec06f1f14e3ddc5c739ebb5e8e9871c3a99e6c3aadf2a6a666ba360271e42",
      "transactionType": "CALL",
      "contractName": null,
      "contractAddress": "0x33aa585b9934c9fe29471994db829fd6823b42ad",
      "function": "setLzConfig(address,(uint32,uint32,bytes)[])",
      "arguments": [
        "0xC1868e054425D378095A003EcbA3823a5D0135C9",
        "[(40161, 1, 0x00000000000000000000000000000000000000000000000000000000000027100000000000000000000000008a3d588d9f6ac041476b094f97ff94ec30169d3d)]"
      ],
      "transaction": {
        "from": "0xaf9f1cbb38cfdc0bb0c56953343b864e6b6769a8",
        "to": "0x33aa585b9934c9fe29471994db829fd6823b42ad",
        "gas": "0x10d63",
        "value": "0x0",
        "input": "0x60dc4a3e000000000000000000000000c1868e054425d378095a003ecba3823a5d0135c90000000000000000000000000000000000000000000000000000000000000040000000000000000000000000000000000000000000000000000000000000000100000000000000000000000000000000000000000000000000000000000000200000000000000000000000000000000000000000000000000000000000009ce100000000000000000000000000000000000000000000000000000000000000010000000000000000000000000000000000000000000000000000000000000060000000000000000000000000000000000000000000000000000000000000004000000000000000000000000000000000000000000000000000000000000027100000000000000000000000008a3d588d9f6ac041476b094f97ff94ec30169d3d",
        "nonce": "0x1d",
        "chainId": "0x14a34"
      },
      "additionalContracts": [],
      "isFixedGasLimit": false
    },
    {
      "hash": "0x98d9d4221a91ebb65b7c7a0408646d9045f3749b902f2cdc153d2b853a537199",
      "transactionType": "CALL",
      "contractName": null,
      "contractAddress": "0x33aa585b9934c9fe29471994db829fd6823b42ad",
      "function": "setLzConfig(address,(uint32,uint32,bytes)[])",
      "arguments": [
        "0xC1868e054425D378095A003EcbA3823a5D0135C9",
        "[(40161, 2, 0x0000000000000000000000000000000000000000000000000000000000000020000000000000000000000000000000000000000000000000000000000000000100000000000000000000000000000000000000000000000000000000000000020000000000000000000000000000000000000000000000000000000000000002000000000000000000000000000000000000000000000000000000000000000100000000000000000000000000000000000000000000000000000000000000c000000000000000000000000000000000000000000000000000000000000001200000000000000000000000000000000000000000000000000000000000000002000000000000000000000000d9222cc3ccd1df7c070d700ea377d4ada2b86eb5000000000000000000000000e1a12515f9ab2764b887bf60b923ca494ebbb2d6000000000000000000000000000000000000000000000000000000000000000200000000000000000000000063ef73671245d1a290f2a675be9d906090f72a8d000000000000000000000000b1b2319767b86800c4cfe8623a72c00d9d90cfb6)]"
      ],
      "transaction": {
        "from": "0xaf9f1cbb38cfdc0bb0c56953343b864e6b6769a8",
        "to": "0x33aa585b9934c9fe29471994db829fd6823b42ad",
        "gas": "0x18e62",
        "value": "0x0",
        "input": "0x60dc4a3e000000000000000000000000c1868e054425d378095a003ecba3823a5d0135c90000000000000000000000000000000000000000000000000000000000000040000000000000000000000000000000000000000000000000000000000000000100000000000000000000000000000000000000000000000000000000000000200000000000000000000000000000000000000000000000000000000000009ce10000000000000000000000000000000000000000000000000000000000000002000000000000000000000000000000000000000000000000000000000000006000000000000000000000000000000000000000000000000000000000000001a00000000000000000000000000000000000000000000000000000000000000020000000000000000000000000000000000000000000000000000000000000000100000000000000000000000000000000000000000000000000000000000000020000000000000000000000000000000000000000000000000000000000000002000000000000000000000000000000000000000000000000000000000000000100000000000000000000000000000000000000000000000000000000000000c000000000000000000000000000000000000000000000000000000000000001200000000000000000000000000000000000000000000000000000000000000002000000000000000000000000d9222cc3ccd1df7c070d700ea377d4ada2b86eb5000000000000000000000000e1a12515f9ab2764b887bf60b923ca494ebbb2d6000000000000000000000000000000000000000000000000000000000000000200000000000000000000000063ef73671245d1a290f2a675be9d906090f72a8d000000000000000000000000b1b2319767b86800c4cfe8623a72c00d9d90cfb6",
        "nonce": "0x1e",
        "chainId": "0x14a34"
      },
      "additionalContracts": [],
      "isFixedGasLimit": false
    },
    {
      "hash": "0xd03b9f95e45d1b0d38e3e0735b27565b64fa2ab7be86c487875916d26b066523",
      "transactionType": "CALL",
      "contractName": null,
      "contractAddress": "0x33aa585b9934c9fe29471994db829fd6823b42ad",
      "function": "setLzConfig(address,(uint32,uint32,bytes)[])",
      "arguments": [
        "0x12523de19dc41c91F7d2093E0CFbB76b17012C8d",
        "[(40161, 2, 0x0000000000000000000000000000000000000000000000000000000000000020000000000000000000000000000000000000000000000000000000000000000100000000000000000000000000000000000000000000000000000000000000020000000000000000000000000000000000000000000000000000000000000002000000000000000000000000000000000000000000000000000000000000000100000000000000000000000000000000000000000000000000000000000000c000000000000000000000000000000000000000000000000000000000000001200000000000000000000000000000000000000000000000000000000000000002000000000000000000000000d9222cc3ccd1df7c070d700ea377d4ada2b86eb5000000000000000000000000e1a12515f9ab2764b887bf60b923ca494ebbb2d6000000000000000000000000000000000000000000000000000000000000000200000000000000000000000063ef73671245d1a290f2a675be9d906090f72a8d000000000000000000000000b1b2319767b86800c4cfe8623a72c00d9d90cfb6)]"
      ],
      "transaction": {
        "from": "0xaf9f1cbb38cfdc0bb0c56953343b864e6b6769a8",
        "to": "0x33aa585b9934c9fe29471994db829fd6823b42ad",
        "gas": "0x1a485",
        "value": "0x0",
        "input": "0x60dc4a3e00000000000000000000000012523de19dc41c91f7d2093e0cfbb76b17012c8d0000000000000000000000000000000000000000000000000000000000000040000000000000000000000000000000000000000000000000000000000000000100000000000000000000000000000000000000000000000000000000000000200000000000000000000000000000000000000000000000000000000000009ce10000000000000000000000000000000000000000000000000000000000000002000000000000000000000000000000000000000000000000000000000000006000000000000000000000000000000000000000000000000000000000000001a00000000000000000000000000000000000000000000000000000000000000020000000000000000000000000000000000000000000000000000000000000000100000000000000000000000000000000000000000000000000000000000000020000000000000000000000000000000000000000000000000000000000000002000000000000000000000000000000000000000000000000000000000000000100000000000000000000000000000000000000000000000000000000000000c000000000000000000000000000000000000000000000000000000000000001200000000000000000000000000000000000000000000000000000000000000002000000000000000000000000d9222cc3ccd1df7c070d700ea377d4ada2b86eb5000000000000000000000000e1a12515f9ab2764b887bf60b923ca494ebbb2d6000000000000000000000000000000000000000000000000000000000000000200000000000000000000000063ef73671245d1a290f2a675be9d906090f72a8d000000000000000000000000b1b2319767b86800c4cfe8623a72c00d9d90cfb6",
        "nonce": "0x1f",
        "chainId": "0x14a34"
      },
      "additionalContracts": [],
      "isFixedGasLimit": false
    }
  ],
  "receipts": [
    {
      "status": "0x1",
      "cumulativeGasUsed": "0x421c52",
      "logs": [
        {
          "address": "0x33aa585b9934c9fe29471994db829fd6823b42ad",
          "topics": [
            "0x238399d427b947898edb290f5ff0f9109849b1c3ba196a42e35f00c50a54b98b"
          ],
          "data": "0x0000000000000000000000000000000000000000000000000000000000009ce1000000000000000000000000d8d092a5e8207fa58716726a243fc8cb8b80c92a",
          "blockHash": "0x0000000000000000000000000000000000000000000000000000000000000000",
          "blockNumber": "0x26bfad9",
          "blockTimestamp": "0x69eb5492",
          "transactionHash": "0xe2cec06f1f14e3ddc5c739ebb5e8e9871c3a99e6c3aadf2a6a666ba360271e42",
          "transactionIndex": "0xe",
          "logIndex": "0xb2",
          "removed": false
        }
      ],
      "logsBloom": "0x00000000000000000000000000000000000000000000000000000000000000000000000000000000000000000000000000020000000000000800000000000000000000001000000000000000000000000000000000000000000000000000000000000000000000000000000000000000000000000000000000000000000000000000000000000000000000000000000000000000000000000000000000000000000000000000000000000000000000000000000000000000000002000000000000000000000000000000000000000000000000000000000000040000000000000000002000000000000000000000000000000000000000000000000000000000",
      "type": "0x2",
      "transactionHash": "0xe2cec06f1f14e3ddc5c739ebb5e8e9871c3a99e6c3aadf2a6a666ba360271e42",
      "transactionIndex": "0xe",
      "blockHash": "0x0000000000000000000000000000000000000000000000000000000000000000",
      "blockNumber": "0x26bfad9",
      "gasUsed": "0x757c",
      "effectiveGasPrice": "0x5b8d80",
      "blobGasUsed": "0x39d0",
      "from": "0xaf9f1cbb38cfdc0bb0c56953343b864e6b6769a8",
      "to": "0x33aa585b9934c9fe29471994db829fd6823b42ad",
      "contractAddress": null,
      "daFootprintGasScalar": "0x94",
      "l1BaseFeeScalar": "0x44d",
      "l1BlobBaseFee": "0x325b4e9",
      "l1BlobBaseFeeScalar": "0xa118b",
      "l1Fee": "0x62b965c1e",
      "l1GasPrice": "0x31d6da55",
      "l1GasUsed": "0x640"
    },
    {
      "status": "0x1",
      "cumulativeGasUsed": "0x42d485",
      "logs": [
        {
          "address": "0xc1868e054425d378095a003ecba3823a5d0135c9",
          "topics": [
            "0x779cb2dd9d2bb1be1737d05435d744facbfb84a2a4912e21379d39beddcdc805"
          ],
          "data": "0x00000000000000000000000033aa585b9934c9fe29471994db829fd6823b42ad0000000000000000000000000000000000000000000000000000000000009ce100000000000000000000000000000000000000000000000000000000000027100000000000000000000000008a3d588d9f6ac041476b094f97ff94ec30169d3d",
          "blockHash": "0x0000000000000000000000000000000000000000000000000000000000000000",
          "blockNumber": "0x26bfad9",
          "blockTimestamp": "0x69eb5492",
          "transactionHash": "0xcd913679808a8d04396f92199e2a89778aa28019ececabc45d5a5a0f55387a38",
          "transactionIndex": "0xf",
          "logIndex": "0xb3",
          "removed": false
        }
      ],
      "logsBloom": "0x00000000000000000000000000000000000000000000000000000000000000000000000000000200000000000000000000000000000000000000000000000000000000000000000000000040000000000000000000000000000000020000000000000000000000000000000000000000000000000000000000000000000000000000000000000000000000000000000000000000000000000000000000000000000000000000000000000000000000000000000000000000000000000000000280000000000000000000000000000000000000000000000000000000000000000008000000000000000000000000000000000000000000000000000000000000",
      "type": "0x2",
      "transactionHash": "0xcd913679808a8d04396f92199e2a89778aa28019ececabc45d5a5a0f55387a38",
      "transactionIndex": "0xf",
      "blockHash": "0x0000000000000000000000000000000000000000000000000000000000000000",
      "blockNumber": "0x26bfad9",
      "gasUsed": "0xb833",
      "effectiveGasPrice": "0x5b8d80",
      "blobGasUsed": "0x5590",
      "from": "0xaf9f1cbb38cfdc0bb0c56953343b864e6b6769a8",
      "to": "0x33aa585b9934c9fe29471994db829fd6823b42ad",
      "contractAddress": null,
      "daFootprintGasScalar": "0x94",
      "l1BaseFeeScalar": "0x44d",
      "l1BlobBaseFee": "0x325b4e9",
      "l1BlobBaseFeeScalar": "0xa118b",
      "l1Fee": "0x62b965c1e",
      "l1GasPrice": "0x31d6da55",
      "l1GasUsed": "0x94f"
    },
    {
      "status": "0x1",
      "cumulativeGasUsed": "0x4bd6ad",
      "logs": [
        {
          "address": "0xc1868e054425d378095a003ecba3823a5d0135c9",
          "topics": [
            "0x82118522aa536ac0e96cc5c689407ae42b89d592aa133890a01f1509842f5081"
          ],
          "data": "0x00000000000000000000000033aa585b9934c9fe29471994db829fd6823b42ad0000000000000000000000000000000000000000000000000000000000009ce10000000000000000000000000000000000000000000000000000000000000060000000000000000000000000000000000000000000000000000000000000000100000000000000000000000000000000000000000000000000000000000000020000000000000000000000000000000000000000000000000000000000000002000000000000000000000000000000000000000000000000000000000000000100000000000000000000000000000000000000000000000000000000000000c000000000000000000000000000000000000000000000000000000000000001200000000000000000000000000000000000000000000000000000000000000002000000000000000000000000d9222cc3ccd1df7c070d700ea377d4ada2b86eb5000000000000000000000000e1a12515f9ab2764b887bf60b923ca494ebbb2d6000000000000000000000000000000000000000000000000000000000000000200000000000000000000000063ef73671245d1a290f2a675be9d906090f72a8d000000000000000000000000b1b2319767b86800c4cfe8623a72c00d9d90cfb6",
          "blockHash": "0x0000000000000000000000000000000000000000000000000000000000000000",
          "blockNumber": "0x26bfad9",
          "blockTimestamp": "0x69eb5492",
          "transactionHash": "0xd03b9f95e45d1b0d38e3e0735b27565b64fa2ab7be86c487875916d26b066523",
          "transactionIndex": "0x14",
          "logIndex": "0xc2",
          "removed": false
        }
      ],
      "logsBloom": "0x00000000000000000000000000000000000000000000000000000000000000000000000000000200000000000000000000000000000000000000000000000000000000000000000000000000000000000000000000000000002000020000000000000000000000000000000000000000000000000000000000000000000000000000000000000000000000000000000000000000000000000000000000000000000000000000000000000002000000000000000000000000000000000000000080000000000000000000000000000000000000000000000000000000000000000000000000000000000000000000000000000000000000000000000000000010",
      "type": "0x2",
      "transactionHash": "0xd03b9f95e45d1b0d38e3e0735b27565b64fa2ab7be86c487875916d26b066523",
      "transactionIndex": "0x14",
      "blockHash": "0x0000000000000000000000000000000000000000000000000000000000000000",
      "blockNumber": "0x26bfad9",
      "gasUsed": "0x1206d",
      "effectiveGasPrice": "0x5b8d80",
      "blobGasUsed": "0x8b54",
      "from": "0xaf9f1cbb38cfdc0bb0c56953343b864e6b6769a8",
      "to": "0x33aa585b9934c9fe29471994db829fd6823b42ad",
      "contractAddress": null,
      "daFootprintGasScalar": "0x94",
      "l1BaseFeeScalar": "0x44d",
      "l1BlobBaseFee": "0x325b4e9",
      "l1BlobBaseFeeScalar": "0xa118b",
      "l1Fee": "0x63a6ac35b",
      "l1GasPrice": "0x31d6da55",
      "l1GasUsed": "0xf1d"
    },
    {
      "status": "0x1",
      "cumulativeGasUsed": "0x4cf636",
      "logs": [
        {
          "address": "0x12523de19dc41c91f7d2093e0cfbb76b17012c8d",
          "topics": [
            "0x82118522aa536ac0e96cc5c689407ae42b89d592aa133890a01f1509842f5081"
          ],
          "data": "0x00000000000000000000000033aa585b9934c9fe29471994db829fd6823b42ad0000000000000000000000000000000000000000000000000000000000009ce10000000000000000000000000000000000000000000000000000000000000060000000000000000000000000000000000000000000000000000000000000000100000000000000000000000000000000000000000000000000000000000000020000000000000000000000000000000000000000000000000000000000000002000000000000000000000000000000000000000000000000000000000000000100000000000000000000000000000000000000000000000000000000000000c000000000000000000000000000000000000000000000000000000000000001200000000000000000000000000000000000000000000000000000000000000002000000000000000000000000d9222cc3ccd1df7c070d700ea377d4ada2b86eb5000000000000000000000000e1a12515f9ab2764b887bf60b923ca494ebbb2d6000000000000000000000000000000000000000000000000000000000000000200000000000000000000000063ef73671245d1a290f2a675be9d906090f72a8d000000000000000000000000b1b2319767b86800c4cfe8623a72c00d9d90cfb6",
          "blockHash": "0x0000000000000000000000000000000000000000000000000000000000000000",
          "blockNumber": "0x26bfad9",
          "blockTimestamp": "0x69eb5492",
          "transactionHash": "0x98d9d4221a91ebb65b7c7a0408646d9045f3749b902f2cdc153d2b853a537199",
          "transactionIndex": "0x15",
          "logIndex": "0xc3",
          "removed": false
        }
      ],
      "logsBloom": "0x00000000000000000000000000000000000000000000000000000000000000000000000000000000000000000000000000000000000000000000000000000000000000000000000000000000000000000000000000000000002000000000000000000000000000000000000000000000000000000000000000000000000000000000000000100000000000000000000000000000000000000000000000000000000000000000000000000002000000004000000000000000000000000000000000000000000000000000000000000000000000000000000000000000000000000000000000000000000000000000000000000000000000000000000020000010",
      "type": "0x2",
      "transactionHash": "0x98d9d4221a91ebb65b7c7a0408646d9045f3749b902f2cdc153d2b853a537199",
      "transactionIndex": "0x15",
      "blockHash": "0x0000000000000000000000000000000000000000000000000000000000000000",
      "blockNumber": "0x26bfad9",
      "gasUsed": "0x11f89",
      "effectiveGasPrice": "0x5b8d80",
      "blobGasUsed": "0x8ac0",
      "from": "0xaf9f1cbb38cfdc0bb0c56953343b864e6b6769a8",
      "to": "0x33aa585b9934c9fe29471994db829fd6823b42ad",
      "contractAddress": null,
      "daFootprintGasScalar": "0x94",
      "l1BaseFeeScalar": "0x44d",
      "l1BlobBaseFee": "0x325b4e9",
      "l1BlobBaseFeeScalar": "0xa118b",
      "l1Fee": "0x63a6ac35b",
      "l1GasPrice": "0x31d6da55",
      "l1GasUsed": "0xf0f"
    }
  ],
  "libraries": [],
  "pending": [],
  "returns": {},
  "timestamp": 1777030289491,
  "chain": 84532,
  "commit": "de55ea5"
}