{
  "transactions": [
    {
      "hash": "0x9bc87c682186a3178b703af7c60ff4d97ce117097ba3a0142b7362df3a123e74",
      "transactionType": "CALL",
      "contractName": null,
      "contractAddress": "0x33aa585b9934c9fe29471994db829fd6823b42ad",
      "function": "setPeer(uint32,bytes32)",
      "arguments": [
        "40161",
        "0x000000000000000000000000d8d092a5e8207fa58716726a243fc8cb8b80c92a"
      ],
      "transaction": {
        "from": "0xaf9f1cbb38cfdc0bb0c56953343b864e6b6769a8",
        "to": "0x33aa585b9934c9fe29471994db829fd6823b42ad",
        "gas": "0xa245",
        "value": "0x0",
        "input": "0x3400288b0000000000000000000000000000000000000000000000000000000000009ce1000000000000000000000000d8d092a5e8207fa58716726a243fc8cb8b80c92a",
        "nonce": "0x18",
        "chainId": "0x14a34"
      },
      "additionalContracts": [],
      "isFixedGasLimit": false
    },
    {
      "hash": "0xed50ae8ac4e703975df5fdd556eff6d5923aa51bc7b5e38c8a08bfbe5311eeda",
      "transactionType": "CALL",
      "contractName": null,
      "contractAddress": "0x33aa585b9934c9fe29471994db829fd6823b42ad",
      "function": "setLzConfig(address,(uint32,uint32,bytes)[])",
      "arguments": [
        "0xC1868e054425D378095A003EcbA3823a5D0135C9",
        "[(40161, 1, 0x00000000000000000000000000000000000000000000000000000000000027100000000000000000000000008a3d588d9f6ac041476b094f97ff94ec30169d3d)]"
      ],
      "transaction": {
        "from": "0xaf9f1cbb38cfdc0bb0c56953343b864e6b6769a8",
        "to": "0x33aa585b9934c9fe29471994db829fd6823b42ad",
        "gas": "0x10d63",
        "value": "0x0",
        "input": "0x60dc4a3e000000000000000000000000c1868e054425d378095a003ecba3823a5d0135c90000000000000000000000000000000000000000000000000000000000000040000000000000000000000000000000000000000000000000000000000000000100000000000000000000000000000000000000000000000000000000000000200000000000000000000000000000000000000000000000000000000000009ce100000000000000000000000000000000000000000000000000000000000000010000000000000000000000000000000000000000000000000000000000000060000000000000000000000000000000000000000000000000000000000000004000000000000000000000000000000000000000000000000000000000000027100000000000000000000000008a3d588d9f6ac041476b094f97ff94ec30169d3d",
        "nonce": "0x19",
        "chainId": "0x14a34"
      },
      "additionalContracts": [],
      "isFixedGasLimit": false
    },
    {
      "hash": "0xafd3333a32c1dc686b441509ab50ed76836b9790650bf7dbd858d3e644fa1735",
      "transactionType": "CALL",
      "contractName": null,
      "contractAddress": "0x33aa585b9934c9fe29471994db829fd6823b42ad",
      "function": "setLzConfig(address,(uint32,uint32,bytes)[])",
      "arguments": [
        "0xC1868e054425D378095A003EcbA3823a5D0135C9",
        "[(40161, 2, 0x0000000000000000000000000000000000000000000000000000000000000020000000000000000000000000000000000000000000000000000000000000000100000000000000000000000000000000000000000000000000000000000000020000000000000000000000000000000000000000000000000000000000000002000000000000000000000000000000000000000000000000000000000000000100000000000000000000000000000000000000000000000000000000000000c000000000000000000000000000000000000000000000000000000000000001200000000000000000000000000000000000000000000000000000000000000002000000000000000000000000d9222cc3ccd1df7c070d700ea377d4ada2b86eb5000000000000000000000000e1a12515f9ab2764b887bf60b923ca494ebbb2d6000000000000000000000000000000000000000000000000000000000000000200000000000000000000000063ef73671245d1a290f2a675be9d906090f72a8d000000000000000000000000b1b2319767b86800c4cfe8623a72c00d9d90cfb6)]"
      ],
      "transaction": {
        "from": "0xaf9f1cbb38cfdc0bb0c56953343b864e6b6769a8",
        "to": "0x33aa585b9934c9fe29471994db829fd6823b42ad",
        "gas": "0x33db5",
        "value": "0x0",
        "input": "0x60dc4a3e000000000000000000000000c1868e054425d378095a003ecba3823a5d0135c90000000000000000000000000000000000000000000000000000000000000040000000000000000000000000000000000000000000000000000000000000000100000000000000000000000000000000000000000000000000000000000000200000000000000000000000000000000000000000000000000000000000009ce10000000000000000000000000000000000000000000000000000000000000002000000000000000000000000000000000000000000000000000000000000006000000000000000000000000000000000000000000000000000000000000001a00000000000000000000000000000000000000000000000000000000000000020000000000000000000000000000000000000000000000000000000000000000100000000000000000000000000000000000000000000000000000000000000020000000000000000000000000000000000000000000000000000000000000002000000000000000000000000000000000000000000000000000000000000000100000000000000000000000000000000000000000000000000000000000000c000000000000000000000000000000000000000000000000000000000000001200000000000000000000000000000000000000000000000000000000000000002000000000000000000000000d9222cc3ccd1df7c070d700ea377d4ada2b86eb5000000000000000000000000e1a12515f9ab2764b887bf60b923ca494ebbb2d6000000000000000000000000000000000000000000000000000000000000000200000000000000000000000063ef73671245d1a290f2a675be9d906090f72a8d000000000000000000000000b1b2319767b86800c4cfe8623a72c00d9d90cfb6",
        "nonce": "0x1a",
        "chainId": "0x14a34"
      },
      "additionalContracts": [],
      "isFixedGasLimit": false
    },
    {
      "hash": "0x2a7245b6aa55b8f3089ec3a88bc78c7c98661e2e488c54d809639134c73ba3a5",
      "transactionType": "CALL",
      "contractName": null,
      "contractAddress": "0x33aa585b9934c9fe29471994db829fd6823b42ad",
      "function": "setLzConfig(address,(uint32,uint32,bytes)[])",
      "arguments": [
        "0x12523de19dc41c91F7d2093E0CFbB76b17012C8d",
        "[(40161, 2, 0x0000000000000000000000000000000000000000000000000000000000000020000000000000000000000000000000000000000000000000000000000000000100000000000000000000000000000000000000000000000000000000000000020000000000000000000000000000000000000000000000000000000000000002000000000000000000000000000000000000000000000000000000000000000100000000000000000000000000000000000000000000000000000000000000c000000000000000000000000000000000000000000000000000000000000001200000000000000000000000000000000000000000000000000000000000000002000000000000000000000000d9222cc3ccd1df7c070d700ea377d4ada2b86eb5000000000000000000000000e1a12515f9ab2764b887bf60b923ca494ebbb2d6000000000000000000000000000000000000000000000000000000000000000200000000000000000000000063ef73671245d1a290f2a675be9d906090f72a8d000000000000000000000000b1b2319767b86800c4cfe8623a72c00d9d90cfb6)]"
      ],
      "transaction": {
        "from": "0xaf9f1cbb38cfdc0bb0c56953343b864e6b6769a8",
        "to": "0x33aa585b9934c9fe29471994db829fd6823b42ad",
        "gas": "0x30e61",
        "value": "0x0",
        "input": "0x60dc4a3e00000000000000000000000012523de19dc41c91f7d2093e0cfbb76b17012c8d0000000000000000000000000000000000000000000000000000000000000040000000000000000000000000000000000000000000000000000000000000000100000000000000000000000000000000000000000000000000000000000000200000000000000000000000000000000000000000000000000000000000009ce10000000000000000000000000000000000000000000000000000000000000002000000000000000000000000000000000000000000000000000000000000006000000000000000000000000000000000000000000000000000000000000001a00000000000000000000000000000000000000000000000000000000000000020000000000000000000000000000000000000000000000000000000000000000100000000000000000000000000000000000000000000000000000000000000020000000000000000000000000000000000000000000000000000000000000002000000000000000000000000000000000000000000000000000000000000000100000000000000000000000000000000000000000000000000000000000000c000000000000000000000000000000000000000000000000000000000000001200000000000000000000000000000000000000000000000000000000000000002000000000000000000000000d9222cc3ccd1df7c070d700ea377d4ada2b86eb5000000000000000000000000e1a12515f9ab2764b887bf60b923ca494ebbb2d6000000000000000000000000000000000000000000000000000000000000000200000000000000000000000063ef73671245d1a290f2a675be9d906090f72a8d000000000000000000000000b1b2319767b86800c4cfe8623a72c00d9d90cfb6",
        "nonce": "0x1b",
        "chainId": "0x14a34"
      },
      "additionalContracts": [],
      "isFixedGasLimit": false
    }
  ],
  "receipts": [
    {
      "status": "0x1",
      "cumulativeGasUsed": "0x1378d6",
      "logs": [
        {
          "address": "0x33aa585b9934c9fe29471994db829fd6823b42ad",
          "topics": [
            "0x238399d427b947898edb290f5ff0f9109849b1c3ba196a42e35f00c50a54b98b"
          ],
          "data": "0x0000000000000000000000000000000000000000000000000000000000009ce1000000000000000000000000d8d092a5e8207fa58716726a243fc8cb8b80c92a",
          "blockHash": "0x0000000000000000000000000000000000000000000000000000000000000000",
          "blockNumber": "0x26bf9e1",
          "blockTimestamp": "0x69eb52a2",
          "transactionHash": "0x9bc87c682186a3178b703af7c60ff4d97ce117097ba3a0142b7362df3a123e74",
          "transactionIndex": "0x5",
          "logIndex": "0x43",
          "removed": false
        }
      ],
      "logsBloom": "0x00000000000000000000000000000000000000000000000000000000000000000000000000000000000000000000000000020000000000000800000000000000000000001000000000000000000000000000000000000000000000000000000000000000000000000000000000000000000000000000000000000000000000000000000000000000000000000000000000000000000000000000000000000000000000000000000000000000000000000000000000000000000002000000000000000000000000000000000000000000000000000000000000040000000000000000002000000000000000000000000000000000000000000000000000000000",
      "type": "0x2",
      "transactionHash": "0x9bc87c682186a3178b703af7c60ff4d97ce117097ba3a0142b7362df3a123e74",
      "transactionIndex": "0x5",
      "blockHash": "0x0000000000000000000000000000000000000000000000000000000000000000",
      "blockNumber": "0x26bf9e1",
      "gasUsed": "0x757c",
      "effectiveGasPrice": "0x5b8d80",
      "blobGasUsed": "0x39d0",
      "from": "0xaf9f1cbb38cfdc0bb0c56953343b864e6b6769a8",
      "to": "0x33aa585b9934c9fe29471994db829fd6823b42ad",
      "contractAddress": null,
      "daFootprintGasScalar": "0x94",
      "l1BaseFeeScalar": "0x44d",
      "l1BlobBaseFee": "0x5793dc6",
      "l1BlobBaseFeeScalar": "0xa118b",
      "l1Fee": "0xb07bac26e",
      "l1GasPrice": "0x5ecfac4d",
      "l1GasUsed": "0x640"
    },
    {
      "status": "0x1",
      "cumulativeGasUsed": "0x143109",
      "logs": [
        {
          "address": "0xc1868e054425d378095a003ecba3823a5d0135c9",
          "topics": [
            "0x779cb2dd9d2bb1be1737d05435d744facbfb84a2a4912e21379d39beddcdc805"
          ],
          "data": "0x00000000000000000000000033aa585b9934c9fe29471994db829fd6823b42ad0000000000000000000000000000000000000000000000000000000000009ce100000000000000000000000000000000000000000000000000000000000027100000000000000000000000008a3d588d9f6ac041476b094f97ff94ec30169d3d",
          "blockHash": "0x0000000000000000000000000000000000000000000000000000000000000000",
          "blockNumber": "0x26bf9e1",
          "blockTimestamp": "0x69eb52a2",
          "transactionHash": "0x2a7245b6aa55b8f3089ec3a88bc78c7c98661e2e488c54d809639134c73ba3a5",
          "transactionIndex": "0x6",
          "logIndex": "0x44",
          "removed": false
        }
      ],
      "logsBloom": "0x00000000000000000000000000000000000000000000000000000000000000000000000000000200000000000000000000000000000000000000000000000000000000000000000000000040000000000000000000000000000000020000000000000000000000000000000000000000000000000000000000000000000000000000000000000000000000000000000000000000000000000000000000000000000000000000000000000000000000000000000000000000000000000000000280000000000000000000000000000000000000000000000000000000000000000008000000000000000000000000000000000000000000000000000000000000",
      "type": "0x2",
      "transactionHash": "0x2a7245b6aa55b8f3089ec3a88bc78c7c98661e2e488c54d809639134c73ba3a5",
      "transactionIndex": "0x6",
      "blockHash": "0x0000000000000000000000000000000000000000000000000000000000000000",
      "blockNumber": "0x26bf9e1",
      "gasUsed": "0xb833",
      "effectiveGasPrice": "0x5b8d80",
      "blobGasUsed": "0x5590",
      "from": "0xaf9f1cbb38cfdc0bb0c56953343b864e6b6769a8",
      "to": "0x33aa585b9934c9fe29471994db829fd6823b42ad",
      "contractAddress": null,
      "daFootprintGasScalar": "0x94",
      "l1BaseFeeScalar": "0x44d",
      "l1BlobBaseFee": "0x5793dc6",
      "l1BlobBaseFeeScalar": "0xa118b",
      "l1Fee": "0xb07bac26e",
      "l1GasPrice": "0x5ecfac4d",
      "l1GasUsed": "0x94f"
    },
    {
      "status": "0x1",
      "cumulativeGasUsed": "0x16685c",
      "logs": [
        {
          "address": "0xc1868e054425d378095a003ecba3823a5d0135c9",
          "topics": [
            "0x82118522aa536ac0e96cc5c689407ae42b89d592aa133890a01f1509842f5081"
          ],
          "data": "0x00000000000000000000000033aa585b9934c9fe29471994db829fd6823b42ad0000000000000000000000000000000000000000000000000000000000009ce10000000000000000000000000000000000000000000000000000000000000060000000000000000000000000000000000000000000000000000000000000000100000000000000000000000000000000000000000000000000000000000000020000000000000000000000000000000000000000000000000000000000000002000000000000000000000000000000000000000000000000000000000000000100000000000000000000000000000000000000000000000000000000000000c000000000000000000000000000000000000000000000000000000000000001200000000000000000000000000000000000000000000000000000000000000002000000000000000000000000d9222cc3ccd1df7c070d700ea377d4ada2b86eb5000000000000000000000000e1a12515f9ab2764b887bf60b923ca494ebbb2d6000000000000000000000000000000000000000000000000000000000000000200000000000000000000000063ef73671245d1a290f2a675be9d906090f72a8d000000000000000000000000b1b2319767b86800c4cfe8623a72c00d9d90cfb6",
          "blockHash": "0x0000000000000000000000000000000000000000000000000000000000000000",
          "blockNumber": "0x26bf9e1",
          "blockTimestamp": "0x69eb52a2",
          "transactionHash": "0xed50ae8ac4e703975df5fdd556eff6d5923aa51bc7b5e38c8a08bfbe5311eeda",
          "transactionIndex": "0x7",
          "logIndex": "0x45",
          "removed": false
        }
      ],
      "logsBloom": "0x00000000000000000000000000000000000000000000000000000000000000000000000000000200000000000000000000000000000000000000000000000000000000000000000000000000000000000000000000000000002000020000000000000000000000000000000000000000000000000000000000000000000000000000000000000000000000000000000000000000000000000000000000000000000000000000000000000002000000000000000000000000000000000000000080000000000000000000000000000000000000000000000000000000000000000000000000000000000000000000000000000000000000000000000000000010",
      "type": "0x2",
      "transactionHash": "0xed50ae8ac4e703975df5fdd556eff6d5923aa51bc7b5e38c8a08bfbe5311eeda",
      "transactionIndex": "0x7",
      "blockHash": "0x0000000000000000000000000000000000000000000000000000000000000000",
      "blockNumber": "0x26bf9e1",
      "gasUsed": "0x23753",
      "effectiveGasPrice": "0x5b8d80",
      "blobGasUsed": "0x8b54",
      "from": "0xaf9f1cbb38cfdc0bb0c56953343b864e6b6769a8",
      "to": "0x33aa585b9934c9fe29471994db829fd6823b42ad",
      "contractAddress": null,
      "daFootprintGasScalar": "0x94",
      "l1BaseFeeScalar": "0x44d",
      "l1BlobBaseFee": "0x5793dc6",
      "l1BlobBaseFeeScalar": "0xa118b",
      "l1Fee": "0xb07bac26e",
      "l1GasPrice": "0x5ecfac4d",
      "l1GasUsed": "0xf1d"
    },
    {
      "status": "0x1",
      "cumulativeGasUsed": "0x189ecb",
      "logs": [
        {
          "address": "0x12523de19dc41c91f7d2093e0cfbb76b17012c8d",
          "topics": [
            "0x82118522aa536ac0e96cc5c689407ae42b89d592aa133890a01f1509842f5081"
          ],
          "data": "0x00000000000000000000000033aa585b9934c9fe29471994db829fd6823b42ad0000000000000000000000000000000000000000000000000000000000009ce10000000000000000000000000000000000000000000000000000000000000060000000000000000000000000000000000000000000000000000000000000000100000000000000000000000000000000000000000000000000000000000000020000000000000000000000000000000000000000000000000000000000000002000000000000000000000000000000000000000000000000000000000000000100000000000000000000000000000000000000000000000000000000000000c000000000000000000000000000000000000000000000000000000000000001200000000000000000000000000000000000000000000000000000000000000002000000000000000000000000d9222cc3ccd1df7c070d700ea377d4ada2b86eb5000000000000000000000000e1a12515f9ab2764b887bf60b923ca494ebbb2d6000000000000000000000000000000000000000000000000000000000000000200000000000000000000000063ef73671245d1a290f2a675be9d906090f72a8d000000000000000000000000b1b2319767b86800c4cfe8623a72c00d9d90cfb6",
          "blockHash": "0x0000000000000000000000000000000000000000000000000000000000000000",
          "blockNumber": "0x26bf9e1",
          "blockTimestamp": "0x69eb52a2",
          "transactionHash": "0xafd3333a32c1dc686b441509ab50ed76836b9790650bf7dbd858d3e644fa1735",
          "transactionIndex": "0x8",
          "logIndex": "0x46",
          "removed": false
        }
      ],
      "logsBloom": "0x00000000000000000000000000000000000000000000000000000000000000000000000000000000000000000000000000000000000000000000000000000000000000000000000000000000000000000000000000000000002000000000000000000000000000000000000000000000000000000000000000000000000000000000000000100000000000000000000000000000000000000000000000000000000000000000000000000002000000004000000000000000000000000000000000000000000000000000000000000000000000000000000000000000000000000000000000000000000000000000000000000000000000000000000020000010",
      "type": "0x2",
      "transactionHash": "0xafd3333a32c1dc686b441509ab50ed76836b9790650bf7dbd858d3e644fa1735",
      "transactionIndex": "0x8",
      "blockHash": "0x0000000000000000000000000000000000000000000000000000000000000000",
      "blockNumber": "0x26bf9e1",
      "gasUsed": "0x2366f",
      "effectiveGasPrice": "0x5b8d80",
      "blobGasUsed": "0x8ac0",
      "from": "0xaf9f1cbb38cfdc0bb0c56953343b864e6b6769a8",
      "to": "0x33aa585b9934c9fe29471994db829fd6823b42ad",
      "contractAddress": null,
      "daFootprintGasScalar": "0x94",
      "l1BaseFeeScalar": "0x44d",
      "l1BlobBaseFee": "0x5793dc6",
      "l1BlobBaseFeeScalar": "0xa118b",
      "l1Fee": "0xb07bac26e",
      "l1GasPrice": "0x5ecfac4d",
      "l1GasUsed": "0xf0f"
    }
  ],
  "libraries": [],
  "pending": [],
  "returns": {},
  "timestamp": 1777029792546,
  "chain": 84532,
  "commit": "de55ea5"
}