{
  "transactions": [
    {
      "hash": "0xd319957a234a38e3996c45ac84557587f6ad9fc98e3f1fa295cc44e0ea28faf5",
      "transactionType": "CALL",
      "contractName": null,
      "contractAddress": "0x33aa585b9934c9fe29471994db829fd6823b42ad",
      "function": "setPeer(uint32,bytes32)",
      "arguments": [
        "40161",
        "0x000000000000000000000000d8d092a5e8207fa58716726a243fc8cb8b80c92a"
      ],
      "transaction": {
        "from": "0xaf9f1cbb38cfdc0bb0c56953343b864e6b6769a8",
        "to": "0x33aa585b9934c9fe29471994db829fd6823b42ad",
        "gas": "0xa245",
        "value": "0x0",
        "input": "0x3400288b0000000000000000000000000000000000000000000000000000000000009ce1000000000000000000000000d8d092a5e8207fa58716726a243fc8cb8b80c92a",
        "nonce": "0xc",
        "chainId": "0x14a34"
      },
      "additionalContracts": [],
      "isFixedGasLimit": false
    },
    {
      "hash": "0x673227d08bba34d6499661ddd51d682bc10e09887b9d4c96dce93416579bd7aa",
      "transactionType": "CALL",
      "contractName": null,
      "contractAddress": "0x33aa585b9934c9fe29471994db829fd6823b42ad",
      "function": "setLzConfig(address,(uint32,uint32,bytes)[])",
      "arguments": [
        "0xC1868e054425D378095A003EcbA3823a5D0135C9",
        "[(40161, 1, 0x00000000000000000000000000000000000000000000000000000000000027100000000000000000000000008a3d588d9f6ac041476b094f97ff94ec30169d3d)]"
      ],
      "transaction": {
        "from": "0xaf9f1cbb38cfdc0bb0c56953343b864e6b6769a8",
        "to": "0x33aa585b9934c9fe29471994db829fd6823b42ad",
        "gas": "0x10d63",
        "value": "0x0",
        "input": "0x60dc4a3e000000000000000000000000c1868e054425d378095a003ecba3823a5d0135c90000000000000000000000000000000000000000000000000000000000000040000000000000000000000000000000000000000000000000000000000000000100000000000000000000000000000000000000000000000000000000000000200000000000000000000000000000000000000000000000000000000000009ce100000000000000000000000000000000000000000000000000000000000000010000000000000000000000000000000000000000000000000000000000000060000000000000000000000000000000000000000000000000000000000000004000000000000000000000000000000000000000000000000000000000000027100000000000000000000000008a3d588d9f6ac041476b094f97ff94ec30169d3d",
        "nonce": "0xd",
        "chainId": "0x14a34"
      },
      "additionalContracts": [],
      "isFixedGasLimit": false
    },
    {
      "hash": "0x1e37f4254cc2e9b67e7c6a3f6bdf1175560eb7ce77e53a5154d7c10b965cce55",
      "transactionType": "CALL",
      "contractName": null,
      "contractAddress": "0x33aa585b9934c9fe29471994db829fd6823b42ad",
      "function": "setLzConfig(address,(uint32,uint32,bytes)[])",
      "arguments": [
        "0xC1868e054425D378095A003EcbA3823a5D0135C9",
        "[(40161, 2, 0x0000000000000000000000000000000000000000000000000000000000000020000000000000000000000000000000000000000000000000000000000000000100000000000000000000000000000000000000000000000000000000000000010000000000000000000000000000000000000000000000000000000000000000000000000000000000000000000000000000000000000000000000000000000000000000000000000000000000000000000000000000000000000000000000c000000000000000000000000000000000000000000000000000000000000001000000000000000000000000000000000000000000000000000000000000000001000000000000000000000000bf6ff58f60606edf2f190769b951d825bcb214e20000000000000000000000000000000000000000000000000000000000000000)]"
      ],
      "transaction": {
        "from": "0xaf9f1cbb38cfdc0bb0c56953343b864e6b6769a8",
        "to": "0x33aa585b9934c9fe29471994db829fd6823b42ad",
        "gas": "0x16494",
        "value": "0x0",
        "input": "0x60dc4a3e000000000000000000000000c1868e054425d378095a003ecba3823a5d0135c90000000000000000000000000000000000000000000000000000000000000040000000000000000000000000000000000000000000000000000000000000000100000000000000000000000000000000000000000000000000000000000000200000000000000000000000000000000000000000000000000000000000009ce10000000000000000000000000000000000000000000000000000000000000002000000000000000000000000000000000000000000000000000000000000006000000000000000000000000000000000000000000000000000000000000001400000000000000000000000000000000000000000000000000000000000000020000000000000000000000000000000000000000000000000000000000000000100000000000000000000000000000000000000000000000000000000000000010000000000000000000000000000000000000000000000000000000000000000000000000000000000000000000000000000000000000000000000000000000000000000000000000000000000000000000000000000000000000000000000c000000000000000000000000000000000000000000000000000000000000001000000000000000000000000000000000000000000000000000000000000000001000000000000000000000000bf6ff58f60606edf2f190769b951d825bcb214e20000000000000000000000000000000000000000000000000000000000000000",
        "nonce": "0xe",
        "chainId": "0x14a34"
      },
      "additionalContracts": [],
      "isFixedGasLimit": false
    },
    {
      "hash": "0x6a626e00f466a35ff9d8bc15b39b8c8503cf1da19f554cd233e92d5f62464b32",
      "transactionType": "CALL",
      "contractName": null,
      "contractAddress": "0x33aa585b9934c9fe29471994db829fd6823b42ad",
      "function": "setLzConfig(address,(uint32,uint32,bytes)[])",
      "arguments": [
        "0x12523de19dc41c91F7d2093E0CFbB76b17012C8d",
        "[(40161, 2, 0x0000000000000000000000000000000000000000000000000000000000000020000000000000000000000000000000000000000000000000000000000000000100000000000000000000000000000000000000000000000000000000000000010000000000000000000000000000000000000000000000000000000000000000000000000000000000000000000000000000000000000000000000000000000000000000000000000000000000000000000000000000000000000000000000c000000000000000000000000000000000000000000000000000000000000001000000000000000000000000000000000000000000000000000000000000000001000000000000000000000000bf6ff58f60606edf2f190769b951d825bcb214e20000000000000000000000000000000000000000000000000000000000000000)]"
      ],
      "transaction": {
        "from": "0xaf9f1cbb38cfdc0bb0c56953343b864e6b6769a8",
        "to": "0x33aa585b9934c9fe29471994db829fd6823b42ad",
        "gas": "0x1632c",
        "value": "0x0",
        "input": "0x60dc4a3e00000000000000000000000012523de19dc41c91f7d2093e0cfbb76b17012c8d0000000000000000000000000000000000000000000000000000000000000040000000000000000000000000000000000000000000000000000000000000000100000000000000000000000000000000000000000000000000000000000000200000000000000000000000000000000000000000000000000000000000009ce10000000000000000000000000000000000000000000000000000000000000002000000000000000000000000000000000000000000000000000000000000006000000000000000000000000000000000000000000000000000000000000001400000000000000000000000000000000000000000000000000000000000000020000000000000000000000000000000000000000000000000000000000000000100000000000000000000000000000000000000000000000000000000000000010000000000000000000000000000000000000000000000000000000000000000000000000000000000000000000000000000000000000000000000000000000000000000000000000000000000000000000000000000000000000000000000c000000000000000000000000000000000000000000000000000000000000001000000000000000000000000000000000000000000000000000000000000000001000000000000000000000000bf6ff58f60606edf2f190769b951d825bcb214e20000000000000000000000000000000000000000000000000000000000000000",
        "nonce": "0xf",
        "chainId": "0x14a34"
      },
      "additionalContracts": [],
      "isFixedGasLimit": false
    }
  ],
  "receipts": [
    {
      "status": "0x1",
      "cumulativeGasUsed": "0x118e19e",
      "logs": [
        {
          "address": "0x33aa585b9934c9fe29471994db829fd6823b42ad",
          "topics": [
            "0x238399d427b947898edb290f5ff0f9109849b1c3ba196a42e35f00c50a54b98b"
          ],
          "data": "0x0000000000000000000000000000000000000000000000000000000000009ce1000000000000000000000000d8d092a5e8207fa58716726a243fc8cb8b80c92a",
          "blockHash": "0x0000000000000000000000000000000000000000000000000000000000000000",
          "blockNumber": "0x26b5fcd",
          "blockTimestamp": "0x69ea1e7a",
          "transactionHash": "0xd319957a234a38e3996c45ac84557587f6ad9fc98e3f1fa295cc44e0ea28faf5",
          "transactionIndex": "0x24",
          "logIndex": "0x1e3",
          "removed": false
        }
      ],
      "logsBloom": "0x00000000000000000000000000000000000000000000000000000000000000000000000000000000000000000000000000020000000000000800000000000000000000001000000000000000000000000000000000000000000000000000000000000000000000000000000000000000000000000000000000000000000000000000000000000000000000000000000000000000000000000000000000000000000000000000000000000000000000000000000000000000000002000000000000000000000000000000000000000000000000000000000000040000000000000000002000000000000000000000000000000000000000000000000000000000",
      "type": "0x2",
      "transactionHash": "0xd319957a234a38e3996c45ac84557587f6ad9fc98e3f1fa295cc44e0ea28faf5",
      "transactionIndex": "0x24",
      "blockHash": "0x0000000000000000000000000000000000000000000000000000000000000000",
      "blockNumber": "0x26b5fcd",
      "gasUsed": "0x757c",
      "effectiveGasPrice": "0x5b8d80",
      "blobGasUsed": "0x39d0",
      "from": "0xaf9f1cbb38cfdc0bb0c56953343b864e6b6769a8",
      "to": "0x33aa585b9934c9fe29471994db829fd6823b42ad",
      "contractAddress": null,
      "daFootprintGasScalar": "0x94",
      "l1BaseFeeScalar": "0x44d",
      "l1BlobBaseFee": "0x3c43b",
      "l1BlobBaseFeeScalar": "0xa118b",
      "l1Fee": "0x16bd7e2",
      "l1GasPrice": "0x4174f3",
      "l1GasUsed": "0x640"
    },
    {
      "status": "0x1",
      "cumulativeGasUsed": "0x11999d1",
      "logs": [
        {
          "address": "0xc1868e054425d378095a003ecba3823a5d0135c9",
          "topics": [
            "0x779cb2dd9d2bb1be1737d05435d744facbfb84a2a4912e21379d39beddcdc805"
          ],
          "data": "0x00000000000000000000000033aa585b9934c9fe29471994db829fd6823b42ad0000000000000000000000000000000000000000000000000000000000009ce100000000000000000000000000000000000000000000000000000000000027100000000000000000000000008a3d588d9f6ac041476b094f97ff94ec30169d3d",
          "blockHash": "0x0000000000000000000000000000000000000000000000000000000000000000",
          "blockNumber": "0x26b5fcd",
          "blockTimestamp": "0x69ea1e7a",
          "transactionHash": "0x673227d08bba34d6499661ddd51d682bc10e09887b9d4c96dce93416579bd7aa",
          "transactionIndex": "0x25",
          "logIndex": "0x1e4",
          "removed": false
        }
      ],
      "logsBloom": "0x00000000000000000000000000000000000000000000000000000000000000000000000000000200000000000000000000000000000000000000000000000000000000000000000000000040000000000000000000000000000000020000000000000000000000000000000000000000000000000000000000000000000000000000000000000000000000000000000000000000000000000000000000000000000000000000000000000000000000000000000000000000000000000000000280000000000000000000000000000000000000000000000000000000000000000008000000000000000000000000000000000000000000000000000000000000",
      "type": "0x2",
      "transactionHash": "0x673227d08bba34d6499661ddd51d682bc10e09887b9d4c96dce93416579bd7aa",
      "transactionIndex": "0x25",
      "blockHash": "0x0000000000000000000000000000000000000000000000000000000000000000",
      "blockNumber": "0x26b5fcd",
      "gasUsed": "0xb833",
      "effectiveGasPrice": "0x5b8d80",
      "blobGasUsed": "0x5590",
      "from": "0xaf9f1cbb38cfdc0bb0c56953343b864e6b6769a8",
      "to": "0x33aa585b9934c9fe29471994db829fd6823b42ad",
      "contractAddress": null,
      "daFootprintGasScalar": "0x94",
      "l1BaseFeeScalar": "0x44d",
      "l1BlobBaseFee": "0x3c43b",
      "l1BlobBaseFeeScalar": "0xa118b",
      "l1Fee": "0x16bd7e2",
      "l1GasPrice": "0x4174f3",
      "l1GasUsed": "0x94f"
    },
    {
      "status": "0x1",
      "cumulativeGasUsed": "0x11a8da2",
      "logs": [
        {
          "address": "0xc1868e054425d378095a003ecba3823a5d0135c9",
          "topics": [
            "0x82118522aa536ac0e96cc5c689407ae42b89d592aa133890a01f1509842f5081"
          ],
          "data": "0x00000000000000000000000033aa585b9934c9fe29471994db829fd6823b42ad0000000000000000000000000000000000000000000000000000000000009ce10000000000000000000000000000000000000000000000000000000000000060000000000000000000000000000000000000000000000000000000000000000100000000000000000000000000000000000000000000000000000000000000010000000000000000000000000000000000000000000000000000000000000000000000000000000000000000000000000000000000000000000000000000000000000000000000000000000000000000000000000000000000000000000000c000000000000000000000000000000000000000000000000000000000000001000000000000000000000000000000000000000000000000000000000000000001000000000000000000000000bf6ff58f60606edf2f190769b951d825bcb214e20000000000000000000000000000000000000000000000000000000000000000",
          "blockHash": "0x0000000000000000000000000000000000000000000000000000000000000000",
          "blockNumber": "0x26b5fcd",
          "blockTimestamp": "0x69ea1e7a",
          "transactionHash": "0x6a626e00f466a35ff9d8bc15b39b8c8503cf1da19f554cd233e92d5f62464b32",
          "transactionIndex": "0x26",
          "logIndex": "0x1e5",
          "removed": false
        }
      ],
      "logsBloom": "0x00000000000000000000000000000000000000000000000000000000000000000000000000000200000000000000000000000000000000000000000000000000000000000000000000000000000000000000000000000000002000020000000000000000000000000000000000000000000000000000000000000000000000000000000000000000000000000000000000000000000000000000000000000000000000000000000000000002000000000000000000000000000000000000000080000000000000000000000000000000000000000000000000000000000000000000000000000000000000000000000000000000000000000000000000000010",
      "type": "0x2",
      "transactionHash": "0x6a626e00f466a35ff9d8bc15b39b8c8503cf1da19f554cd233e92d5f62464b32",
      "transactionIndex": "0x26",
      "blockHash": "0x0000000000000000000000000000000000000000000000000000000000000000",
      "blockNumber": "0x26b5fcd",
      "gasUsed": "0xf3d1",
      "effectiveGasPrice": "0x5b8d80",
      "blobGasUsed": "0x62dc",
      "from": "0xaf9f1cbb38cfdc0bb0c56953343b864e6b6769a8",
      "to": "0x33aa585b9934c9fe29471994db829fd6823b42ad",
      "contractAddress": null,
      "daFootprintGasScalar": "0x94",
      "l1BaseFeeScalar": "0x44d",
      "l1BlobBaseFee": "0x3c43b",
      "l1BlobBaseFeeScalar": "0xa118b",
      "l1Fee": "0x16bd7e2",
      "l1GasPrice": "0x4174f3",
      "l1GasUsed": "0xab8"
    },
    {
      "status": "0x1",
      "cumulativeGasUsed": "0x11b807d",
      "logs": [
        {
          "address": "0x12523de19dc41c91f7d2093e0cfbb76b17012c8d",
          "topics": [
            "0x82118522aa536ac0e96cc5c689407ae42b89d592aa133890a01f1509842f5081"
          ],
          "data": "0x00000000000000000000000033aa585b9934c9fe29471994db829fd6823b42ad0000000000000000000000000000000000000000000000000000000000009ce10000000000000000000000000000000000000000000000000000000000000060000000000000000000000000000000000000000000000000000000000000000100000000000000000000000000000000000000000000000000000000000000010000000000000000000000000000000000000000000000000000000000000000000000000000000000000000000000000000000000000000000000000000000000000000000000000000000000000000000000000000000000000000000000c000000000000000000000000000000000000000000000000000000000000001000000000000000000000000000000000000000000000000000000000000000001000000000000000000000000bf6ff58f60606edf2f190769b951d825bcb214e20000000000000000000000000000000000000000000000000000000000000000",
          "blockHash": "0x0000000000000000000000000000000000000000000000000000000000000000",
          "blockNumber": "0x26b5fcd",
          "blockTimestamp": "0x69ea1e7a",
          "transactionHash": "0x1e37f4254cc2e9b67e7c6a3f6bdf1175560eb7ce77e53a5154d7c10b965cce55",
          "transactionIndex": "0x27",
          "logIndex": "0x1e6",
          "removed": false
        }
      ],
      "logsBloom": "0x00000000000000000000000000000000000000000000000000000000000000000000000000000000000000000000000000000000000000000000000000000000000000000000000000000000000000000000000000000000002000000000000000000000000000000000000000000000000000000000000000000000000000000000000000100000000000000000000000000000000000000000000000000000000000000000000000000002000000004000000000000000000000000000000000000000000000000000000000000000000000000000000000000000000000000000000000000000000000000000000000000000000000000000000020000010",
      "type": "0x2",
      "transactionHash": "0x1e37f4254cc2e9b67e7c6a3f6bdf1175560eb7ce77e53a5154d7c10b965cce55",
      "transactionIndex": "0x27",
      "blockHash": "0x0000000000000000000000000000000000000000000000000000000000000000",
      "blockNumber": "0x26b5fcd",
      "gasUsed": "0xf2db",
      "effectiveGasPrice": "0x5b8d80",
      "blobGasUsed": "0x62dc",
      "from": "0xaf9f1cbb38cfdc0bb0c56953343b864e6b6769a8",
      "to": "0x33aa585b9934c9fe29471994db829fd6823b42ad",
      "contractAddress": null,
      "daFootprintGasScalar": "0x94",
      "l1BaseFeeScalar": "0x44d",
      "l1BlobBaseFee": "0x3c43b",
      "l1BlobBaseFeeScalar": "0xa118b",
      "l1Fee": "0x16bd7e2",
      "l1GasPrice": "0x4174f3",
      "l1GasUsed": "0xab8"
    }
  ],
  "libraries": [],
  "pending": [],
  "returns": {},
  "timestamp": 1776950905636,
  "chain": 84532,
  "commit": "de55ea5"
}